:020000040800F2
:100000000000052061B30008B1B60008EB9D0008B0
:10001000E59D000865B8000867B80008000000000A
:1000200000000000000000000000000041940008F3
:1000300069B80008000000006BB800086DB800083F
:10004000B1B30008B1B30008B1B30008B1B3000800
:1000500071B80008B1B30008B1B30008B1B300082B
:10006000B1B30008B1B30008B1B30008B1B30008E0
:10007000B1B30008B1B30008B1B30008B1B30008D0
:10008000B1B30008B1B30008B1B30008B1B30008C0
:10009000B1B30008B1B30008B1B30008B1B30008B0
:1000A000B1B30008B1B30008B1B30008B1B30008A0
:1000B000B1B30008B1B30008B1B30008B1B3000890
:1000C000B1B30008B1B30008B1B30008B1B3000880
:1000D000B1B30008B1B30008B1B30008B1B3000870
:1000E000B1B30008B1B30008B1B30008B1B3000860
:1000F000B1B30008B1B30008B1B30008B1B3000850
:10010000B1B30008B1B30008B1B30008B1B300083F
:10011000B1B30008B1B30008B1B30008B1B300082F
:10012000B1B30008B1B30008B1B30008B1B300081F
:10013000B1B30008B1B30008B1B30008B1B300080F
:10014000B1B30008B1B30008B1B30008D90E01087B
:10015000B1B30008B1B30008B1B30008B1B30008EF
:10016000B1B30008B1B30008B1B30008B1B30008DF
:10017000B1B30008B1B30008B1B30008000000003B
:10018000B1B30008B1B30008B1B30008B1B30008BF
:10019000B1B30008B1B30008B1B30008B1B30008AF
:1001A000B1B30008B1B30008B1B30008B1B300089F
:1001B000B1B30008000000000000000000000000D3
:1001C000000000000000000000000000000000002F
:1001D000000000000000000000000000000000001F
:1001E000000000000000000000000000000000000F
:1001F00000000000000000000000000000000000FF
:10020000000000000EB433B5059C05467246114B44
:100210009A4205D2002002B0BDE8304003B07047DA
:1002200072460D4B9A42F5D80121204602F0F0FFAC
:100230000028EFD00121204603F00CF80128E9D076
:10024000002306AA237021462846019201F06AFE87
:10025000E1E700BF00880008FF93000800000000ED
:10026000000000000000000000000000000000008E
:10027000000000000000000000000000000000007E
:10028000000000000000000000000000000000006E
:10029000000000000000000000000000000000005E
:1002A000000000000000000000000000000000004E
:1002B000000000000000000000000000000000003E
:1002C000000000000000000000000000000000002E
:1002D000000000000000000000000000000000001E
:1002E000000000000000000000000000000000000E
:1002F00000000000000000000000000000000000FE
:10030000921BBD51C84FB39546216CBA4A3DF89037
:1003100001C3D5159816A85BA7AD1F0C67D01DC0EB
:1003200000000000000000000000000000000000CD
:1003300000000000000000000000000000000000BD
:1003400000000000000000000000000000000000AD
:10035000000000000000000000000000000000009D
:10036000000000000000000000000000000000008D
:10037000000000000000000000000000000000007D
:10038000FFFFFFFFFFFFFFFFFFFFFFFFFFFFFFFF7D
:10039000FFFFFFFFFFFFFFFFFFFFFFFFFFFFFFFF6D
:1003A000FFFFFFFFFFFFFFFFFFFFFFFFFFFFFFFF5D
:1003B000FFFFFFFFFFFFFFFFFFFFFFFFFFFFFFFF4D
:1003C000FFFFFFFFFFFFFFFFFFFFFFFFFFFFFFFF3D
:1003D000FFFFFFFFFFFFFFFFFFFFFFFFFFFFFFFF2D
:1003E000FFFFFFFFFFFFFFFFFFFFFFFFFFFFFFFF1D
:1003F000FFFFFFFFFFFFFFFFFFFFFFFFFFFFFADE33
:100400003EB44DF22F61C7F27D014FF2FD72C6F28C
:10041000CA624AF29253C5F6AE6347F29554C2F6E9
:10042000E31480E81E003EBC70473EB446F6BC2193
:10043000C8F22F5140F24062C9F269224DF2646362
:10044000C0F6C42348F61354C7F2080480E81E001F
:1004500000F110004BF60F21C7F2A54149F6C0622A
:10046000CEF2133240F6EF13C7F2A57343F28B645A
:10047000CEF29C3480E81E0000F110004CF6B20170
:10048000CEF628514FF22132C3F214124EF6B823A1
:10049000C0F247234BF27414CAF6A37480E81E001E
:1004A00000F1100049F6D551C8F2245148F2640217
:1004B000C1F2164245F24933C0F65C2341F62B04E3
:1004C000CFF27C4480E81E003EBC70470000000074
:1004D000000000000000000000000000000000001C
:1004E000000000000000000000000000000000000C
:1004F00000000000000000000000000000000000FC
:1005000008B500F0DBF8012008BD00000000000085
:1005100000000000000000000000000000000000DB
:1005200000000000000000000000000000000000CB
:1005300000000000000000000000000000000000BB
:1005400000000000000000000000000000000000AB
:10055000000000000000000000000000000000009B
:10056000000000000000000000000000000000008B
:10057000000000000000000000000000000000007B
:10058000000000000000000000000000000000006B
:10059000000000000000000000000000000000005B
:1005A000000000000000000000000000000000004B
:1005B000000000000000000000000000000000003B
:1005C000000000000000000000000000000000002B
:1005D000000000000000000000000000000000001B
:1005E000000000000000000000000000000000000B
:1005F00000000000000000000000000000000000FB
:1006000010B5054C237833B9044B13B10448AFF34C
:1006100000800123237010BDE804002000000000CA
:100620001465000808B5034B1BB103490348AFF339
:10063000008008BD00000000EC04002014650008E4
:100640000D4B0E4A0E489B1A82B048BF03339B10D5
:100650000093002301930199009B994201D302B0BA
:1006600070470199019B50F8211042F82310019B1B
:1006700001330193EFE700BFE8040020800400206D
:10068000807100080B4B0C4A9B1A82B048BF0333A1
:100690009B100021009301910198009B984201D387
:1006A00002B07047019B42F82310019B0133019374
:1006B000F2E700BF781B0020E804002008B5FFF730
:1006C000E1FFBDE80840FFF7BBBF0FB404B07047BF
:1006D00000487047F06500087047000030B50F4CC7
:1006E0000023A142C0E90033C0E9023312D20C4B0F
:1006F00099420CD8C0E900125D1C1144A94205D9E9
:10070000DB431944521A84604260C16030BDDB4350
:1007100023441944C0E90212F8E700BF000000902A
:10072000FFFF11081FB504466846FFF7D7FF019A7F
:100730001AB10099204605F0C3FE039A62B10299EE
:10074000074B99420AD3C91A204602F098FDB0FA25
:1007500080F0400904B010BD0120FBE70020F9E75C
:10076000000000902DE9F047884614461146234AC0
:100770001F461379012B8446404616D1DFF898A016
:10078000A24517D81E4D1F4B2B441F4D5B1BA34288
:1007900010D9A4EB0A05166806F50076B54217D302
:1007A0001A49A1EB0A01891B21443A46BDE8F047EA
:1007B000FFF7B8BF164DA54204D8164BA34201D986
:1007C000651BE8E706238CF800300020BDE8F087C1
:1007D000EB19B342E9D9A6EB05094A462146404642
:1007E000FFF7A0FF0128F1D10849A1EB0A0A544400
:1007F000BB1B611B08EB09005F19D6E70805002049
:1008000001001208FFFF6F90000000900000120826
:1008100000008090000000910000020808B500F080
:100820001FFF48B9054B4FF4F872DA6000F02AFF59
:10083000B0FA80F0400908BD0020FCE7003C02400F
:100840002DE9F04F8BB00446904606A81A46FFF7F4
:1008500045FF079F002F54D0002C54D0B8F1000F53
:1008600053D000232370DDF81890FFF7D7FF01283D
:10087000054603D100F0F4FE78B12570099A002AEC
:1008800000F0A580012D40F0A2800023089923707C
:10089000514B99423BD2002599E0DFF844B106461E
:1008A00008EB060A5B463A465146484600F08EFC85
:1008B000031E01DB9A0705D003232370002500F0F7
:1008C000E1FEDBE72BB11E44FF1A9944002FE7D16C
:1008D000F5E72370DAF800204946022000F004FF13
:1008E0000028E9D1D9F80020DAF800309A4201D086
:1008F0000423E2E70A2309F104090436043F2370C4
:10090000E4E70125BAE72546B8E74546B6E7A1EB97
:100910000309511E4944090C0131B1F5806F009162
:10092000B9D84FEA194A0099514508D84946404676
:1009300002F0A7FC002848D003232370ABE70AF09D
:100940001F010191254901984FEA5A1B01EB8B01C8
:100950008968C14011F0010134D14FEA0A469E195D
:10096000029298D24FF00A03237004A802F08DFC83
:10097000194B029AD0B9049901F57F47FF37B7FBAD
:10098000F1F70121F01ACDE9022102F07CFCDDE94A
:100990000221114B18B14FF002012170002104987F
:1009A000013F0644EED100293FF475AF0B49019891
:1009B00001EB8B0B012101FA00F0DBF80810014379
:1009C000CBF808100AF1010AADE70A232370284684
:1009D0000BB0BDE8F08F00BF0000009008050020BC
:1009E000CB0600082DE9F14F804626481F4690F8B7
:1009F0008C30012B0C46924617D1DFF8A4B08B4502
:100A00001AD8214D214B2B44214D5B1B8B4213D90E
:100A1000A1EB0B05D0F8886006F50076B5421AD335
:100A20001C49A1EB0B01891B21443B46404601B008
:100A3000BDE8F04FFFF704BF174DA54204D8174B90
:100A4000A34201D9651BE5E7072388F800300020A1
:100A500001B0BDE8F08FEB19B342E6D9A6EB05096A
:100A60004B46524621464046FFF7EAFE0128EFD1A9
:100A70000849A1EB0B0B5C44BF1B611B0AEB09028D
:100A80002F44D2E70805002001001208FFFF6F90F5
:100A9000000000900000120800008090000000910B
:100AA00000000208C3B2532B05D1000AA0F1550380
:100AB000584258417047002070470000C1B10D4BAB
:100AC000984204D80C4A4B1E034493420ED20B4A60
:100AD0000B4B13440B4A9B1A984209D8013908441E
:100AE000094981428CBF00200120704701207047D6
:100AF00000207047FFFFFF90000080900000120868
:100B0000FFFF6F90000000900000020867B5B3F58A
:100B1000806F05460E4610461946019304D90923F5
:100B20002B70002003B060BD064A01AB00F08CF9C9
:100B30000128044AF3D1019B31462846FFF752FFB2
:100B4000F0E700BFA8050020F7B5B3F5806F0646B3
:100B50000D461C46019304D908233370002003B0CE
:100B6000F0BD074F3946FFF7FDFD0128F7D101AB76
:100B70002A462146384600F0B9F90128ECD1EEE7C3
:100B8000C009002008B5024600880749FFF78AFF20
:100B9000012806D1D36B0B60002B18BF03460B71E5
:100BA00008BD00200871FBE708050020024B002269
:100BB0001A601A71012070470805002008B5024626
:100BC00000880949FFF76EFF012808D1D36BC1F8EF
:100BD0008830002B18BF034681F88C3008BD0020F8
:100BE00081F88C00FAE700BF08050020034B0022C3
:100BF000C3F8882083F88C20012070470805002066
:100C000008B502460088FFF74DFF012809D11046BC
:100C100000F050F9431E58425841034B83F8BC087A
:100C200008BD0020F9E700BF08050020024B0022A4
:100C300083F8BC28012070470805002008B502464B
:100C40000088FFF72FFF012809D1104600F0E2F8D5
:100C5000431E58425841034B83F8A40408BD0020AA
:100C6000F9E700BF0805002008B502F006FB0120E7
:100C700008BD000070B58AB004460391FFF71EFF5F
:100C800000283BD0039A214606A8FFF727FD079DC1
:100C9000D5B90124099BA3B1012C12D104A802F0FB
:100CA000F4FA044640BBDDE90432B2F1806F03D8A8
:100CB000A3F580335C425C4111488022002105F09D
:100CC0000DFC20460AB070BD069EFFF7A7FD012867
:100CD0000446DFD100F0C4FC0028DAD1094B0093B0
:100CE000094A0A4B2946304600F014FAB0FA80F45B
:100CF000640900F0C7FCCDE70024DDE70446E0E727
:100D000010050020D1060008CB060008D90600080F
:100D100030B5134685B00D460A22194604468DF8B3
:100D20000F200193FFF7CAFE58B1084A019B92F8C1
:100D3000A424012A21462A460DF10F0003D1FFF712
:100D4000E5FE05B030BDFFF74DFEFAE708050020CF
:100D500007B513460A228DF80720084A92F8BC28E6
:100D6000012A0A4601460DF1070004D1FFF7ECFE07
:100D700003B05DF804FBFFF7F5FCF9E70805002078
:100D800030B50446A1B008B30088FFF78BFE0128F8
:100D90001CD1124B124D002283F8A4242946FFF7E0
:100DA00025FF80226846FFF7D3FF01284FF080021D
:100DB0000ED1BDF80000FFF775FE012808D1694685
:100DC000204605F06DFBB0FA80F0400921B030BD3F
:100DD00021462846FFF79CFFF8E700BF08050020E2
:100DE0008000809010B50A48FFF70AFB084A0023EC
:100DF00012F8014B4CB90133102BF9D1102200210C
:100E0000034805F06BFB204610BD0124F6E700BF48
:100E1000C80D002038B5044698B10A4D05F1100000
:100E2000FFF7EEFA002385F824301023221DE9187D
:100E300005F120006B642B6302F0D8FFB0FA80F05C
:100E4000400938BDC80D002007B558B16AB173B16B
:100E5000009313460A460146064802F0CAFFB0FA5C
:100E600080F0400903B05DF804FB1046FAE718462D
:100E7000F8E700BFE80D002010B50A4600B139B907
:100E80000A481022002105F029FB0024204610BD4D
:100E90000146074803F07AF81022B0FA80F40021E6
:100EA0000248640905F01AFBF0E700BFD80D0020E6
:100EB000E80D002038B50446A0B10B4D2846FFF7D9
:100EC0009FFA002385F83C31221D1023294605F5A1
:100ED0009C70C5F85C31C5F8483103F063F8B0FA8E
:100EE00080F0400938BD00BFC80D002007B579B1BA
:100EF00058B17AB183B1009313460A4601460748B8
:100F000003F053F8B0FA80F0400903B05DF804FB39
:100F10000120FAE71046F8E71846F6E7000F002030
:100F200010B50A4600B139B90A481022002105F06F
:100F3000D5FA0024204610BD0146074803F047F9C2
:100F40001022B0FA80F400210248640905F0C6FAC4
:100F5000F0E700BFC80D0020000F0020074808B5CB
:100F60002023C0F85832002380F8543200F5147062
:100F700003F0C0F9B0FA80F0400908BDC80D0020A8
:100F80000A4608B50146034803F077F9B0FA80F045
:100F9000400908BD181000200A4608B5014603485C
:100FA00003F035FAB0FA80F0400908BD18100020AF
:100FB0002DE9F041AEB00026CDE902660496044664
:100FC000002800F08F804948FFF72FFA8DF848601D
:100FD00011AE20253046139503F08CF958B9402204
:100FE0002146304603F049F928B904AA09A9304638
:100FF00003F00DFA08B100246FE04FF4006306938C
:101000003B4BDFF8F080119303F12002139203F1C0
:101010004002159205AF03F160021792394603F1C1
:1010200080023046A033CDF8148019921B9312959C
:101030001495189516951A951C9504F088FA0028B1
:10104000D9D131463A4603A804F0A4FB0146002852
:10105000D1D12B46A8F14002039804F023FCA8F15B
:101060002002012103982B4604F01CFC03983A4609
:10107000314605F0EDF80028BDD131463A4602A8C8
:1010800004F002FF01460028B5D104F140022B46CE
:10109000029804F047FF04F160022B4601210298F8
:1010A00004F040FF039B029A04990793009707AB53
:1010B00009A8089604F04DFF40F2EB34031B5C4294
:1010C000394602A85C4104F016FF394603A804F033
:1010D000CAFB3946304604F01FFB04484022002179
:1010E00005F0FCF920462EB0BDE8F0818C10002000
:1010F00030650008CC10002010B5054C02460023D6
:101100001846013354F823109142F9D910BD00BF9D
:10111000800400202DE9F04F89B0994600238846CD
:10112000074616460293FFF7E7FF054608F1FF3032
:101130003844FFF7E1FF0130441B36B1CDE90054DC
:101140001E48434642463946B04700230393DFF822
:1011500074A0DFF874B002230793022C234602A97F
:1011600028BF022303A8CDE90553E41A1D4400F06B
:1011700071FB071E18BF012780467F42B9F1000F9F
:1011800000D0C84776B1129BB3B1059B5AF8230033
:10119000129B98470246DDE9051300975AF8211083
:1011A0005846B04724B1B8F1000FD6D04FF0FF3702
:1011B000384609B0BDE8F08F014AECE7F265000857
:1011C0004466000880040020136600080020704771
:1011D00000B595B04FF480720C924FF080710522EB
:1011E00006920F9100220121CDE90312CDE90D22D3
:1011F000CDE911220B9213920092102202924FF429
:10120000800203460191059206A96A46044800F04F
:101210008EFC003818BF012015B05DF804FB00BF3C
:10122000CC18002000B595B04FF480730C930623C2
:1012300006931748002341F2883206A9CDE90D3301
:10124000CDE911330F930B93139300F02CFCE0B90D
:101250000223CDE9003301221023CDE902324FF4FD
:1012600080010523CDE905134FF0807304900F939F
:10127000074841F288336A4606A900F058FC003856
:1012800018BF012015B05DF804FB0120FAE700BF8C
:10129000CC18002008B5054800F099FC044A5369B1
:1012A00023F040635361002008BD00BFCC1800202C
:1012B000001000A0104B1149012210B5C3E9001223
:1012C0009A601022DA604FF0807292FAA2F2B2FABB
:1012D00082F2013A00241A614FF48062C3E90524C6
:1012E00041F288329A640222C3E9074483F841201C
:1012F000FFF7D0FF204610BDCC180020001000A042
:1013000030B58FB04FF480730693EB2300934FF406
:10131000406307934FF40053174C0393019100234C
:101320004FF04071CDE908310A21CDE90A23054685
:10133000059141F2883269462046CDE90C3300F030
:10134000B2FB10B101200FB030BD2268536823F406
:10135000E06343F480735360294641F288322046AB
:1013600000F0CEFC0028EDD12268536823F4E0633E
:1013700043F480635360E6E7CC1800202DE9F04188
:101380008EB04FF48073CDB206931223C5F58075ED
:1013900000934FF44063954207934FF4005328BFE6
:1013A00015468E1803934FF040720023CDE90832A2
:1013B000CDE90B33DFF85880059307460C460D93B3
:1013C00001940A95FFF72EFF00BB114841F28832C5
:1013D000694600F068FBC8B941F288323946404698
:1013E00000F033FC90B941F28830FFF7F1FE68B9A4
:1013F0002C4404F58073B3422F448CBF351B4FF44B
:101400008075A642DCD80EB0BDE8F0810120FAE775
:10141000CC18002000B58FB04FF480730693D8230A
:1014200000934FF4806307934FF40053039300231A
:10143000CDE90833CDE90B33019005930D93FFF708
:10144000F1FE18B101200FB05DF804FB074841F22E
:101450008832694600F027FB0028F3D140F6B83007
:10146000FFF7B6FE003818BF0120ECE7CC180020CB
:101470004FF480334FF08072C0E900234FF4807244
:10148000C0E90222036100207047704710B504468E
:1014900060B1437903F0FF0213B90271FFF7F5FF62
:1014A0000223637101236371002010BD0120FCE75A
:1014B000034602205871186810B5846844F001048E
:1014C000846001EB8202914203D1012200685A71CB
:1014D00010BD51F8044B0460F5E770B50446866D05
:1014E00001F04EFE94F83530022B054606D08023DD
:1014F0006365002384F83430012070BD23681A68C6
:1015000022F016021A605A6922F080025A61226C97
:101510000AB9A26C1AB11A6822F008021A601A6895
:1015200022F001021A6023681B6813F001030AD13C
:10153000E16D3F228A40B260012284F8343084F8A1
:1015400035201846D9E701F01BFE401B0528EAD9D3
:10155000202363650320002384F8343084F83500A9
:10156000CBE70000084910B50C6924F440740C6105
:101570000C6944F440740C610C6944F001040C6182
:101580000260436010BD00BF003C0240074B1A6977
:1015900022F440721A611A6942F400721A611A69DF
:1015A00042F001021A610160704700BF003C024036
:1015B000074B1A6922F440721A611A6942F4807268
:1015C0001A611A6942F001021A610180704700BF76
:1015D000003C0240204BDA68D00606D51F49CA6994
:1015E00042F01002CA611022DA60DA68910606D56C
:1015F0001A49CA6942F00802CA612022DA60164B11
:10160000DA68520606D51549CA6942F00402CA6171
:101610004022DA60DA68100606D51049CA6942F03D
:101620000202CA618022DA600B4BDA68D10507D565
:101630000A49CA6942F00102CA614FF48072DA6055
:10164000DA68920706D50549CA6942F02002CA61E4
:101650000222DA60704700BF003C024018190020E7
:10166000064B1A69002ABFBF054A5A6002F1883248
:101670005A60BABF1869C00F00207047003C024092
:1016800023016745034A136943F0004313610020B7
:10169000704700BF003C0240114B70B50022044669
:1016A000DA6101F06DFD0F4D0646EB68DA030CD4EC
:1016B000EB68DB0744BF0123EB60E86810F4F970C6
:1016C00007D0FFF787FF012003E0611CEDD00CB9C4
:1016D000032070BD01F054FD801BA042E5D9F7E75F
:1016E00018190020003C0240F7B5204E0193144623
:1016F000327E012A07460D4635D001224CF2503089
:101700003276FFF7C9FFB8B9019BCFB9184B1A69F8
:1017100022F440721A611A691A611A69E4B242F03D
:1017200001021A612C704CF25030FFF7B5FF104ADD
:10173000136923F0010313610023337603B0F0BD76
:10174000012F04D1A1B22846FFF732FFEBE7022FA9
:1017500004D121462846FFF719FFE4E72246284630
:10176000FFF700FFDFE70220E8E700BF18190020BD
:10177000003C02400C4B1A6922F440721A610329A2
:101780001A690BD142F4004242F004021A611A694C
:1017900042EA002040F48030186170470129F3D0FC
:1017A00042F40042F2E700BF003C024039B1012997
:1017B0001FD002290CBF4FF400714FF440710E4B43
:1017C0001A6922F440721A611A69114319611A697F
:1017D00022F0F8021A611A690B2888BF043042EA25
:1017E000C00040F0020018611A6942F480321A61A8
:1017F00070474FF48071E2E7003C0240144B1A68D6
:1018000091050FD51A6822F400721A601A6842F422
:1018100000621A601A6822F400621A601A6842F4C0
:1018200000721A600A4B1A6852050FD51A6822F422
:1018300080621A601A6842F480521A601A6822F4B0
:1018400080521A601A6842F480621A60704700BFC2
:10185000003C02402DE9F843DFF89C8098F81830EE
:10186000012B05460F4642D001234CF2503088F838
:101870001830FFF711FF0446B8B94FF0FF333B6053
:101880002B68012B17D16968287CFFF773FF4CF296
:101890005030FFF701FF174A136923F4004323F088
:1018A000040304461361FFF7A9FF002388F81830EA
:1018B0002046BDE8F883AE68DFF83890D5E902230A
:1018C0001344B342EFD9297C3046FFF76FFF4CF247
:1018D0005030FFF7E1FED9F8103023F0FA03C9F8D1
:1018E000103010B13E600446DDE70136E6E7022421
:1018F000DEE700BF003C0240181900202DE9F04748
:101900004E6A3EB1B2F1406F1FBF8B6A046803F1AB
:10191000FF332361D1F81890D1E90775B9F1000FB1
:101920004FD04B690068D1F800A0D1F834E046EA06
:101930000909D1E90B484FEA834C49EA020935B35A
:101940008B680E69C36149EA05059FB14AEA07033E
:10195000234343EA0803CC6843EA0E03334323439B
:1019600043EA0C032B43B2F1406F43610DD04B6847
:1019700083610AE04AEA040343EA080343EA0E03E8
:10198000334343EA0C032B434361BDE8F0876FB157
:101990004AEA0703234343EA0803CC6843EA0E03F9
:1019A000234343EA0C0343EA0903DCE74AEA04035E
:1019B00043EA080343EA0E0343EA0C0343EA09033C
:1019C000E2E745B304688B68E36146EA05034E69C4
:1019D0000869D1F834C043EA0205B604D1E90B83A3
:1019E00087B1384340EA08000343C86843EA0C0360
:1019F000034333432B43B2F1406F6361C5D04B685F
:101A0000A361C2E740EA0800034343EA0C033343FF
:101A10002B436361B9E77FB1CC6A006846EA0703EC
:101A2000134323430C6B23434C6B2343CC68234366
:101A30004C6943EA844396E7002EA6D0CB6A00683F
:101A400033430E6B1A4332434E6B4B69324342EAC7
:101A50008342426199E72DE9F041DDF818800446A0
:101A60000E4615461F4622689368334214BF012371
:101A70000023AB4201D100200DE0B8F1FF3FF3D0CD
:101A8000B8F1000F09D1042384F84130636C43F0AE
:101A9000010363640120BDE8F08101F071FBC01B0C
:101AA0004045E0D9EFE72DE9F043044685B01746FD
:101AB000894601F065FB94F84020012A034634D0A2
:101AC000012284F8402094F84120012A5FFA82F82C
:101AD0004FF0020627D100226264039084F841602F
:101AE000009720212046FFF7B6FF0546A0B9024621
:101AF00049462046FFF702FFD9F82420039B4AB944
:101B00000097424631462046FFF7A5FF054618B923
:101B10002368DE6084F84180002384F84030284642
:101B200005B0BDE8F0833546F6E70225F7E72DE975
:101B3000FF41044615461E46884601F021FB94F8F5
:101B40004020012A034640D0012284F8402094F826
:101B50004120012AD7B236D142210022626403908B
:101B600084F84110009620212046FFF774FF20BB27
:101B700021682A688A626A684A62AA68CA620A6830
:101B8000286922F44002024342F480020A60EA68B3
:101B9000C8F8282041464FF000622046FFF7AEFE0D
:101BA000039B00963A4608212046FFF754FF20B9D0
:101BB00023680822DA6084F84170002384F84030FA
:101BC00004B0BDE8F0810220F7E70220F8E71FB576
:101BD000044601F0D5FA94F84120034612F00200C1
:101BE00031D0002284F840202268116849070DD5C1
:101BF0001168E06B039321F004011160FFF76DFCA5
:101C0000039B18B1626C42F0040262642168039382
:101C10000A6842F002020A60A26C009202210122CC
:101C20002046FFF718FF039B68B922680221D160A4
:101C3000A26C0092202102462046FFF70CFF10B94B
:101C4000012384F8413004B010BDF0B5044685B0DE
:101C500016460F4601F094FA94F840202568012AB0
:101C600003464BD0012284F8402094F84120012AF9
:101C7000D0B241D100226264002F38D0122284F801
:101C800041202A690132E2622A6967620132A26256
:101C90006A6922F040626A61E26AA2B90096012292
:101CA00002212046FFF7D7FE28B923680222DA6016
:101CB0002046FFF78CFF012384F84130002384F88D
:101CC000403005B0F0BD0096012204212046039368
:101CD000FFF7C1FE0028EED1626A039B511C6162CE
:101CE000127885F82020E26A013AE262D4E7636C58
:101CF00043F008036364E1E70220DFE70220E0E746
:101D0000F0B5044685B016460F4601F039FA25684D
:101D1000D5F818C094F84020012A03464FD001227C
:101D200084F8402094F84120012AD0B245D1002205
:101D30006264002F3CD0222284F841202A690132BB
:101D4000A2632A69276301326263696921F04061F5
:101D500041F080616961C5F818C0A26BA2B9009614
:101D6000012202212046FFF776FE28B923680222CD
:101D7000DA602046FFF72BFF012384F8413000236F
:101D800084F8403005B0F0BD0096012206212046BF
:101D90000393FFF760FE0028EED1226B039B511CDA
:101DA000216395F820101170A26B013AA263D4E769
:101DB000636C43F008036364E1E70220DFE702207D
:101DC000E0E710B50321044601F01AFAE3681B1A94
:101DD0005842584110BD0000F8B504460D46FFF7C3
:101DE000F0FF30B9104B04221A700F4B1B782B7088
:101DF000F8BD0E4E234604F11007186859683246A4
:101E000003C20833BB421646F7D12346084C186874
:101E10005968224603C20833BB421446F7D1024B2D
:101E200001201870E1E700BF38190020781B00205E
:101E3000881B00202DE9F041154D002680462E70AC
:101E400001F0CCF90128044606D02B7888F8003040
:101E500034462046BDE8F0810E4E3046FFF7B1FF14
:101E600098B906F110073846FFF7ABFF30B90423E5
:101E70002B7004462B7888F80030EAE797E80F00CB
:101E800086E80F0002232B70F4E72C70F2E700BF06
:101E900038190020781B00207FB50A4B187868B1EC
:101EA0000023032102A8CDE90233049301F0A8F92D
:101EB0000DF10701059002A8FFF78EFF07B05DF84E
:101EC00004FB00BF3819002070B50D46044650B120
:101ED000D9B10F48FFF775FF30B90E4B04221A70C5
:101EE0000C4B1B782B7070BD094E234606F1100475
:101EF000324603CAA24218605960164603F108032D
:101F0000F6D1044B01201870EAE70846EBE700BF62
:101F1000781B00203819002010B109B1FFF75CBF11
:101F20000020704734282DE9FF410D4642D99828FA
:101F300000F2B0807F2805D82C78002C40F04A832E
:101F400001235DE280381828F6D801A353F820F069
:101F500085230008C5230008391F0008391F000821
:101F6000391F0008391F0008391F0008391F0008F1
:101F7000391F0008391F0008391F0008391F0008E1
:101F8000391F0008391F0008391F0008391F0008D1
:101F90005D2400083124000805240008712400088D
:101FA0008324000893240008A5240008B524000811
:101FB000C72400083428BFD801A353F820F000BF7D
:101FC000AB2000080B2100083921000893210008EC
:101FD000D1210008FD2100085722000895220008A1
:101FE000C12200081B230008391F0008391F000800
:101FF000391F0008391F0008391F0008391F000861
:1020000059230008391F0008391F0008391F00082C
:10201000391F0008391F0008391F0008391F000840
:10202000391F0008391F0008391F0008391F000830
:10203000391F0008391F0008391F0008391F000820
:10204000EB240008112500083B250008391F000873
:10205000391F0008391F0008391F0008391F000800
:10206000391F0008391F0008391F0008391F0008F0
:10207000391F0008391F0008391F0008391F0008E0
:10208000652500088F250008BD250008C525000826
:10209000CD250008B0F5807F00F01D8240F20113CD
:1020A00098427FF449AF012429E0C54B1B78012BEE
:1020B0003FF442AF022314680B7001F081F800284E
:1020C0003FF43AAF204601F055F8FEF7CDFD0DF193
:1020D0000F00FFF7AFFE0128044614D0FFF7DCFE27
:1020E000012804460CBF042303232B70FEF77AFE5D
:1020F000012801D007232B70002C3FF41DAF204690
:1021000004B0BDE8F0810023EFE7146801F058F84F
:1021100000283FF411AF8021204601F089F8002803
:102120003FF40AAFA64B1B78012B3FF405AF2046C6
:10213000FEF770FE0446DFE75468002C7FF7FCAE24
:10214000166821463046D2E9027801F071F800287D
:102150003FF4F2AE0421404601F06AF800283FF453
:10216000EBAE2146384601F063F800283FF4E4AEB8
:1021700001F026F800283FF4DFAE914B1B78012BCD
:102180003FF4DAAE43463A4621463046FEF75CFE5F
:10219000D0E7D2E900460421304601F049F8002892
:1021A0003FF4CAAE1021204601F042F800283FF467
:1021B000C3AE01F005F800283FF4BEAE804B1B789B
:1021C000012B3FF4B9AE31462046FEF755FEB1E78C
:1021D000146800F0F5FF00283FF4AEAE80212046E1
:1021E00001F026F800283FF4A7AE754B1B78012BB1
:1021F0003FF4A2AE2046FEF75DFE9BE7D2E9006405
:10220000D2E9027800F0DCFF00283FF495AE002C04
:102210007FF792AE2146304601F00AF800283FF4DD
:102220008BAE0421404601F003F800283FF484AE51
:102230002146384600F0FCFF00283FF47DAE604B9D
:102240001B78012B3FF478AE43463A462146304690
:10225000FEF74CFE6EE7D2E9004600F0B1FF002821
:102260003FF46AAE0421304600F0E2FF00283FF45C
:1022700063AE1021204600F0DBFF00283FF45CAE87
:102280004F4B1B78012B3FF457AE31462046FEF7EB
:1022900047FE4FE7146800F093FF00283FF44CAE70
:1022A0008021204600F0C4FF00283FF445AE444B97
:1022B0001B78012B3FF440AE2046FEF74FFE39E776
:1022C000D2E90064D2E9027800F07AFF00283FF4F6
:1022D00033AE002C7FF730AE2146304600F0A8FF29
:1022E00000283FF429AE0421404600F0A1FF002859
:1022F0003FF422AE2146384600F09AFF00283FF412
:102300001BAE2F4B1B78012B3FF416AE43463A46CB
:1023100021463046FEF734FE0CE7D2E9004600F0D5
:102320004FFF00283FF408AE0421304600F080FF44
:1023300000283FF401AE1021204600F079FF00286C
:102340003FF4FAAD1E4B1B78012B3FF4F5AD31463F
:102350002046FEF721FEEDE6146800F031FF00286C
:102360003FF4EAAD8021204600F062FF00283FF4F0
:10237000E3AD134B1B78012B3FF4DEAD2046FEF797
:1023800017FED7E60E4B1B78012B3FF4D5AD146832
:1023900000F016FF00283FF4CFAD1021204600F0DA
:1023A00047FF00283FF4C8AD0DF10F012046FFF7AD
:1023B0008BFD0128044622D003232B70BCE500BF0F
:1023C00039190020844B1B78012B3FF4B5AD1468FC
:1023D00000F0F6FE00283FF4AFAD1021204600F0DB
:1023E00027FF00283FF4A8AD0321204600F008FF96
:1023F0000DF10F01E0602046FFF78EFDD9E70023C5
:102400002B707CE6744B1B78012B3FF495ADD2E921
:102410000046926801921146204600F009FF019A99
:1024200000283FF489AD31462046FEF791FC81E655
:10243000694B1B78012B3FF47FADD2E900649268B1
:1024400001921146204600F0F3FE019A00283FF465
:1024500073AD21463046FEF75BFC6BE65E4B1B78A6
:10246000012B3FF469ADD2E90001FEF703FC61E600
:10247000594B1B78012B3FF45FAD1068FEF7C0FB92
:1024800058E6554B1B78012B3FF456ADFEF7CEFBBB
:1024900050E6514B1B78012B3FF44EAD1068FEF710
:1024A00071FB47E64C4B1B78012B3FF445ADFEF723
:1024B0007DFB3FE6484B1B78012B3FF43DAD106898
:1024C000FEF77CFB36E6444B1B78012B3FF434AD22
:1024D000FEF78CFB2EE6404C2378012B3FF42CAD0D
:1024E00000F0CAFE01202070DDE514682821204696
:1024F00000F08EFE00283FF41FAD2821204600F09A
:10250000A9FE01283FF418AD204600F0F1FD11E6C8
:10251000D2E900412046019100F07AFE019900289D
:102520003FF40AAD204600F095FE01283FF404ADCB
:102530000199204600F0FEFDFCE5D2E9004120466D
:10254000019100F065FE019900283FF4F5AC2046AA
:1025500000F080FE01283FF4EFAC0199204600F026
:10256000F7FDE7E5D2E900640821204600F050FEBF
:1025700000283FF4E1AC0821204600F06BFE012862
:102580003FF4DAAC2146304600F0C2FBD2E5D2E996
:10259000007496682046314600F03AFE00283FF469
:1025A000CBAC3146204600F055FE01283FF4C4ACC8
:1025B00032462146384600F0DFFBBBE5106800F0EC
:1025C0004FFDB7E5106800F079FDB3E5106800F045
:1025D00063FDAFE5002492E539190020074B002286
:1025E000C3E90122C3E906221A80DA6083F82320B6
:1025F0001A84A3F8242183F8262170473C1900206F
:1026000012B9016000687047022A04BF8368036042
:10261000F8E70068704700000A4B1A78032A0AD8C6
:102620005AB10122C270DA6942609A69826093F8F5
:10263000223083707047042A01D00022F2E7022280
:10264000F0E700BF3C19002008B5044B83F82210C6
:1026500018B1FFF7E1FF0123437008BD3C190020CA
:1026600008B50B4B1A78023A022A0CD8D968586878
:10267000802988BF8021FEF7FDFA012803D0FFF7EB
:10268000ADFF002008BDFFF7A9FF0120FAE700BF5A
:102690003C19002038B5D3E9003502FB01F422468D
:1026A0000146E818FEF734FB012805BF044A5369C8
:1026B0004FF0FF341B1908BF5361204638BD00BFDF
:1026C0003C19002010B502FB01F4D3E90031224689
:1026D0001944FEF73DFB01280CBF20464FF0FF30A8
:1026E00010BDF8B51C460546836B0E461746D4E967
:1026F00004010022984723696D6B3A460121304658
:10270000A847636918446061F8BD2DE9F041556937
:10271000002D07460E46144629DB53689268B5FB28
:10272000F3F890451AD0511C10D053436361E2680E
:10273000216823463046FFF7D4FF326C32B1642360
:10274000706C6B4393FBF0F0C0B2904762682068F6
:10275000002103F0C3FE6368C4E902836268B5FB2D
:10276000F2F302FB135322680135D7546561BDE8CB
:10277000F0810000044B10B5012483F8224010B111
:10278000FFF74AFF047010BD3C1900204FF0FF33E3
:1027900083600362826200230122C0E91733C0E92B
:1027A00014334361C3620161A0F85830036482644A
:1027B000A0F84C3018467047A239042916D8DFE833
:1027C00001F0120F0A0803000B2380F84C300020A0
:1027D00070470723F9E740F60203A0F84C30F6E70C
:1027E00040F60213F9E740F60223F6E74FF0FF3018
:1027F0007047026A73B5C56AC169B5FBF1F69642C6
:10280000044600F1180301FB165509D0561C07D0E9
:102810005143C162426A81690193FFF762FF019BE4
:10282000D4E907124A43E262A1692A462046FFF72B
:1028300058FF236C0BB1642098470023A36402B0B7
:1028400070BD2DE9F04F836C85B0012B04460E4618
:102850000392029300F02E814FF0FF35284605B019
:10286000BDE8F08F0C2B19D8DFE813F00D00240021
:102870002D003E0056006C007400CC00130189004E
:102880001E01CC00E400725DA72A05F10103E3D12B
:10289000029A84F84C201D4694F84C30039AAA42C0
:1028A000E0DC092B02D1236D002B68DCE36D2B44A7
:1028B000E365D3E7715D2046FFF77EFF6A1C051EC6
:1028C000CCDB1546E8E7735DFB2B05F1010207D869
:1028D0000133DBB2236594F84D3084F84C30F0E7D7
:1028E000C4E914330323F8E7626D735DFC2A05F134
:1028F00001010BD1226DC4F85480013313442365C8
:1029000094F84D3084F84C300D46C5E784F85830C3
:10291000042384F84C30F7E7616D735DFD2905F100
:1029200001020BD194F85810C4F8548003EB012332
:10293000236594F84D3084F84C30C2E784F8593060
:102940000523CAE7735D84F85A30062384F84C30B7
:102950000135A1E794F8593094F858201B0403EB93
:10296000026394F85A2003EB0223725DC4F854808A
:102970001344236594F84D3084F84C30E8E7236D18
:10298000002B0CDD63690193002B0FDA4FF0FF3051
:102990004A462146FFF7B9FE236D013B2365236DAF
:1029A000002B7FF479AFA4F84C3075E7019BD4F885
:1029B00004A0B3FBFAFBA3689B4513D023682069EE
:1029C0000BFB0AF11F466161A36B00229847236944
:1029D00038465246276B0121B8476369C4E902B003
:1029E0000344636162680199019BB3FBF2F302FB4C
:1029F0001313E2689342C9D22268D05C0B460133BC
:102A00006361C5E7705DA72805F101070CD04A4650
:102A10002146FFF77AFE94F84C300B2B02D1636904
:102A2000013363613D4637E784F84D300C2384F869
:102A30004C30F7E76F1C755DA72D0ED14A46214635
:102A40002846FFF762FE94F84D200B2A02D16369F5
:102A50000133636184F84C20E4E7A5F1A203042B61
:102A600006D829462046FFF7A7FE051EDADAF5E666
:102A70004A462146A720FFF748FE4A4621462846F7
:102A8000FFF743FE94F84D200B2AE3D1636902332C
:102A9000DFE7226D002A04DD636913446361C4F833
:102AA0005080A4F84C80F7E6226D002AF9DD6369B6
:102AB0009B1AF3E7002500F11809A846ECE6000090
:102AC0002DE9F04F8C4C94F826810223A5B00746DF
:102AD0000D4616462370B8F1000F40F09880E26969
:102AE000A3689A4207D29B1A8B4228BF0B461A440E
:102AF000E261CD1A1F44002D4BD0E06963682A467D
:102B000039461844FEF704F9012840F089806369CA
:102B1000E1692B4429446361E1613AE0B4F824019E
:102B200008B90F2D2CD8C0F11002AA4228BF2A469E
:102B300007EB08014844019203F0C2FC019AB4F883
:102B4000243113449BB2102BA4F82431A5EB0205C9
:102B5000904413D10023A4F82431484603AB04AABF
:102B60001021CDF80CA0FEF7C1F901283BD01521AA
:102B70003046FFF769FD4FF0000855E00F2D06D9EC
:102B800007EB0800103D08F110080028E6D1002DE1
:102B9000C4D1D4E906329A42C0F0AB8094F8263111
:102BA00013B15648FFF725FE03236168544823708C
:102BB0000027802284F82370FEF7CAF8012840F02D
:102BC00082804F48FEF7CAF901287CD1FDF7EEFF5D
:102BD0004B48FEF715F8012805465DD1DFF824A122
:102BE0004FF0800941E0D4E906329A1A102AA8BFB2
:102BF000102204A958460192FFF723FE0028019AEB
:102C000001DA1421B4E7E3691A44E261BFE74FF047
:102C100000084FF0100A04F5A07B04F12409B6E780
:102C20000B213046FFF710FD404625B0BDE8F08F80
:102C3000D4E90112A3EB0708B8F1800F28BF4FF0C9
:102C4000800811443944424604A8CDF80C90FEF7A0
:102C50007FF80128054606D103AB5246414604A839
:102C6000FEF78EF9054665B380372369BB42DFD88E
:102C7000012D11D180232348039303A9FEF78CF97A
:102C80000128054608D11F492022A1F1640003F064
:102C900007FC08B984F82350FDF7C8FF012D12D1B5
:102CA00094F82380B8F1000F21D0228C4FF6FF73E7
:102CB0009A4219D01248FEF763F8012805D0162170
:102CC00056E7FDF7B3FF0F2152E7238C63B9BFF33B
:102CD0004F8F0D490D4BCA6802F4E0621343CB607D
:102CE000BFF34F8F00BFFDE7042323709CE70E2145
:102CF0003EE74FF0010897E73C1900207C1A0020BE
:102D000060190020E019002000ED00E00400FA0541
:102D100070B505460C4631B902212846FFF794FCF0
:102D20000024204670BD0B78012B01D90221F5E764
:102D30004B88023B9BB24FF6FC729342ECD9FFF7F3
:102D40008FFC0C4B0022012683F822201E70227873
:102D50005A7062881A84FDF787FF044620B917214C
:102D60002846FFF771FCDCE72846FFF703FD3446F1
:102D7000D7E700BF3C1900202DE9F74F054617465D
:102D8000009121B90221FFF75FFC002404E03AB969
:102D90002846FFF7EFFC0124204603B0BDE8F08F82
:102DA000DFF8B88298F80020012A04D0022A00F047
:102DB0002F8111214BE0D8F81CB0BBF1000F01D0DE
:102DC0001221E0E7B8F8240108B9FF2F20D8C0F598
:102DD000807ABA45934C009928BFBA46524620449F
:102DE00003F06EFBB8F82421A7EB0A035244A8F8BD
:102DF00024210193B8F82421B2F5807F0CD0002A59
:102E0000C6D1009E00F0DCF940B9FFF729FCBCE711
:102E1000CDF804B0DA46EDE7824EF3E73046FEF730
:102E2000C7F8012811D1002288F826217288D3061C
:102E300010D4B1467C4C2046FEF7BAF801280ED0DB
:102E400098F8262182B1042100E003212846FFF7EB
:102E5000FBFBDAE788F8260106F18009EAE798F833
:102E60002621D4F814B0E2B9D9F814205A451BD35E
:102E7000D2B1012288F801204FF400726B49C8F8E2
:102E800008206B4AC8F80410A2EB010BA2F50072EF
:102E9000521AD9F81810C8F80CB091421DD9072160
:102EA000D4E772695A4501D00C21CFE704F11C0028
:102EB000202206F11C0103F0F3FA044608B10621B2
:102EC000C4E74846FEF774F80128CDD0052128460E
:102ED000FFF7BAFBFFF7C4FB5EE700F071F908B932
:102EE0001021B3E798F826215AB13046FDF7E2FFEA
:102EF0000028F5D04C48FDF745FE044608B91821D6
:102F0000E5E7D8F80C10D8F80400FDF7B3FE012867
:102F100001D00A219AE7D8F8040080224946FDF73B
:102F2000F7FE012801D00B2190E798F8261100291F
:102F300053D04846FDF782FE044608B91921C6E77A
:102F40005C2200213B4803F0C9FA3B483B4BC8F8E0
:102F5000400140228118C8E95612C8F84421384A75
:102F6000C8F87021374A3049C8F87421364AC8F881
:102F70007821364AC8F87C2101F50072C8F82C2166
:102F8000334AC8F83CB11A44521A3249521AC8F8A6
:102F90003021314A0024C8E94D42A0F17C01A0F162
:102FA00070026438C8F82841FFF7F0FBB269C8E93D
:102FB0000624D9F81820C8E90424019B0022934272
:102FC000A8F8242117DD00982A4619465044FFF737
:102FD00077FD00287FF4DCAE17E7B26902F50072D6
:102FE000C8F818204FF48072C8F81C20D9F81820AF
:102FF000C8E90421E1E7B7F5807F05D92A46A7F59E
:10300000807106F58070E2E7022288F80020BFE6B2
:1030100000F0D6F800283FF4F8AE00982A4639466A
:10302000D5E700BF60190020000002080000809072
:1030300000000091841A0020E01A0020010012080C
:10304000C52600089526000801260008132600085A
:10305000FFFF6F9000000090000280903C1900205C
:1030600038B50546FDF7E2FD09490A488022FDF71B
:103070006FFE0128044603D10648FDF781FE044691
:103080001CB916212846FFF7DFFA204638BD00BFDD
:10309000000080906019002010B5044618B1FFF7B9
:1030A000BBFA01238370FFF7DBFA18B924B10A23B6
:1030B000A37010BD0120FCE72046FAE708B50146E1
:1030C00038B1FFF7A9FA094A92F8233013B1012069
:1030D000087008BD92F82200012802D9012048702A
:1030E000F7E701D18B70F4E70120F2E73C190020EB
:1030F00070B50446A0B0C8B10D4980226846FDF7FE
:1031000027FE034678B1059A2260069A626007ADF1
:1031100008340FAE2A4603CAB242206061601546E9
:1031200004F10804F6D1184620B070BD0346FAE752
:103130000000020808B50A4630B17E2904D80349C8
:1031400003F0BEF9012008BD0020FCE78003000861
:1031500038B5054640B141B14C1E2246044903F042
:10316000C5F900232B55012038BD0846FCE700BFF8
:1031700037660008014B1860704700BF601B0020D5
:103180000E4A4FF0E02010B5D2E9013481698B423C
:1031900038BF4069234438BF1B185B1A106893601E
:1031A0004FF47A74B0FBF4F0984204D2D368002054
:1031B00001339060D360D068516010BD601B002067
:1031C000044808B5044B0360FEF760F9B0FA80F0DC
:1031D000400908BD701B00200030024082B000236F
:1031E0000193064B1A6B42F480521A631B6B03F473
:1031F00080530193019B02B0FFF7E2BF0038024009
:103200000A4601460148FEF753B900BF701B002073
:1032100051B1B0F1005F07D301390844034981423D
:1032200034BF00200120704700207047FFFF0420BA
:1032300051B1064B01390144994205D804498842ED
:1032400034BF00200120704700207047FFFF04209A
:103250000027002051B1064B01390144994205D89D
:103260000449884234BF0020012070470020704785
:10327000FF260020000000207047FEF71BB8FEF775
:103280003FB8FEF77BB8FEF7C5B810B5044686B068
:1032900040B101A8FEF7ECF8029B2360019B63603C
:1032A00006B010BD0120FBE770B5921000239342D9
:1032B00005DA50F8234041F823400133F7E7062AA6
:1032C0002ED0082A5CD0042A40F0A3800022514866
:1032D000CB6815580868DCB245404F48065D1C0EA7
:1032E0000432045D44EA0624C3F30746282A865DB7
:1032F00044EA0664C3F30726805D44EA004485EA95
:1033000004004C68086180EA04008C68486180EA27
:10331000040080EA03038861CB617AD01031D6E7DC
:1033200000223C4B4869013203EB8203C5B253F8DB
:10333000044C0B685C40384B5E5D050E5D5D45EAF4
:103340000625C0F30746C0F307209E5D185C45EADA
:10335000066545EA004084EA00038B6101200B46C4
:103360005D689C69032885EA0404DC6101D1072AB1
:103370004FDC0130062803F10403F1D11831D0E706
:103380000024244BCA69E5580B68D0B25D40224B3B
:103390001E5C100E0434185C40EA0620C2F3074697
:1033A0001C2C9E5D40EA0660C2F307269E5D40EA43
:1033B000064085EA00004D68086280EA05008D68D5
:1033C000486280EA0500CD68886280EA0500C8622C
:1033D0001FD0050E20315E5DC5B25D5D45EA066514
:1033E000C0F30746C0F307209E5D1B5C51F8100C2C
:1033F00045EA064545EA0323434051F80C0C0B61AE
:10340000434051F8080C4B6143405A408B61CA61FC
:10341000B7E770BD48660008707000082DE9F04FEE
:10342000C5B0002303930B681BBA04934B681BBA07
:1034300005938B681BBA0693CB681BBA07930B697D
:103440001BBA08934B691BBA09938B691BBA0A9381
:10345000CB691BBA0B930B6A1BBA0C934B6A1BBA52
:103460000D938B6A1BBA0E93CB6A1BBA0F930B6B2F
:103470001BBA10934B6B1BBA11938B6B1BBA129335
:10348000CB6B1BBA139342AE12AB196853F8385C7E
:1034900053F8144C53F8342C2C448D0A85EA7145AA
:1034A00085EAF141D70853F8105C214487EAF21706
:1034B0005C6887EAB24739442A44A50A996085EADC
:1034C000744553F8301C85EAF4442244CC0884EA5D
:1034D000F11484EAB1411144D9600833B342D4D124
:1034E000664E0368026944684169D0F808A085699E
:1034F000D0F80C80D0F81C9001273760366803960E
:103500005F4E37680397039F013727D1039F3760CA
:1035100036680396039E002E38D00368594E594FE3
:10352000C1698569C268D0F81490D0F808B0D0F8A5
:1035300004C05E40036906605F4082EA050487EAD2
:1035400001038BEA090A076187EA0C0872408BEADB
:1035500001018CEA050586EA090917E0494F494E41
:103560005F40564088EA050C8AEA010B89EA0A0A9C
:1035700086EA090387EA0802654087EA010986EAC4
:103580000408514607600661DA4664464FF0000CB5
:103590000CF11007DFF8F0B06E46BE595CF80B7006
:1035A00037444FEAB21686EAF22686EA7266374454
:1035B00085EA010616406E403E44B14444EA0306E3
:1035C00006EA0A0604EA03073E434FEAB30787EA1E
:1035D000733787EAB3573E4404AFE3446744DBF8EC
:1035E00004B07F68C844BB4481EA020708EA0707C1
:1035F0005D444F403D444FEAB8174E4487EAF827F0
:1036000087EA786746EA030B3D440BEA040B06EAB7
:1036100003074BEA070B4FEAB60787EA763787EAD4
:10362000B6570CF1080CBB44BCF5807FAA44AB44F0
:1036300008D08946154641465246A0469A46344629
:103640005B46A5E7456807682E44856846602B44BD
:103650008360C3681C440369C460534403614369C5
:103660004344436183691A44C36982615F441944D6
:103670000760C16145B0BDE8F08F00BF083002406F
:1036800000300240F0F0A5A5706A000830B50023B4
:103690009510AB4206DA50F8234024BA41F8234093
:1036A0000133F6E70846BDE83040FFF7FDBD0000F6
:1036B0002DE9F74FDB1003F1030900230193A54B1C
:1036C00001241C601B680193A34B1C680194019C9E
:1036D00001348B4617D1019C1C601B680193019E2D
:1036E000146803685768456856B984EA030C836810
:1036F0009468C0685C40D3686F4083EA00080BE0C0
:1037000087EA050C05E05468436884EA030C1368F3
:1037100004685C40A0462746904B4FEA1C605FFA65
:1037200088F553F820601069704053F82560C7F39E
:10373000074580EA366053F8256080EA3626C4F3F0
:1037400007205FFA87FA53F8200053F82AA086EA88
:103750003046380EC7F3072753F8205050696840A9
:103760005FFA8CF509F1FF3953F8255080EA35608E
:10377000C4F30745B9F1000F53F8255080EA35200E
:10378000C8F3072502F1200253F8255080EA35409E
:103790004FEA1465E4B253F8251052F8085C53F868
:1037A000244081EA050181EA3A65C8F3074A4FEAF5
:1037B000186853F82AA052F8041C53F8288085EAA8
:1037C0003A25CCF3072ACCF3074C88EA010888EAAB
:1037D000346853F82C4053F82AA088EA342853F868
:1037E000274085EA3A4588EA34484FEA16645BDDAB
:1037F00053F82470146891687C405FFA88F75FFA88
:1038000080FA53F8277053F82AA084EA3764C0F38B
:10381000074753F8277084EA372CC5F3072453F879
:1038200024408CEA344C040EC0F3072053F8247073
:1038300054687C40F7B253F8277084EA3764C5F3C4
:10384000074753F8277084EA3727C8F3072453F84B
:10385000244087EA34472C0EEDB253F8244053F845
:1038600025504C4084EA3A64C8F3074A4FEA186886
:1038700053F82AA053F82880D16884EA3A24C6F382
:10388000072AC6F3074688EA010888EA356853F82C
:10389000265053F82AA053F8203088EA352884EAC5
:1038A0003A4488EA334837E72D4B1F5D5FFA88F4C6
:1038B0001C5D44EA0767C0F307441C5D47EA044700
:1038C000C5F307241C5D47EA042714687C40CBF845
:1038D0000040040E1F5DF4B21C5D44EA0767C5F3A7
:1038E00007441C5D47EA0447C8F307241C5D47EA08
:1038F000042754687C40CBF804402C0EEDB21F5DC9
:10390000C4B2C0F307201C5D44EA0767C8F307444C
:103910004FEA18681C5D47EA0447C6F30724C6F35C
:1039200007461C5D47EA042794687C40CBF80840B2
:1039300013F808705C5D9D5D1B5CD26844EA076407
:1039400044EA054444EA03235340CBF80C3003B067
:10395000BDE8F08F0830024000300240706B000874
:1039600070700008F8B515460C46FFF78FFEEA1098
:1039700003325200012595426CDA54F8101F364884
:10398000364BCEB20135865D53F826700E0E865D3D
:1039900053F8266086EA3766C1F30747C1F307216B
:1039A000C75D415C53F8277053F8211086EA37262B
:1039B00086EA314121606168CEB2865D53F8267097
:1039C0000E0E865D53F8266086EA3766C1F3074718
:1039D000C1F30721C75D415C53F8277053F82110EC
:1039E00086EA372686EA31416160A168CEB2865DFB
:1039F00053F826700E0E865D53F8266086EA376609
:103A0000C1F30747C1F30721C75D415C53F8277035
:103A100053F8211086EA372686EA3141A160E16831
:103A2000CEB2865D53F826700E0E865D53F8266082
:103A300086EA3766C1F30747C1F30721C75D415CDA
:103A400053F8277053F8213086EA372686EA334345
:103A5000E36090E7F8BD00BF707000087066000872
:103A60002DE9F0470F460446114600285ED0002F8E
:103A70005CD01AB903F00602022A57D1626A22F01A
:103A80000800102801D0202A4CD103F0060CBCF10C
:103A9000020F03D0206901380F2843D82079E16054
:103AA00020F00605BCF1020F257103D110F00105CD
:103AB00026D031E00026D4F810906661A661E66158
:103AC00026624E45F2DA1B4D11F806A04FF00408AD
:103AD000354096FBF8F8002D04EB880803DA013D29
:103AE00065F003050135C5F10305ED000AFA05FA95
:103AF000D8F8145045EA0A0AC8F814A00136E0E7DD
:103B000013F0010FA760384604F1280102D0BCF180
:103B1000060F04D1FFF7BAFD0020BDE8F087FFF7DC
:103B200021FFF9E740F61F40BDE8F0874FF44260FF
:103B3000BDE8F087030000802DE9F74F00250195CF
:103B4000A64D01262E602D680195A54D2E68019683
:103B5000DB10019E03F103094FEA491301368B463E
:103B600002EB030417D1019E2E602D680195019E82
:103B7000D25867680368456856B982EA030C8368BF
:103B8000A268C0685A40E3686F4083EA00080BE00F
:103B900087EA050C05E066684568D258036886EA3E
:103BA000050C5A40904617468E4B203C4FEA1C604D
:103BB000FDB253F820602069704053F82560C8F3C7
:103BC000074580EA366053F8256080EA3626C2F35E
:103BD00007205FFA88FA53F8200053F82AA086EAF3
:103BE0003046380E09F1FF3953F8205060696840BB
:103BF000D5B2B9F1000F53F8255080EA3560CCF307
:103C0000074553F8255080EA3520C8F307254FEAC9
:103C1000186853F8255053F8288080EA35404FEA59
:103C20001265C2F3074253F82510A56953F8222004
:103C300081EA050181EA3A65C7F3074AE16953F869
:103C40002AA085EA3A25CCF3072A5FFA8CFC88EA99
:103C5000010853F82CC053F82AA0C7F3072788EAB5
:103C60003C6888EA322853F8272085EA3A4588EAF2
:103C700032484FEA16625ADD53F822702268A16872
:103C80007A40C7B25FFA88FA53F8277053F82AA02F
:103C900082EA3762C8F3074753F8277082EA372C65
:103CA000C5F3072253F822208CEA324C020E53F857
:103CB000227062687A40EFB253F8277082EA376266
:103CC000C6F3074753F8277082EA3727C8F307225D
:103CD0004FEA186853F8222053F8288087EA3247C1
:103CE0002A0EC5F3074553F8222053F825504A40C1
:103CF00082EA3A62C0F3074AE16853F82AA082EAEE
:103D00003A22C6F3072AF6B2C0F3072053F826601A
:103D100053F82AA053F8203088EA010888EA366868
:103D200088EA352882EA3A4288EA33483CE72E4B53
:103D30009F5CC2B29A5C42EA0767C8F307429A5C8A
:103D400047EA0247C5F307229A5C47EA022722683E
:103D50007A40CBF80020020E9F5CEAB29A5C42EAFD
:103D60000767C6F307429A5C47EA0247C8F307228F
:103D70009A5C47EA022762687A40CBF804202A0E50
:103D8000C5F307459F5C5D5D5FFA88F24FEA1868EE
:103D90009A5C42EA0767C0F30742C0F307209A5CC7
:103DA00047EA0247C6F30722F6B29A5C47EA0227BF
:103DB000A2687A40CBF8082013F808709A5D1B5C63
:103DC00042EA076242EA054242EA0323E2685340BC
:103DD000CBF80C3003B0BDE8F08F00BF08300240D4
:103DE0000030024070660008706F00080423FFF77F
:103DF00037BE2DE9F04F884687B016461F46044669
:103E0000002800F0B880002900F0B580002B00F0F9
:103E1000B2801098002800F0AE800F2A40F3AE80E8
:103E2000237913F0060F40F0AC8032071DBF43F03A
:103E30000403A6F110092371B14600254D4522DA8D
:103E4000002308EB0502E118D258496912BA4A402A
:103E500003F1080A69460433102B4AF80120F0D117
:103E6000636A02A804F1140104F12802FFF720FCA0
:103E70000023E21851697A1909BAD1500433102B82
:103E8000F7D11035DAE7B54203DB10980660002061
:103E900079E0C5EB060B042100239BFBF1F11A46E8
:103EA0008A4215DA08EB050003F1080AC05890FAB7
:103EB00080FEE018E94640698EEA000E4AF809E003
:103EC00007EB050E00BA4EF8030001320433E7E7B2
:103ED00021EAE1718B0004EB030E06A81844DEF81A
:103EE000142040F8102CABEB810B03EB050C0022E7
:103EF0005A451EDA06A808EB0C0A00EB81001AF8F6
:103F000002A001904FEAC20950F8100CC9F118093B
:103F10000AFA09FA8AEA000A019840F810ACDEF8B9
:103F2000140007EB0C0A20FA09F00AF8020001322B
:103F3000DEE702AA134401310022032902F1040240
:103F400005DC0EEB0200013140699850F5E7636A29
:103F500002A804F1140104F12802FFF7A9FB0023D1
:103F6000E21851697A191A44043309BA102B42F83D
:103F7000101CF5D189E74FF4426004E040F61D4083
:103F800001E040F61E4007B0BDE8F08F38B132B115
:103F9000037943F0020303710020106070474FF46F
:103FA000426070470523FFF75BBD2DE9F04F8DB0F0
:103FB0000DF1200A0546884616465046002110227B
:103FC0001F4602F08BFA002D00F0F680B8F1000FCA
:103FD00000F0F280002F00F0EF801698002800F02B
:103FE000EB800F2E40F3EB802B7913F0060F40F09F
:103FF000E98032071DBF43F00403A6F120092B71AD
:10400000B14600244C4528DA002308EB040203F1F2
:10401000100BD2586946043312BA102B4BF801200A
:10402000F3D16B6A04A8514605F12802FFF784FD1D
:104030000023E9185AF8032048690DF1100C42409A
:104040005CF80300486139194AF8032012BACA50D3
:104050000433102BEDD11034D4E7B44203DB1698AF
:1040600006600020B0E0002308EB040903F1100B08
:1040700059F803206946043312BA102B4BF801207B
:10408000F2D105F1280C624651466B6ACDF80CC09E
:1040900004A8FFF751FD04F1100CCCEB060E04212F
:1040A0009EFBF1F1002302911A46DDF808A052456B
:1040B00018DA09EB030003F1100A0069694600BA37
:1040C0004AF801000DF1200A013253F80A10484065
:1040D00043F80A0090FA80FB381918440433C0F8FA
:1040E00010B0E2E72AEAEA718B000CA8184400221B
:1040F0009C4440F8202CAEEB810BCDF804C05A450F
:1041000020DA019840444FEAC20A10F802900DF1FB
:10411000300C0CEB810ECAF1180A09FA0AF0844639
:104120005EF8200C8CEA00004EF8200C01985EF836
:1041300010EC38442EFA0AFA8AEA090A00F802A0BA
:104140000132DCE70CAA1A442BEAEB7E4FF0FF3079
:104150004FEACE0E20FA0EFE52F8100C0EEA000EB8
:1041600052F8200C8EEA000042F8200C0DF12008D5
:1041700004A808EB030E013103440022032902F1D5
:10418000040204DC5EF8020098500131F6E76B6A25
:10419000039A04A84146FFF7CFFC0023EA185169AF
:1041A00058F803204A40391948F8032012BACA5077
:1041B0000433102BF2D152E74FF4426004E040F692
:1041C0001D4001E040F61E400DB0BDE8F08F38B153
:1041D00032B1037943F0020303710020106070478D
:1041E0004FF4426070472DE9F8431646C26CF30065
:1041F0000446C2F3C5001A449A420F46E26402D252
:10420000236D01332365236D03EB56732365331848
:104210003F2B29D9C0F14005204439460C302A46AD
:1042200004F1540804F10C0902F04AF940464946E9
:10423000FFF7F4F805F13F03B34213D279198B0766
:1042400001D040460AE00B464A46403153F8040B81
:1042500042F8040B8B42F9D140464946FFF7DEF89D
:104260004035E7E7002000E0002520447919721B63
:104270000C30BDE8F84302F023B938B578B171B11C
:10428000002A0CDB037903F0040303F0FF041BB9DD
:10429000FFF7A9FF204638BD40F6A17038BD40F6B3
:1042A000A37038BD0C4B43650C4B83650C4BC36549
:1042B0000C4B03660C4B43660C4B83660C4BC3667E
:1042C00003F17453A3F52303A3F69243036700237A
:1042D000C3640365704700BF67E6096A85AE67BBC4
:1042E00072F36E3C3AF54FA57F520E518C68059BD8
:1042F000ABD9831F08B538B1027922F006020271EA
:10430000FFF7D0FF002008BD40F6A37008BDF7B549
:10431000002307460E46032BD4BF4C2148213944C5
:10432000DA4302F003024968D20021FA02F20DF8E2
:1043300003200133082BEED1FB6C3D6D00241C43A0
:10434000E20842EA4572EB083F24002514401D4074
:10435000002D08BF382C3C444FF0800302F03F0290
:10436000237302F1010214D2372A4FF0000303DC59
:10437000B91801320B73F7E7FA181DF8031082F829
:1043800044100133082BF7D107F1540007F10C0159
:104390001FE0402A04D0BB18002119730132F8E74E
:1043A00007F1540507F10C0428462146FFF736F8BB
:1043B0000022B91801320023382A0B73F9D1FA18F8
:1043C0001DF8031082F844100133082BF7D128465A
:1043D0002146FFF723F800243B195B6D1BBA3351CC
:1043E0000434202CF8D107F10C000021402202F007
:1043F00075F8224607F15400002102F06FF807F12A
:104400004C000021082202F069F803B0F0BD70B53D
:104410000D4688B016460446C0B1B9B1B2B1836842
:10442000013B1F2B15D8037943F004030371694640
:10443000FFF76DFF0023A268934204DA1DF8032002
:10444000EA540133F7E73260002004E040F6A3703D
:1044500001E040F6A27008B070BDD388F0B54C1CE6
:1044600003F10806A4009588A719AF420DD8156876
:10447000EF18076017683E44EE5003689971D388BF
:1044800008331C44D4800020F0BD40F2ED30F0BD74
:1044900003684BB141B1CA889B79083ADB4302EB10
:1044A0008303CB8000230360704710B5012382791A
:1044B00001329342026805D2002442F823400133BE
:1044C0009BB2F4E7012300298380B3BF4942002354
:1044D000C371C371116010BD83888A799A4270B527
:1044E00005D201329A421ED341F2B54400E00024C5
:1044F000C279CA718B8000229A4207DA056855F8A2
:1045000022600D6845F822600132F5E700228D79BE
:10451000D018854205DB0D68002645F82060013281
:10452000F5E7204670BD41F2B54070BD2DE9F84F6A
:104530001646D0F8009017688B888288D1F80080E2
:10454000934234BF9A46924609EB820C0025847947
:1045500005EB020E0134A6454FF0000403D24CF8DF
:1045600025400135F3E708EB830C8D7904EB030E4E
:104570000135AE4504D200254CF824500134F4E74F
:104580009A4238BF08463146FFF7A6FF4FEA8A0B2A
:10459000D4460022002000215A450FD059F802309D
:1045A00058F802400025E41845F10005241845EBB1
:1045B0000105BC50284600210432EDE750EA010312
:1045C000B18804D157F82130B3B9BDE8F88FBB5892
:1045D0000AF1804A01330AF1FF3ABB5007EB8A0324
:1045E00053F8042F002AEDD18C45EBD85A680132DC
:1045F0000CF1010C5A60F3E70131B180BDE8F88F8E
:104600008388012B06D103681868D0F1010038BFF8
:10461000002070470020704710B50023C3718179D6
:104620009AB201318A4203F1010304D201680024E5
:1046300041F82240F3E70123838010BD90F9070081
:10464000431E5842584170470368186800F0010043
:1046500080F0010070472DE9F041C279CB79934297
:1046600054B232D184888D88AC4220D826D30068D9
:10467000096800EB840701EB850C01236FF003064A
:104680005E4357F806805CF80660B04504D1A3424B
:1046900002D80133A342F1D95E1EA6421ED0E41A0D
:1046A000EB1A50F8240051F82330984206D9002A1A
:1046B0000CBF02206FF00100BDE8F081002A0CBFA2
:1046C0004FF0FF300120BDE8F081012C09D1002B13
:1046D0000CBF6FF002000320BDE8F0810020BDE8B0
:1046E000F0810320BDE8F08110B50446FFF788FF94
:1046F000A0B9A2882168530102F18042013A51F821
:104700002200A3F120014FF0004202EA000494428B
:1047100006D08B4204D05208013BF6E7012010BDC1
:10472000184610BD01F01F03012202FA03F34909E4
:10473000026852F821001840C31A58425841704785
:10474000F8B50C46002A53D008B9002950D1E71C0F
:104750009379BF08BB4248D3002C41D0042194FB7D
:10476000F1F1061900258D42136807DA56F804CDD9
:104770009CFA8CFC43F825C00135F4E721EAE17589
:10478000AE0092F806C0654506DA4FF0000C43F81B
:1047900006C001350436F4E714F0030401D1978014
:1047A00013E0067843F8216003EB81050121A14263
:1047B000F5DA10F801C02E684CEA06262E600131A9
:1047C000F5E7012909D001399180918801F18040F4
:1047D000013853F820000028F3D00020D071F8BD34
:1047E0001046FFF719FF2046F8BD41F2B540F8BD6D
:1047F00041F2B840F8BD70B50446FFF701FF08B1BB
:10480000002070BDA18808468A00236850B19D1819
:10481000013855F8046C9D586D0045EAD6759D50D9
:10482000043AF2E71A6852001A6053F82130012B5B
:10483000E6D1013189B2A279A18041F2B5430131BB
:1048400091428CBF1846002070BDF8B50446FFF7B2
:10485000D7FEC8B9A58801466A1E9142236809D2CD
:1048600088001E18013177681E58760846EAC77618
:104870001E50F2E753F82210012D4FEA510143F880
:10488000221001D901B9A280F8BDF8B582888379D8
:104890000A449A4205460C4623DCFFF7B1FE18BBDA
:1048A0001CB3AE8806F18041013921446FF0030C3E
:1048B000731E89000CFB04FC2A6833B15718013BB6
:1048C00057F80C7057500439F6E7116842F8241075
:1048D000002142F823100133A342F9D33444AC80C1
:1048E000F8BD41F2B540F8BD0020F8BD2DE9F04318
:1048F00099B38488036804F18042013AC1F1200C25
:1049000053F822604FEA820826FA0CF6621E03EB87
:10491000840562B155F8087C27FA0CF955F8047C37
:104920008F4049EA070745F8047D013AF1E71D6821
:1049300005FA01F119604EB1817901348C4208D831
:1049400043445E6084801046BDE8F0833046BDE895
:10495000F08341F2B540BDE8F0830846BDE8F0833E
:104960004B1E1E2BF0B520D884880022661EB24252
:1049700003680DD295005F19C1F1200C7F6807FA1A
:104980000CFC5F59CF404CEA070701325F51EEE75C
:1049900004F18042013A53F8225025FA01F143F81C
:1049A000221011B9012C18BF8680F0BD2DE9F04D01
:1049B00006460F46F9B1D0F800808188C446002031
:1049C0000022002388420BD2DCF8004092469B462E
:1049D000E7FB04AB4CF804AB5A4600230130F1E787
:1049E00032B1B479481CA04208D8B08048F82120E0
:1049F0000020BDE8F08DFFF70FFEF9E741F2B5406A
:104A0000BDE8F08D2DE9F0438388B1F804809479F6
:104A100043452CBF9946C1460134A14557D88479F6
:104A20009C4206D30468002544F8235001339BB20E
:104A3000F5E743468C799C424FF0000405D30D689E
:104A400045F8234001339BB2F4E7A4460025002437
:104A50001FFA8CF308F10106B3420CF1010C11D2DC
:104A6000066856F823700E6856F82360BE1B67EB85
:104A700007073619146847EB050744F82360FD174C
:104A80003C46E5E74B4511680DD2066856F823C051
:104A900014EB0C0645F1000741F8236001333C4656
:104AA000FD179BB2EEE734B103F1804001386FF09F
:104AB000010441F82040013B9BB251F8230008B9A2
:104AC000002BF8D1013393800020BDE8F08341F240
:104AD000B540BDE8F0832DE9F7430D4602AE1F4611
:104AE000002346F8043D8179AB79994238BF1946D5
:104AF00004469046304601313A46FFF7AEFC0028A6
:104B00006DD120462946FFF7A6FD0330062857D869
:104B1000DFE800F0322C1C252C1C040001992846EB
:104B2000FFF7DAFC01994FF0000981F80790204661
:104B3000FFF791FD002840D0022804D001303FD17A
:104B40002846214634E02046294628E0019A20469E
:104B50002946FFF7EBFC0022019BDA7130E0019A55
:104B600020462946FFF7E2FCE279F5E72046294690
:104B7000019AFFF7DBFC1EE001992046FFF7ACFC31
:104B800001984FF0000980F807902946FFF763FD70
:104B900098B102280AD0013012D128462146019A44
:104BA000FFF730FF019B83F8079009E02046294674
:104BB000019AFFF727FF0122CEE70198FFF72CFDAE
:104BC00040460021FFF771FC41460198FFF784FC45
:104BD000394604463046FFF75BFC204601E040F2D0
:104BE000ED3003B0BDE8F0832DE9F3410C4602AE91
:104BF0001F46002346F8043D8179A3790546904677
:104C00003046994238BF19463A46FFF726FC00283D
:104C100043D1019B01229A8028462146FFF71BFDC4
:104C2000033006282AD8DFE800F0211B1814110AE7
:104C3000040028462146019AFFF778FC04E0284644
:104C40002146019AFFF7DEFE002215E020462946A4
:104C5000F7E70198FFF7E0FC10E02046294601E065
:104C600028462146019AFFF7CDFE04E0284621465A
:104C7000019AFFF75BFC0122019BDA71404600219B
:104C8000FFF713FC41460198FFF726FC394604461E
:104C90003046FFF7FDFB204601E040F2ED3002B068
:104CA000BDE8F0812DE9F34701F104090C46817953
:104CB000002302310546484616460193FFF7CDFB17
:104CC0000146002840F0888060682560FFF7EDFB12
:104CD000AA88636801329A80A9881A68012342F879
:104CE00021302A684FF01F0810680321022200FBC0
:104CF00003F70F40974228BF9B184900B8F10108FD
:104D00004FEA420281F00101F1D15B42A360A9792F
:104D100001A801313246FFF7A0FB08B1484658E030
:104D200001992846FFF7D8FB0198FFF7DDFC4042C8
:104D300000F01F0A51460198FFF7D8FD60680199FD
:104D400002463346FFF750FF074600283CD1AB88A8
:104D5000984527D2606803F18043013B0268012136
:104D600052F82390FFF791FDB9F1000F17D0019988
:104D70002846FFF7B1FB49460198FFF717FE514659
:104D80000198FFF7B3FD6068019902463346FFF7CB
:104D90002BFF6368AA881B6853F82290E4E708F1A8
:104DA0000108D4E701A83146FFF772FB6068294685
:104DB000FFF751FC002805DD6068294602463346AE
:104DC000FFF712FFE66009E048463146FFF760FB57
:104DD00001A83146FFF75CFB40F2ED37384602B0E0
:104DE000BDE8F08708B503460430D968FFF750FBEB
:104DF00008BD002208B502608260426803461AB10D
:104E00000430D968FFF744FB08BD2DE9F04F9DB091
:104E10001C460C901CA8002340F8043D23680D920A
:104E2000894619680E91A16818919979D9F80020DE
:104E300009920131E2689F88FFF70FFB8046002846
:104E400040F0C9801B984146FFF72FFB1B9EB9F825
:104E50000430099A356802EB83014046C218BA4211
:104E60004FF0000203D241F820200130F6E70C9BFE
:104E7000B3F804E002EB0E01B94206D20C980068C8
:104E8000002340F821300132F4E74FEA870EAEF1FB
:104E90000403EB18002105EB0E0C19930091009808
:104EA000B84270D20C9ADDF800801368099853F864
:104EB000283008932A68036808990E9892464FF0A4
:104EC000000BE3FB01AB189B0AFB03F30F930F9955
:104ED0000368D0464FF00009E3FB0189002104314B
:104EE000714528D000220B92099B6A585858CDF87A
:104EF00028B09246089ACDF848904FF0000BE0FB9E
:104F000002ABDDE90A2300201AEB020A4BEB030B8C
:104F100013900E9B0F9A5B580193DDE91289E3FB16
:104F200002896B18CDE9028918EB0A0849F10009DA
:104F300043F8048CD3E700230793CDF818B0DDE9DC
:104F400006ABDCF80030CDF84090002011901AEB51
:104F5000030ADDE910234BF1000B12EB0A0243F1C7
:104F600000031493DDF80090149B199915905B448D
:104F700009F101090A60CDF858B01790CCF800305B
:104F8000CDF800908BE77B1CB380B288012A08D94A
:104F900002F18043013B55F8233013B9013AB28046
:104FA000F3E730462168FFF756FB00281B9808DB23
:104FB00021680D9AFFF726FD0D9900230546CB7158
:104FC00003E00D99FFF788FA05461BA8E168FFF793
:104FD0005FFA284601E040F2ED301DB0BDE8F08FE9
:104FE000F7B502AC0023064644F8043D0F461546CB
:104FF0002046B179D268FFF730FA80B901980121D3
:10500000FFF753FA304601993A462B46FFF7FDFE6B
:10501000E96806462046FFF73BFA304601E040F2D9
:10502000ED3003B0F0BD70B5049D1E462B4614460E
:10503000FFF751FD20B1A379A28801339A4213D121
:1050400020463146FFF707FB002805DB20463146A6
:1050500022462B46FFF7C8FDA088A27941F2B5434E
:1050600090428CBF1846002070BDF8B5069D1F46C3
:105070002B461646FFF7B8FD044650B93046FFF7F9
:10508000DDFA30B13046394632462B46FFF723FD74
:1050900004462046F8BD70B504460D461646FFF797
:1050A000AAFB20462946FFF7D6FA002806DB204651
:1050B000294622463346FFF797FD00E00020A188ED
:1050C000A27941F2B543914288BF184670BD2DE9DF
:1050D000FF4180461D46104600230F4616460093AA
:1050E000019302930393FFF7AFFA002840F0C680C4
:1050F0006846B1792A46FFF7B0F90446002840F027
:10510000BF8001A8B1792A46FFF7A7F90446002815
:1051100040F0AF80B17902A801312A46FFF79DF92E
:105120000446002840F0A180B17903A801312A4645
:10513000FFF793F90446002840F093804046009919
:10514000FFF7CAF90446002840F0878030460199ED
:10515000FFF7C2F9044600287FD102980121FFF72A
:10516000A4F903982146FFF7A0F90098FFF748FA41
:1051700000285AD10098FFF767FAE8B10098FFF7C6
:1051800064FB0298FFF760FA40B902983146024684
:105190002B46FFF7A0FC044600285ED10298FFF7DB
:1051A00054FBE7E70198FFF750FB0398FFF74CFA31
:1051B00040B10398FFF749FB0198FFF745FA002833
:1051C000F0D109E00398314602462B46FFF783FCF5
:1051D00004460028EDD040E09DE80300FFF73BFACD
:1051E00000280BDB9DE803002B460246FFF7FCFC82
:1051F0000446002831D10298039909E001980099EA
:1052000002462B46FFF7F0FC044630BB0398029998
:1052100002462B46FFF7E8FCA7E703983146024613
:105220002B46FFF758FC0446B8B90398FFF706FA77
:105230000028F2D106E0314602462B46FFF7D4FCA7
:10524000044650B903983146FFF705FA0028039841
:10525000F1DA3946FFF740F9044603A82946FFF77B
:1052600017F902A82946FFF713F901A82946FFF705
:105270000FF968462946FFF70BF901E041F2B64401
:10528000204604B0BDE8F08138B5037B9B07044697
:105290000D4617D40068496802462B46FFF7B5FD56
:1052A00088B9606869682B460246FFF7AEFDA068C2
:1052B00069682B460246FFF7A8FD237B43F00403F1
:1052C000237338BD002038BD38B5037B03F00603D7
:1052D000042B04460D4614D100682A460146FFF708
:1052E0007FFE78B960682A460146FFF779FEA0681C
:1052F0002A460146FFF774FE237B23F00403237341
:1053000038BD002038BD2DE9F04385B01C460DF1B5
:105310001008002348F8043D029323680E4699794B
:105320000746914640460231E268FFF796F8054687
:10533000002840F008812368E268997902A80231C8
:10534000FFF78BF80546002840F0F98003986FF0CE
:105350000201FFF7AAF83B7B9B0702D502233373B8
:10536000E9E0B868029A0423337301462346FFF745
:105370004CFD0546002840F0DE807968B268B868C8
:105380002346FFF742FDB0682168E268FFF783FE1D
:105390000546002840F0CF8003982168E368024664
:1053A000FFF799FBD9F8303003981968FFF753F9E4
:1053B000002837D1E368009338680299039A23687C
:1053C000FFF753FE0546002840F0B580E3680093E0
:1053D0003868029932682368FFF725FE05460028E1
:1053E00040F0A98030680399029A2346FFF70DFD2B
:1053F0000546002840F09F8003990298FFF76CF85B
:1054000003982168E268FFF746FE0546002840F051
:1054100092800299E3680093039823680A46FFF795
:1054200002FE34E00298234601460246FFF7EDFCF7
:10543000054600287FD1D9F8303061681868039A92
:105440002346FFF7E2FC029903980A462346FFF73A
:10545000DCFC3868039A01462346FFF7D6FC029825
:10546000E3680093039923680246FFF7DCFD216897
:10547000E2680398FFF70FFE0298E3680093039930
:1054800023680246FFF7CFFD0546002853D1786810
:10549000326801462346FFF7B8FC054600284AD18A
:1054A0002168E2683068FFF7F6FD3068039A23460A
:1054B0000146FFF7AAFC2168E2680398FFF7EBFDBD
:1054C0002168E2683068FFF7E6FD386896E8060074
:1054D0002346FFF79AFC054600282CD10298326833
:1054E00001462346FFF791FC3068E368009371683A
:1054F00023680246FFF7B9FD3068E36800937168DE
:1055000023680246FFF7B1FD7068E36800933168D5
:1055100023680246FFF7A9FD716802980A462346F0
:10552000FFF773FC7068E3680093039923680246F1
:10553000FFF79BFD054602A8E168FEF7A9FF40467C
:10554000E168FEF7A5FF284605B0BDE8F0832DE928
:10555000F0410D460446002800F0D680002900F0F6
:10556000D3800369002B00F0D38041694B1E432B8D
:1055700000F2CE800368002B00F0CA804368442B01
:1055800000F2C6808369002B00F0C280C369013B32
:10559000432B00F2BD802868002800F0B980033159
:1055A00089081823AA884B4360339A4203D240F2F9
:1055B000ED30BDE8F081EB88184418332063EB80B0
:1055C0000028F4D008302A46FEF747FF0646002898
:1055D00040F092806169206B033189082A46FEF70A
:1055E0003CFF0646002840F08280236B94E80300CD
:1055F0001A68FFF7A5F8236B61699A6880462069ED
:10560000FFF79EF8E1690746206B03310C308908EB
:105610002A46FEF722FF0646002864D1236BA069C4
:10562000DA68E169FFF78CF847440744A368206B08
:105630004660066146619BB1E1684B1E422B0FD864
:105640000331043089082A46FEF707FF0646002882
:1056500044D1236BA068E1685A68FFF771F80744EA
:10566000236A53B3616A4B1E422B26D8A36A23B325
:10567000E36A013B422B20D8206B033110308908AC
:105680002A46FEF7EAFE064618BB236B616A1A69D2
:10569000206AFFF755F8E16A0744206B03311430A4
:1056A00089082A46FEF7D9FE236B064660B9A06A30
:1056B000E16A5A69FFF744F80744002F41F2BF40FE
:1056C00008BF0020BDE8F08103F110002946FEF775
:1056D000DFFE206B29460430FEF7DAFE206B2946F8
:1056E0000C30FEF7D5FE206B2946FEF7D1FE206B6D
:1056F00029460830FEF7CCFEEB88183BEB800023F0
:1057000023633046BDE8F08141F25440BDE8F081AA
:1057100041F25340BDE8F08138B50D4604460028FB
:1057200032D0002930D0006B002830D00368002B25
:105730002DD083685BB3FEF7ABFE206B29460830A3
:10574000FEF7A6FE206BC3681BB10C302946FEF79E
:105750009FFE206B43681BB104302946FEF798FE7C
:10576000206B03691BB110302946FEF791FE206BB8
:1057700043691BB114302946FEF78AFEEB880020EE
:10578000183BEB80206338BD41F2544038BD41F2F4
:10579000534038BD2DE9F041054614460E46002918
:1057A0005CD0002A5AD0002858D00B6B002B4FD069
:1057B000106800284CD09968002949D0D38889798D
:1057C000978803F1340C4FF00C0818FB01C18F428D
:1057D00041D3184428601033D380336B9B68997988
:1057E000FEF73BFE00282DD1336B28689B68043000
:1057F00099792246FEF731FE00BB336B28689B681F
:10580000083099792246FEF728FE064628688EB9A8
:1058100000680021FEF749FE2B6800215868FEF75A
:1058200044FE2B6801219868FEF73FFE2B68012299
:105830001A7315E004302146FEF72AFE2868214637
:10584000FEF726FEE388103BE38000232B6002E096
:1058500041F2534604E040F2ED3601E041F2544695
:105860003046BDE8F08138B50D460446B8B1B1B157
:10587000006888B10830FEF70BFE20682946043026
:10588000FEF706FE20682946FEF702FEEB880020A0
:10589000103BEB80206038BD41F2534038BD41F2EF
:1058A000544038BD70B50D4614461946E0B1DAB122
:1058B000002B19DB0668BEB14268AAB183689BB1B0
:1058C000012D08D004D3022D11D120461A4603E041
:1058D0002046324600E02046FEF732FF002841F223
:1058E000BF4008BF002070BD41F2544070BD41F27E
:1058F000BF4070BD38B50D460446F0B1E9B100684F
:10590000D8B16368CBB1A368BBB10968A9B16B68B2
:105910009BB1AB688BB1237B2B73237B9B070FD48D
:10592000FEF7DAFD68B960686968FEF7D5FD40B931
:10593000A068A968FEF7D0FD38BD41F2544038BDDB
:10594000002038BD037BF7B513F0030407460E466D
:10595000154603D0FFF7CEFF044675E05B070194C0
:105960001ED580688968FFF73BFB044600286BD191
:1059700038683168FEF7B0FD0446002864D17868C5
:105980007168FEF7A9FD044600285DD1B0682A6859
:10599000EB680146FFF79BFB0446002854D10FE05B
:1059A0005168006832682B46FFF72FFA044600283A
:1059B0004AD17868696872682B46FFF726FAE2E7F1
:1059C000B068696802462B46FFF71FFA04460028B4
:1059D0003AD12B68EA68997901A8FEF73EFD0446A2
:1059E000002831D1B068019A01462B46FFF70DFA25
:1059F000044620B101A8E968FEF74AFD24E03068BA
:105A0000019902462B46FFF700FAB0680199024659
:105A10002B46FFF7FAF901A8E968FEF739FD71682E
:105A2000B0680A462B46FFF7F0F9044660B92946EC
:105A30003046FFF749FCB268116801230446002094
:105A40000B60486093803373204603B0F0BD2DE9AE
:105A5000F04387B099460E9C236888460021039145
:105A60000491059199790746164603A80131E26829
:105A7000FEF7F3FC0546002840F018812368E26831
:105A8000997904A80131FEF7E8FC0546002840F0AA
:105A900009812368E268997905A80131FEF7DDFCE8
:105AA0000546002840F0FA803B7B98F80C1013F074
:105AB000020F03D08F0779D4404602E0880704D54F
:105AC00038463146FFF716FFE4E0CA071ED4D8F87F
:105AD0000800039A01462346FFF797F90546002878
