:020000040800F2
:1000000000C0072069B30008B1B60008E39D0008EE
:10001000DD9D00085FB8000861B80008000000001E
:1000200000000000000000000000000041940008F3
:1000300063B800080000000065B8000867B8000851
:10004000B9B30008B9B30008B9B30008B9B30008E0
:100050006BB80008B9B30008B9B30008B9B3000819
:10006000B9B30008B9B30008B9B30008B9B30008C0
:10007000B9B30008B9B30008B9B30008B9B30008B0
:10008000B9B30008B9B30008B9B30008B9B30008A0
:10009000B9B30008B9B30008B9B30008B9B3000890
:1000A000B9B30008B9B30008B9B30008B9B3000880
:1000B000B9B30008B9B30008B9B30008B9B3000870
:1000C000B9B30008B9B30008B9B30008B9B3000860
:1000D000B9B30008B9B30008B9B30008B9B3000850
:1000E000B9B30008B9B30008B9B30008B9B3000840
:1000F000B9B30008B9B30008B9B30008B9B3000830
:10010000B9B30008B9B30008B9B30008B9B300081F
:10011000B9B30008B9B30008B9B30008B9B300080F
:10012000B9B30008B9B30008B9B30008B9B30008FF
:10013000B9B30008B9B30008B9B30008B9B30008EF
:10014000B9B30008B9B30008B9B30008B9B30008DF
:10015000B9B30008B9B30008B9B30008B9B30008CF
:10016000B9B30008B9B30008B9B30008B9B30008BF
:10017000B9B30008AD160108B9B3000800000000CB
:10018000B9B30008B9B30008B9B30008B9B300089F
:10019000B9B30008B9B30008B9B30008B9B300088F
:1001A000B9B30008B9B30008B9B30008B9B300087F
:1001B000B9B30008B9B30008B9B30008B9B300086F
:1001C000B9B30008B9B30008B9B30008B9B300085F
:1001D000B9B30008B9B30008B9B30008B9B300084F
:1001E000B9B30008B9B30008B9B30008B9B300083F
:1001F000B9B30008B9B30008000000000000000017
:1002000000000000000000000000000000000000EE
:1002100000000000000000000000000000000000DE
:1002200000000000000000000000000000000000CE
:1002300000000000000000000000000000000000BE
:1002400000000000000000000000000000000000AE
:10025000000000000000000000000000000000009E
:10026000000000000000000000000000000000008E
:10027000000000000000000000000000000000007E
:10028000000000000000000000000000000000006E
:10029000000000000000000000000000000000005E
:1002A000000000000000000000000000000000004E
:1002B000000000000000000000000000000000003E
:1002C000000000000000000000000000000000002E
:1002D000000000000000000000000000000000001E
:1002E000000000000000000000000000000000000E
:1002F00000000000000000000000000000000000FE
:1003000000000000000000000000000000000000ED
:1003100000000000000000000000000000000000DD
:1003200000000000000000000000000000000000CD
:1003300000000000000000000000000000000000BD
:1003400000000000000000000000000000000000AD
:10035000000000000000000000000000000000009D
:10036000000000000000000000000000000000008D
:10037000000000000000000000000000000000007D
:10038000000000000000000000000000000000006D
:10039000000000000000000000000000000000005D
:1003A000000000000000000000000000000000004D
:1003B000000000000000000000000000000000003D
:1003C000000000000000000000000000000000002D
:1003D000000000000000000000000000000000001D
:1003E000000000000000000000000000000000000D
:1003F00000000000000000000000000000000000FD
:10040000000000000EB433B5059C05467246114B42
:100410009A4205D2002002B0BDE8304003B07047D8
:1004200072460D4B9A42F5D80121204603F070F830
:100430000028EFD00121204603F08CF80128E9D0F4
:10044000002306AA214628462370019201F0DEFE11
:10045000E1E700BF00880008FF93000800000000EB
:10046000000000000000000000000000000000008C
:10047000000000000000000000000000000000007C
:10048000000000000000000000000000000000006C
:10049000000000000000000000000000000000005C
:1004A000000000000000000000000000000000004C
:1004B000000000000000000000000000000000003C
:1004C000000000000000000000000000000000002C
:1004D000000000000000000000000000000000001C
:1004E000000000000000000000000000000000000C
:1004F00000000000000000000000000000000000FC
:1005000075B435E07EA15DD8D13F259EFE3F206ABF
:100510005825BEEBC2BC0F4C02694D1AF0D354EB08
:1005200000000000000000000000000000000000CB
:1005300000000000000000000000000000000000BB
:1005400000000000000000000000000000000000AB
:10055000000000000000000000000000000000009B
:10056000000000000000000000000000000000008B
:10057000000000000000000000000000000000007B
:10058000FFFFFFFFFFFFFFFFFFFFFFFFFFFFFFFF7B
:10059000FFFFFFFFFFFFFFFFFFFFFFFFFFFFFFFF6B
:1005A000FFFFFFFFFFFFFFFFFFFFFFFFFFFFFFFF5B
:1005B000FFFFFFFFFFFFFFFFFFFFFFFFFFFFFFFF4B
:1005C000FFFFFFFFFFFFFFFFFFFFFFFFFFFFFFFF3B
:1005D000FFFFFFFFFFFFFFFFFFFFFFFFFFFFFFFF2B
:1005E000FFFFFFFFFFFFFFFFFFFFFFFFFFFFFFFF1B
:1005F000FFFFFFFFFFFFFFFFFFFFFFFFFFFFFADE31
:100600003EB447F2D461CDF2BE5146F61202C6F2B4
:100610008B1246F28373C9F686334EF2F864CFF23A
:10062000AF6480E81E003EBC70473EB44AF6794194
:10063000C8F6C1214DF65032C2F645524DF29D43E7
:10064000C9F232234AF2DD34C6F2A92480E81E0042
:1006500000F1100041F62661C9F2C70147F20F729E
:10066000C5F208124DF60563C0F630334DF28B64C7
:10067000C5F6BE6480E81E0000F110004EF6316140
:10068000C4F698414FF23372CBF65E3240F63163D6
:10069000C6F63A634CF61C44C7F21F3480E81E00CD
:1006A00000F1100048F66871CAF253314DF24A6207
:1006B000CAF6137241F22213C7F2793346F6D564B3
:1006C000C0F6895480E81E003EBC70470000000060
:1006D000000000000000000000000000000000001A
:1006E000000000000000000000000000000000000A
:1006F00000000000000000000000000000000000FA
:1007000008B500F0DBF8012008BD00000000000083
:1007100000000000000000000000000000000000D9
:1007200000000000000000000000000000000000C9
:1007300000000000000000000000000000000000B9
:1007400000000000000000000000000000000000A9
:100750000000000000000000000000000000000099
:100760000000000000000000000000000000000089
:100770000000000000000000000000000000000079
:100780000000000000000000000000000000000069
:100790000000000000000000000000000000000059
:1007A0000000000000000000000000000000000049
:1007B0000000000000000000000000000000000039
:1007C0000000000000000000000000000000000029
:1007D0000000000000000000000000000000000019
:1007E0000000000000000000000000000000000009
:1007F00000000000000000000000000000000000F9
:1008000010B5054C237833B9044B13B10448AFF34A
:1008100000800123237010BD380402200000000076
:100820001468000808B5034B1BB103490348AFF334
:10083000008008BD000000003C040220146800088D
:100840000D4B82B00D4A0E489B1A48BF03339B10D4
:100850000093002301930199009B994201D302B0B8
:1008600070470199019B50F8211042F82310019B19
:1008700001330193EFE700BF380402200004022097
:10088000787400080B4B82B00B4A00219B1A48BFBA
:1008900003339B10009301910198009B984201D370
:1008A00002B07047019B42F82310019B0133019372
:1008B000F2E700BF601C02203804022008B5FFF7F1
:1008C000E1FFBDE80840FFF7BBBF0FB404B07047BD
:1008D00000487047F06800087047000030B50F4CC2
:1008E0000023A142C0E90033C0E9023312D20C4B0D
:1008F00099420CD85D1CC0E900121144A94205D9E7
:10090000DB4384601944521AC160426030BDDB434E
:1009100023441944C0E90212F8E700BF0000009028
:10092000FFFF1F081FB504466846FFF7D7FF019A6F
:100930001AB10099204605F043FF039A62B102996B
:10094000074B99420AD3C91A204602F018FEB0FAA2
:1009500080F0400904B010BD0120FBE70020F9E75A
:10096000000000902DE9F047884614461146234ABE
:100970001F46844613794046012B16D1DFF898A014
:10098000A24517D81E4D1F4B2B441F4D5B1BA34286
:1009900010D9A4EB0A05166806F58066B54217D390
:1009A0001A49A1EB0A01891B21443A46BDE8F047E8
:1009B000FFF7B8BF164DA54204D8164BA34201D984
:1009C000651BE8E7062300208CF80030BDE8F087BF
:1009D000EB19B342E9D9A6EB0509214640464A4640
:1009E000FFF7A0FF0128F1D10849BB1B08EB090064
:1009F000A1EB0A0A5F195444611BD6E75804022090
:100A000001002008FFFF3F90000000900000200838
:100A10000000409000009C900000040808B500F021
:100A2000C3FF40B9054BF222DA6000F0CFFFB0FA05
:100A300080F0400908BD0020FCE700BF003C0240F8
:100A40002DE9F04F8BB0044690461A4606A8FFF7F2
:100A500045FF079F002F54D0002C54D0B8F1000F51
:100A600053D00023DDF818902370FFF7D7FF01283B
:100A7000054603D100F098FF78B12570099A002A45
:100A800000F0A580012D40F0A2800023089923707A
:100A9000514B99423BD2002599E00646DFF840B120
:100AA00008EB060A5B463A464846514600F08EFC83
:100AB000031E01DB9A0705D003230025237000F0F5
:100AC00085FFDBE72BB11E44FF1A9944002FE7D1C5
:100AD000F5E723704946DAF80020022000F0ACFF69
:100AE0000028E9D1D9F80020DAF800309A4201D084
:100AF0000423E2E70A2309F104090436043F2370C2
:100B0000E4E70125BAE72546B8E74546B6E7A1EB95
:100B10000309511E4944090C0131B1F5806F009160
:100B2000B9D84FEA194A0099514508D84946404674
:100B300002F027FD002848D003232370ABE70AF01A
:100B40001F014FEA5A1B01912449019801EB8B01C7
:100B50008968C14011F0010134D14FEA0A4602927E
:100B60009E1998D24FF00A0304A8237002F00DFDDD
:100B7000194B029AD0B9049901F57F47FF37B7FBAB
:100B8000F1F70121F01ACDE9022102F0FCFC124B31
:100B9000DDE9022118B14FF0020121700021049813
:100BA000013F0644EED100293FF475AF0B4901988F
:100BB00001EB8B0B012101FA00F0DBF80810014377
:100BC000CBF808100AF1010AADE70A232370284682
:100BD0000BB0BDE8F08F00BF000000905804022069
:100BE000CB0800082DE9F14F804626481F460C46E9
:100BF00090F88C309246012B17D1DFF8A4B08B45CA
:100C00001AD8214D214B2B44214D5B1B8B4213D90C
:100C1000A1EB0B05D0F8886006F58066B5421AD3C3
:100C20001C49A1EB0B01891B21443B46404601B006
:100C3000BDE8F04FFFF704BF174DA54204D8174B8E
:100C4000A34201D9651BE5E70723002088F800309F
:100C500001B0BDE8F08FEB19B342E6D9A6EB050968
:100C60005246214640464B46FFF7EAFE0128EFD1A7
:100C70000849BF1B0AEB0902A1EB0B0B2F445C4494
:100C8000611BD2E75804022001002008FFFF3F90BB
:100C900000000090000020080000409000009C90A0
:100CA00000000408C3B2532B05D1000AA0F155037C
:100CB000584258417047002070470000C1B10D4BA9
:100CC000984204D84B1E0C4A034493420ED20B4A5E
:100CD0000B4B13440B4A9B1A984209D8013908441C
:100CE000094981428CBF00200120704701207047D4
:100CF00000207047FFFF9B900000409000002008FC
:100D0000FFFF3F900000009000000408B3F5806FE3
:100D100067B505460E4610461946019304D90923C6
:100D200000202B7003B060BD064A01AB00F08CF9C7
:100D30000128044AF3D1019B31462846FFF752FFB0
:100D4000F0E700BFF8040220B3F5806FF7B5064660
:100D50000D461C46019304D908230020337003B0CC
:100D6000F0BD074F3946FFF7FDFD0128F7D101AB74
:100D70002A462146384600F0B9F90128ECD1EEE7C1
:100D80001009022002460088074908B5FFF78AFFCC
:100D9000012806D1D36B002B0B6018BF03460B71E3
:100DA00008BD00200871FBE758040220024B002216
:100DB00001201A601A717047580402200246008808
:100DC000094908B5FFF76EFF012808D1D36B002B46
:100DD000C1F8883018BF034681F88C3008BD002068
:100DE00081F88C00FAE700BF58040220034B002270
:100DF0000120C3F8882083F88C2070475804022013
:100E00000246008808B5FFF74DFF012809D11046BA
:100E100000F050F9431E58425841034B83F8BC0878
:100E200008BD0020F9E700BF58040220024B002251
:100E3000012083F8BC28704758040220024600882D
:100E400008B5FFF72FFF012809D1104600F0E2F89E
:100E5000431E58425841034B83F8A40408BD0020A8
:100E6000F9E700BF5804022008B502F086FB012014
:100E700008BD000070B58AB004460391FFF71EFF5D
:100E800000283BD0039A214606A8FFF727FD079DBF
:100E9000D5B90124099BA3B1012C12D104A802F0F9
:100EA00074FB044640BBDDE90432B2F1806F03D825
:100EB000A3F580335C425C4180220021104805F09C
:100EC0008DFC20460AB070BD069EFFF7A7FD0128E5
:100ED0000446DFD100F068FD0028DAD1094B29462D
:100EE000094A30460093094B00F014FAB0FA80F436
:100EF000640900F06BFDCDE70024DDE70446E0E780
:100F000060040220D1080008CB080008D9080008B6
:100F100013460A2230B585B00D46194604468DF8B1
:100F20000F200193FFF7CAFE58B1084A2146019BE2
:100F30000DF10F0092F8A424012A2A4603D1FFF7ED
:100F4000E5FE05B030BDFFF74DFEFAE7580402207C
:100F500007B513460A228DF80720084A92F8BC28E4
:100F6000012A0A4601460DF1070004D1FFF7ECFE05
:100F700003B05DF804FBFFF7F5FCF9E75804022025
:100F800030B50446A1B008B30088FFF78BFE0128F6
:100F90001CD1124B0022124D83F8A424FFF726FF28
:100FA000294680226846FFF7D3FF01284FF08002D0
:100FB0000ED1BDF80000FFF775FE012808D1694683
:100FC000204605F0EDFBB0FA80F0400921B030BDBD
:100FD00021462846FFF79CFFF8E700BF580402208F
:100FE000800040900A4810B5FFF70AFB084A00232A
:100FF00012F8014B4CB90133102BF9D1102200210A
:10100000034805F0EBFB204610BD0124F6E700BFC6
:10101000180D022038B5044698B10A4D05F11000AC
:10102000FFF7EEFA0023221D05F1200085F8243099
:101030001023E9186B642B6303F058F8B0FA80F0C2
:10104000400938BD180D022007B558B16AB173B117
:10105000009313460A460146064803F04AF8B0FAE0
:1010600080F0400903B05DF804FB1046FAE718462B
:10107000F8E700BF380D02200A4610B500B139B9B3
:10108000002410220021094805F0A8FB204610BDCD
:101090000146074803F0FAF8B0FA80F41022002164
:1010A0000248640905F09AFBF0E700BF280D022012
:1010B000380D022038B50446A0B10B4D2846FFF785
:1010C0009FFA0023221D294685F83C31102305F59F
:1010D0009C70C5F85C31C5F8483103F0E3F8B0FA0C
:1010E00080F0400938BD00BF180D022007B579B166
:1010F00058B17AB183B1009313460A4601460748B6
:1011000003F0D3F8B0FA80F0400903B05DF804FBB7
:101110000120FAE71046F8E71846F6E7500E0220DD
:101120000A4610B500B139B900241022002109483F
:1011300005F054FB204610BD0146074803F0C7F9EF
:10114000B0FA80F4102200210248640905F046FB41
:10115000F0E700BF180D0220500E022008B5074826
:101160002023C0F85832002300F51470037103F0F7
:1011700041FAB0FA80F0400908BD00BF180D022006
:101180000A460146034808B503F0F7F9B0FA80F0C3
:10119000400908BD680F02200A460146034808B509
:1011A00003F0B5FAB0FA80F0400908BD680F0220DC
:1011B0002DE9F0410026AEB004460496CDE9026662
:1011C000002800F08F8049482025FFF72EFA8DF87F
:1011D000486011AE1395304603F00CFA58B940221E
:1011E0002146304603F0C9F928B904AA09A93046B6
:1011F00003F08DFA08B100246FE04FF4006305AFEF
:10120000DFF8F080304606933946394BCDF814802C
:1012100003F1200211931295139203F140021495E9
:10122000159203F160021895179203F18002A03322
:10123000169519921B931A951C9504F008FB00282B
:10124000D9D131463A4603A804F024FC01460028CF
:10125000D1D12B46A8F14002039804F0A3FCA8F1D9
:10126000200201212B46039804F09CFC3A463146AB
:10127000039805F06DF90028BDD131463A4602A821
:1012800004F082FF01460028B5D104F140022B464C
:10129000029804F0C7FF04F160022B460121029876
:1012A00040F2EB3404F0BEFF039B029A09A80499B4
:1012B000079307AB0097089604F0CBFF031B394652
:1012C00002A85C425C4104F096FF394603A804F092
:1012D0004AFC3946304604F09FFB40220021034877
:1012E00005F07CFA20462EB0BDE8F081DC0F02202C
:1012F000306800081C10022010B502460023044C80
:101300001846013354F823109142F9D910BD00BF9B
:10131000000402202DE9F04F884689B09946002349
:10132000074616460293FFF7E7FF054608F1FF3030
:101330003844FFF7E1FF0130441B36B143464246D3
:1013400039461E48CDE90054B0470023DFF874A0A9
:10135000DFF874B0039302230793022C234602A9FB
:1013600003A828BF0223CDE90553E41A1D4400F069
:10137000E9FB071E804618BF01277F42B9F1000F25
:1013800000D0C84776B1129BB3B1059B5AF8230031
:10139000129B9847024658460097DDE905135AF814
:1013A0002110B04724B1B8F1000FD6D04FF0FF376D
:1013B000384609B0BDE8F08F014AECE7F268000852
:1013C0003D690008000402201369000800207047EE
:1013D00000B54FF4407295B04FF0407103460C9247
:1013E00005220F9101210692002201910B92139286
:1013F00000920B48CDE90312CDE90D22CDE911226F
:10140000102206A902924FF4800205926A4600F06B
:10141000BCFD003818BF012015B05DF804FB00BF0B
:101420001C18022000B54FF4407395B041F2883289
:1014300017480C93062306A906930023CDE90D3324
:101440000F930B931393CDE9113300F0A5FCE0B992
:10145000022301224FF4800104900D48CDE90033AE
:101460001023CDE9023205236A46CDE905134FF07A
:10147000407306A90F9341F2883300F086FD0038CF
:1014800018BF012015B05DF804FB0120FAE700BF8A
:101490001C18022008B5054800F0C7FD044A0020CA
:1014A000536923F04063536108BD00BF1C1802203C
:1014B000001000A008B5064A064B1A6041F28832B7
:1014C0009A64022283F84120FFF7E4FF002008BD60
:1014D000001000A01C18022030B54FF440738FB0EC
:1014E0001A4C05460693EC2301914FF0407100938E
:1014F0004FF44063204607934FF440530393002377
:10150000CDE908310A21CDE90A23059141F288325B
:101510006946CDE90C3300F03FFC10B101200FB05B
:1015200030BD226829462046536823F4E0635360A7
:1015300041F2883200F0CBFC0028EFD122685368DA
:1015400023F4E06343F440735360E8E71C1802207F
:101550002DE9F0414FF440738EB0CDB28E18069352
:101560001223C5F58075074600934FF440639542FA
:101570000C4607934FF4405328BF1546DFF86480AC
:101580004FF0407203930023CDE9083205930D9389
:10159000CDE90B3301940A95FFF744FF00BB41F2FC
:1015A000883269460F4800F0F7FBC8B941F288322B
:1015B0003946404600F033FC90B941F28830FFF7DD
:1015C00007FF68B92C442F4404F58073B3428CBFE5
:1015D000351B4FF48075A642DCD80EB0BDE8F08113
:1015E0000120FAE71C18022000B54FF440738FB0B9
:1015F0000693DC23019000934FF4406307934FF46C
:10160000405303930023CDE9083305930D93CDE9AF
:101610000B33FFF707FF18B101200FB05DF804FB93
:1016200041F288326946064800F0B6FB0028F3D143
:101630004FF44870FFF7CCFE003818BF0120ECE7EC
:101640001C1802204FF080624FF480334FF4806109
:10165000C0E900234FF48073C0E902134FF48023E4
:10166000036100207047F0B522F003050C4697088F
:1016700006680D44A54208D112F003021ED0012ACB
:1016800014D111F82730337018E06378043414F85B
:1016900004CC1B0443EA0C6314F801CC43EA0C03AA
:1016A00014F802CC43EA0C233360E3E76B78022A98
:1016B00011F8272043EA0223338002D10368186817
:1016C000F0BDAB78DFE7F0B50068550800238E1C4D
:1016D0009D4206D1D30702D531F82530038000683A
:1016E000F0BD31F8237036F82340013344EA074453
:1016F0000460EDE77047000010B5044608B901200A
:1017000010BD437F03F0FF0213B90277FFF7F2FF2A
:10171000022363772379E3B92368134A5A619A68ED
:1017200022F018029A6062792368D2B94FF0FF3232
:101730001A6100209A68616922F060020A43A16977
:101740009A609A6822F080020A439A6001236377C4
:10175000D6E7D4E90212204600F036F80028E2D09D
:10176000CDE72269E4E700BFB71DC104F8B5037FE8
:101770000446012B4FF0020324D04377012703686E
:1017800007779F6847F001079F60076A022F16D00E
:10179000032F07D0012F0FD00020012363770023F0
:1017A0002377F8BD01EB8206B14201D11868F4E756
:1017B00051F8042B1A60F7E7FFF755FFEDE7FFF745
:1017C00082FFEAE71846ECE71F2310B521FA03F47D
:1017D000E4070DD4013BF9D2182A13D8012303FAE8
:1017E00002F404F0013424F001045CB1012011E0A2
:1017F000102A10D0182A03D0082A03D10F2B00E09A
:10180000062BF3D800684161836823F018031A435C
:101810008260002010BD072BF3E770B50446866D8B
:1018200001F02AFE054694F83530022B06D08023BD
:1018300001206365002384F8343070BD23681A6882
:1018400022F016021A605A6922F080025A61226C54
:101850000AB9A26C1AB11A6822F008021A601A6852
:1018600022F001021A6023681B6813F001030AD1F9
:10187000E16D3F2218468A40B260012284F834307C
:1018800084F83520D9E701F0F7FD401B0528EAD997
:10189000202303206365002384F8350084F8343066
:1018A000CBE70000094910B50C6924F440740C61C1
:1018B0000C6944F440740C610C6944F001040C613F
:1018C00002604360BFF34F8F10BD00BF003C024079
:1018D000084B1A6922F440721A611A6942F40072C4
:1018E0001A611A6942F001021A610160BFF34F8F59
:1018F000704700BF003C0240084B1A6922F4407256
:101900001A611A6942F480721A611A6942F001027E
:101910001A610180BFF34F8F704700BF003C024047
:10192000074B1A6922F440721A611A691A611A691E
:1019300042F001021A610170BFF34F8F704700BF80
:10194000003C0240164AD3689B0704D515498B69B1
:1019500043F020038B61D368D80604D5114A9369FC
:1019600043F0100393610E4AD368990604D50D49DC
:101970008B6943F008038B61D3685A0604D5094A82
:10198000936943F004039361054AD3681B0604D5A9
:1019900004498B6943F002038B61F223D3607047E3
:1019A000003C024068180220064B1A69002A07DA38
:1019B000054A5A6002F188325A601869C00F7047B0
:1019C00000207047003C024023016745034A002085
:1019D000136943F000431361704700BF003C0240AD
:1019E000134B002270B504469A61124D01F044FD7C
:1019F0000646EB68DB0307D4EA6812F0F2020ED069
:101A0000FFF7A0FF012003E0621CF2D00CB9032015
:101A100070BD01F031FD801BA042EAD9F7E7E8680C
:101A200010F00100F4D001231046EB60F0E700BF96
:101A300068180220003C0240F7B51C4F15460646C8
:101A40000C463A7D0193012A2DD001224CF25030F0
:101A50003A75FFF7C5FF98B9019B032E07D8DFE859
:101A600006F00213181DE9B22046FFF759FF4CF2A9
:101A70005030FFF7B5FF0E4A136923F001031361DD
:101A800000233B7503B0F0BDA9B22046FFF734FF39
:101A9000EDE729462046FFF71BFFE8E72A462046E8
:101AA000FFF700FFE3E70220ECE700BF6818022021
:101AB000003C02400D4B03291A6922F440721A615E
:101AC0001A6904D142F4004242F0040203E0022900
:101AD000FAD142F400421A611A6942EA002040F445
:101AE00080301861BFF34F8F704700BF003C024049
:101AF00039B1012921D002290CBF4FF400714FF4F4
:101B000040710F4B0B281A6988BF043022F44072D1
:101B10001A611A69114319611A6922F0F8021A61EF
:101B20001A6942EAC00040F0020018611A6942F4E2
:101B300080321A61BFF34F8F70474FF48071E0E736
:101B4000003C02402DE9F843DFF8988005460F4637
:101B500098F81430012B40D001234CF2503088F813
:101B60001430FFF73DFF0446A8B94FF0FF333B6048
:101B70002B68012B15D16968287CFFF79BFF4CF27D
:101B80005030FFF72DFF164A0446136923F4004333
:101B900023F004031361002388F814302046BDE8C5
:101BA000F883AE68DFF83890D5E902231344B342D6
:101BB000F1D9297C3046FFF79BFF4CF25030FFF7FC
:101BC0000FFFD9F8103023F0FA03C9F8103010B124
:101BD00004463E60DFE70136E6E70224DEE700BFA9
:101BE000003C0240681802202DE9F0474E6A36B1E9
:101BF000B2F1406F03D08B6A0468013B2361D1F8D6
:101C00001890D1E90775B9F1000F4FD04B6946EA3A
:101C100009090068D1F800A04FEA834CD1F834E0FC
:101C200049EA0209D1E90B4835B38B6849EA050551
:101C30000E69C3619FB14AEA07032343CC6843EAB4
:101C4000080343EA0E033343234343EA0C032B43C5
:101C5000B2F1406F43610DD04B6883610AE04AEAFC
:101C6000040343EA080343EA0E03334343EA0C0345
:101C70002B434361BDE8F0876FB14AEA0703234372
:101C8000CC6843EA080343EA0E03234343EA0C0308
:101C900043EA0903DCE74AEA040343EA080343EAA8
:101CA0000E0343EA0C0343EA0903E2E765B3046861
:101CB0008B680869E36146EA05034E6943EA020559
:101CC000D1F834C0B604D1E90B83A7B13843B2F1DF
:101CD000406F40EA080043EA0003C86843EA0C0387
:101CE00043EA000343EA060343EA05036361C1D004
:101CF0004B68A361BEE740EA0800034343EA0C03D4
:101D000033432B436361B5E77FB146EA0703CC6AEF
:101D10000068134323430C6B23434C6B2343CC6871
:101D200023434C6943EA844392E7002EA2D0CB6A56
:101D3000006833430E6B1A434B6932434E6B324398
:101D400042EA8342426195E72DE9F041DDF81880CF
:101D500004460E4615461F4622689368334214BF58
:101D600001230023AB4201D100200DE0B8F1FF3F79
:101D7000F3D0B8F1000F09D10423012084F84130D9
:101D8000636C43F001036364BDE8F08101F074FB10
:101D9000C01B4045E0D9EFE72DE9F043044685B08C
:101DA0001746894601F068FB94F840200346012A53
:101DB00033D00122022684F8402094F84120012AE1
:101DC0005FFA82F827D10022039020212046626426
:101DD000009784F84160FFF7B7FF0546A0B90246B7
:101DE00049462046FFF700FFD9F82420039B4AB953
:101DF0004246314620460097FFF7A6FF054618B930
:101E00002368DE6084F84180002384F8403028464F
:101E100005B0BDE8F0833546F6E70225F7E7F0B5F3
:101E2000044685B016460F4601F026FB94F8402084
:101E300003462568012A48D0012284F8402094F8FE
:101E40004120012AD0B23ED100226264002F35D059
:101E5000122284F841202A690132E2622A6967620B
:101E60000132A2626A6922F040626A61E26A8AB95A
:101E70000122022120460096FFF766FF10B9236871
:101E80000222DA60012384F84130002384F84030D4
:101E900005B0F0BD01220421204600960393FFF710
:101EA00053FF0028EED1626A039B511C61621278D5
:101EB00085F82020E26A013AE262D7E7636C43F0DA
:101EC00008036364E1E70220DFE70220E0E7F0B502
:101ED000044685B016460F4601F0CEFA2568034643
:101EE000D5F818C094F84020012A4CD0012284F87B
:101EF000402094F84120012AD0B242D100226264ED
:101F0000002F39D0222284F841202A690132A263AD
:101F10002A69276301326263696921F0406141F0F7
:101F200080616961C5F818C0A26B8AB901220221DB
:101F300020460096FFF708FF10B923680222DA60F6
:101F4000012384F84130002384F8403005B0F0BD0F
:101F500001220621204600960393FFF7F5FE002894
:101F6000EED1226B039B511C216395F82010117058
:101F7000A26B013AA263D7E7636C43F00803636482
:101F8000E1E70220DFE70220E0E72DE9FF41044618
:101F900015461E46884601F06FFA94F84020034625
:101FA000012A40D0012284F8402094F84120012ADF
:101FB000D7B236D1422100220390204662640096B7
:101FC00084F841102021FFF7BFFE20BB21682A685A
:101FD00028698A626A684A62AA68CA620A6822F440
:101FE00040020243204642F480020A604146EA6809
:101FF000C8F828204FF00062FFF7F6FD039B3A4631
:10200000082120460096FFF79FFE20B9236808228A
:10201000DA6084F84170002384F8403004B0BDE8F1
:10202000F0810220F7E70220F8E71FB5044601F02F
:1020300023FA034694F8412012F0020031D0002226
:1020400084F840202268116849070DD51168E06BBB
:1020500021F0040103931160FFF7DFFB039B18B12C
:10206000626C42F0040262642168204603930A68AD
:1020700042F002020A600221A26C00920122FFF7E4
:1020800063FE039B68B922680221D1602021A26C03
:10209000009202462046FFF757FE10B9012384F84C
:1020A000413004B010BD10B50446032101F028FAF8
:1020B000E3681B1A5842584110BD0000F8B50446A9
:1020C0000D46FFF7F0FF30B9114B04221A70104B88
:1020D0001B782B70F8BD23460E4E04F110071868CC
:1020E000083353F8041C3246BB4203C21646F6D1ED
:1020F0002346094C1868083353F8041C2246BB4297
:1021000003C21446F6D10120014B1870DFE700BF6F
:1021100084180220601C0220701C02202DE9F0416E
:10212000154D002680462E7001F0DAF9012804468C
:1021300006D02B78344688F800302046BDE8F08180
:102140000E4E3046FFF7AFFF98B906F1100738463C
:10215000FFF7A9FF30B9042304462B702B7888F8C9
:102160000030EAE797E80F0086E80F0002232B70A3
:10217000F4E72C70F2E700BF84180220601C0220F4
:102180007FB50A4B187868B10023032102A8049395
:10219000CDE9023301F0B4F90DF10701059002A871
:1021A000FFF78CFF07B05DF804FB00BF8418022026
:1021B00070B50D46044650B1E1B10F48FFF773FF0B
:1021C00030B90E4B04221A700C4B1B782B7070BD6B
:1021D000094E234606F110043246083303CAA242D0
:1021E00043F8080C43F8041C1646F5D10120034BB4
:1021F0001870E9E70846EAE7601C0220841802200C
:1022000010B109B1FFF75ABF0020704734282DE9FB
:10221000FF410D4642D9982800F2B0807F2805D8AA
:102220002C78002C40F04A8301235DE28038182886
:10223000F6D801A353F820F06D260008AD2600085B
:102240002122000821220008212200082122000862
:102250002122000821220008212200082122000852
:102260002122000821220008212200082122000842
:10227000212200082122000845270008192700080C
:10228000ED260008592700086B2700087B27000867
:102290008D2700089D270008AF2700083428BFD8E5
:1022A00001A353F820F000BF93230008F323000894
:1022B000212400087B240008B9240008E524000834
:1022C0003F2500087D250008A925000803260008F1
:1022D00021220008212200082122000821220008D2
:1022E000212200082122000841260008212200089E
:1022F00021220008212200082122000821220008B2
:1023000021220008212200082122000821220008A1
:102310002122000821220008212200082122000891
:102320002122000821220008D3270008F9270008ED
:102330002328000821220008212200082122000869
:102340002122000821220008212200082122000861
:102350002122000821220008212200082122000851
:1023600021220008212200084D28000877280008B3
:10237000A5280008AD280008B5280008B0F5807F22
:1023800000F01D8240F2011398427FF449AF01240E
:1023900029E0C54B1B78012B3FF442AF02231468A0
:1023A0000B7001F089F800283FF43AAF204601F0A5
:1023B0005DF8FEF759FD0DF10F00FFF7AFFE0128A4
:1023C000044614D0FFF7DCFE012804460CBF0423AA
:1023D00003232B70FEF706FE012801D007232B7084
:1023E000002C3FF41DAF204604B0BDE8F08100236F
:1023F000EFE7146801F060F800283FF411AF802186
:10240000204601F095F800283FF40AAFA64B1B7850
:10241000012B3FF405AF2046FEF7FCFD0446DFE745
:102420005468002C7FF7FCAE176821463846D2E985
:10243000028601F07DF800283FF4F2AE0421304618
:1024400001F076F800283FF4EBAE3146404601F04B
:102450006FF800283FF4E4AE01F02EF800283FF4B6
:10246000DFAE914B1B78012B3FF4DAAE3346424688
:1024700021463846FEF7E8FDD0E7D2E900460421C0
:10248000304601F055F800283FF4CAAE102120462E
:1024900001F04EF800283FF4C3AE01F00DF800281B
:1024A0003FF4BEAE804B1B78012B3FF4B9AE3146F2
:1024B0002046FEF7E1FDB1E7146800F0FDFF0028BB
:1024C0003FF4AEAE8021204601F032F800283FF400
:1024D000A7AE754B1B78012B3FF4A2AE2046FEF74A
:1024E000E9FD9BE7D2E90064D2E9027800F0E4FF5D
:1024F00000283FF495AE002C7FF792AE214630467F
:1025000001F016F800283FF48BAE0421404601F09C
:102510000FF800283FF484AE2146384601F008F851
:1025200000283FF47DAE604B1B78012B3FF478AE62
:1025300043463A4621463046FEF7D8FD6EE7D2E9DB
:10254000004600F0B9FF00283FF46AAE042130468F
:1025500000F0EEFF00283FF463AE1021204600F0AB
:10256000E7FF00283FF45CAE4F4B1B78012B3FF494
:1025700057AE31462046FEF7D3FD4FE7146800F012
:102580009BFF00283FF44CAE8021204600F0D0FF96
:1025900000283FF445AE444B1B78012B3FF440AE7E
:1025A0002046FEF7DBFD39E7D2E90064D2E9027884
:1025B00000F082FF00283FF433AE002C7FF730AEEE
:1025C0002146304600F0B4FF00283FF429AE042134
:1025D000404600F0ADFF00283FF422AE21463846C9
:1025E00000F0A6FF00283FF41BAE2F4B1B78012BF9
:1025F0003FF416AE43463A4621463046FEF7C0FD4C
:102600000CE7D2E9004600F057FF00283FF408AE7F
:102610000421304600F08CFF00283FF401AE102169
:10262000204600F085FF00283FF4FAAD1E4B1B78D2
:10263000012B3FF4F5AD31462046FEF7ADFDEDE64A
:10264000146800F039FF00283FF4EAAD80212046ED
:1026500000F06EFF00283FF4E3AD134B1B78012B15
:102660003FF4DEAD2046FEF7A3FDD7E60E4B1B7808
:10267000012B3FF4D5AD146800F01EFF00283FF495
:10268000CFAD1021204600F053FF00283FF4C8AD25
:102690000DF10F012046FFF78BFD0128044622D0E3
:1026A00003232B70BCE500BF85180220844B1B78E8
:1026B000012B3FF4B5AD146800F0FEFE00283FF496
:1026C000AFAD1021204600F033FF00283FF4A8AD45
:1026D0000321204600F014FF0DF10F01E0602046B9
:1026E000FFF78EFDD9E700232B707CE6744B1B7837
:1026F000012B3FF495ADD2E9004692682046114681
:10270000019200F015FF019A00283FF489AD31468F
:102710002046FEF71DFC81E6694B1B78012B3FF438
:102720007FADD2E90064926820461146019200F024
:10273000FFFE019A00283FF473AD21463046FEF7B4
:10274000E7FB6BE65E4B1B78012B3FF469ADD2E9EA
:102750000001FEF78FFB61E6594B1B78012B3FF41C
:102760005FAD1068FEF74CFB58E6554B1B78012B0C
:102770003FF456ADFEF75AFB50E6514B1B78012B48
:102780003FF44EAD1068FEF7FDFA47E64C4B1B7860
:10279000012B3FF445ADFEF709FB3FE6484B1B78A4
:1027A000012B3FF43DAD1068FEF708FB36E6444BC5
:1027B0001B78012B3FF434ADFEF718FB2EE6404C9E
:1027C0002378012B3FF42CAD00F0D6FE01202070C1
:1027D000DDE514682821204600F09AFE00283FF429
:1027E0001FAD2821204600F0B5FE01283FF418ADAA
:1027F000204600F0F5FD11E6D2E9004120460191A6
:1028000000F086FE019900283FF40AAD204600F052
:10281000A1FE01283FF404AD0199204600F006FE18
:10282000FCE5D2E900412046019100F071FE0199DA
:1028300000283FF4F5AC204600F08CFE01283FF460
:10284000EFAC0199204600F0FFFDE7E5D2E9006416
:102850000821204600F05CFE00283FF4E1AC08218E
:10286000204600F077FE01283FF4DAAC21463046DE
:1028700000F0BCFBD2E5D2E90074966820463146F0
:1028800000F046FE00283FF4CBAC3146204600F075
:1028900061FE01283FF4C4AC32462146384600F0C0
:1028A000D9FBBBE5106800F053FDB7E5106800F0F8
:1028B0007DFDB3E5106800F067FDAFE5002492E50B
:1028C00085180220074B00221A80DA6083F8232043
:1028D0001A84A3F8242183F82621C3E90122C3E93D
:1028E000062270478818022012B9016000687047FC
:1028F000022A04BF83680360F8E70068704700009D
:102900000A4B1A78032A0AD85AB10122C270DA692E
:1029100042609A69826093F8223083707047042A7B
:1029200001D00022F2E70222F0E700BF881802205F
:1029300008B5044B83F8221018B1FFF7E1FF01231B
:10294000437008BD8818022008B50B4B1A78023A6C
:10295000022A0CD8D9685868802988BF8021FEF7E0
:1029600089FA012803D00020FFF7ACFF08BD012041
:10297000FFF7A8FFFAE700BF8818022038B502FB6E
:1029800001F40146D3E900352246E818FEF7C0FA03
:1029900001280ABF044A4FF0FF345369204604BFA0
:1029A0001B19536138BD00BF8818022010B502FB07
:1029B00001F4D3E9003122461944FEF7C9FA01288F
:1029C0000CBF20464FF0FF3010BDF8B51C46054641
:1029D0000E461746836B0022D4E904019847236909
:1029E0006D6B3A4601213046A8476369184460611F
:1029F000F8BD2DE9F041556907460E461446002DF5
:102A000029DB53689268B5FBF3F890451AD0511C46
:102A100010D053432168E268304663612346FFF7D4
:102A2000D4FF326C32B16423706C6B4393FBF0F0D3
:102A3000C0B2904762680021206803F0CFFE63684F
:102A4000C4E902836268B5FBF2F302FB1353226808
:102A50000135D7546561BDE8F081000010B5044B25
:102A6000012483F8224010B1FFF74AFF047010BD23
:102A7000881802204FF0FF338262012201618360D7
:102A80000362002382644361C362A0F85830036488
:102A9000A0F84C30C0E91733C0E91433184670472A
:102AA000A239042916D8DFE801F0120F0A08030042
:102AB0000B2380F84C30002070470723F9E740F6DD
:102AC0000203A0F84C30F6E740F60213F9E740F6AF
:102AD0000223F6E74FF0FF30704773B5C56A04462E
:102AE000C16900F11803026AB5FBF1F6964201FBD9
:102AF000165509D0561C07D05143426A0193C16252
:102B00008169FFF762FF019B2046D4E907124A431F
:102B1000A169E2622A46FFF758FF236C0BB16420DB
:102B200098470023A36402B070BD836C2DE9F04F79
:102B3000012B85B004460E460392029300F02981D2
:102B40004FF0FF35284605B0BDE8F08F0C2B18D8A4
:102B5000DFE813F00D0023002C003C005300680058
:102B60007000C8000E0185001901C800DF00725D09
:102B70006B1CA72AE4D1029A1D4684F84C2094F8D5
:102B80004C30039AAA42E1DC092B02D1236D002BC1
:102B900065DCE36D2B44E365D4E7715D20466A1C78
:102BA000FFF77EFF051ECDDB1546E8E7735D6A1C67
:102BB000FB2B07D80133DBB2236594F84D3084F842
:102BC0004C30F1E7C4E914330323F8E7626D691C64
:102BD000735DFC2A0BD1226D0133C4F85480134479
:102BE000236594F84D3084F84C300D46C7E784F8DF
:102BF0005830042384F84C30F7E7616D6A1C735D2C
:102C0000FD290BD194F85810C4F8548003EB01232C
:102C1000236594F84D3084F84C30C5E784F859307A
:102C20000523CCE7735D84F85A30062384F84C30D2
:102C30000135A4E794F8593094F858201B0403EBAD
:102C4000026394F85A2003EB0223725DC4F85480A7
:102C50001344236594F84D3084F84C30E8E7236D35
:102C6000002B0CDD6369002B01930FDA4FF0FF306E
:102C70004A462146FFF7BDFE236D013B2365236DC8
:102C8000002B7FF47CAFA4F84C3078E7019BD4F89C
:102C900004A0B3FBFAFBA3689B4513D023680BFB8E
:102CA0000AF1002220691F466161A36B98472369DE
:102CB000384652460121276BB84763690344C4E98B
:102CC00002B063616268019B0199B3FBF2F302FBFE
:102CD0001313E2689342C9D22268D05C0B460133D9
:102CE0006361C5E7705D6F1CA7280CD04A4621467A
:102CF000FFF77FFE94F84C300B2B02D16369013350
:102D000063613D463BE784F84D300C2384F84C303A
:102D1000F7E76F1C755DA72D0ED14A462146284660
:102D2000FFF767FE94F84D200B2A02D16369013347
:102D3000636184F84C20E4E7A5F1A203042B06D8D4
:102D400029462046FFF7ACFE051EDADAFAE64A46C7
:102D50002146A720FFF74DFE4A4621462846FFF7A9
:102D600048FE94F84D200B2AE3D163690233DFE774
:102D7000226D002A04DD636913446361C4F8508046
:102D8000A4F84C80FBE6226D002AF9DD63699B1AEA
:102D9000F3E7002500F11809A846F0E62DE9F04F09
:102DA0008C4C0223A5B0074694F826810D461646A2
:102DB0002370B8F1000F40F09780E269A3689A424F
:102DC00007D29B1A8B4228BF0B461A44CD1A1F44C8
:102DD000E261002D4AD0E0692A466368394618440A
:102DE000FEF796F8012840F088806369E1692B447A
:102DF00029446361E16139E0B4F8240108B90F2D79
:102E00002BD8C0F1100207EB08014844AA4228BFA2
:102E10002A46019203F0D4FC019AB4F82431AD1A89
:102E2000904413449BB2102BA4F8243113D10023F7
:102E30004846A4F8243103AB04AA1021CDF80CA015
:102E4000FEF754F901283BD0152130464FF0000819
:102E5000FFF76EFD55E00F2D06D907EB0800103D7A
:102E600008F110080028E6D1002DC5D1D4E90632BA
:102E70009A42C0F0AB8094F8263113B15648FFF760
:102E80002CFE03230027802261685448237084F8B5
:102E90002370FEF75DF8012840F082804F48FEF76E
:102EA0005DF901287CD1FDF781FF4C48FDF7A8FFB3
:102EB000012805465DD14FF08009DFF824A141E0EB
:102EC000D4E9063204A958469A1A102AA8BF10223B
:102ED0000192FFF72AFE0028019A01DA1421B4E7D3
:102EE000E3691A44E261BFE74FF000084FF0100AAF
:102EF00004F5A07B04F12409B6E70B213046FFF767
:102F000017FD404625B0BDE8F08FA3EB070804A8E5
:102F1000CDF80C90B8F1800FD4E9011228BF4FF022
:102F20008008114442463944FEF712F8012805464C
:102F300006D103AB5246414604A8FEF721F90546E7
:102F400065B380372369BB42DFD8012D11D18023BF
:102F500003A923480393FEF71FF90128054608D16A
:102F60001F492022A1F1640003F01AFC08B984F87B
:102F70002350FDF75BFF012D12D194F82380B8F1A7
:102F8000000F21D0228C4FF6FF739A4219D01348BC
:102F9000FDF7F6FF012805D0162156E7FDF746FF9D
:102FA0000F2152E7238C63B9BFF34F8F0D490E4BAE
:102FB000CA6802F4E0621343CB60BFF34F8F00BFD7
:102FC000FDE7042323709CE70E213EE74FF0010844
:102FD00097E700BF88180220C8190220AC18022009
:102FE0002C19022000ED00E00400FA0570B505463A
:102FF0000C4631B9022128460024FFF799FC2046EF
:1030000070BD0B78012B01D90221F5E74B884FF6F3
:10301000FC72023B9BB29342ECD9FFF795FC012670
:103020000B4B00221E7083F8222022785A7062888F
:103030001A84FDF719FF044620B917212846FFF727
:1030400077FCDCE728463446FFF708FDD7E700BFEA
:10305000881802202DE9F74F044616460F4629B975
:103060000221FFF765FC4FF0000A05E042B94FF07E
:10307000010A2046FFF7F2FC504603B0BDE8F08F8E
:10308000DFF8C8B29BF80020012A04D0022A00F021
:10309000378111214CE0DBF81CA0BAF1000F01D000
:1030A0001221DEE7BBF8240108B9FF2E20D8C0F5B5
:1030B0008079984D3946B145284428BFB1464A46E3
:1030C00003F07EFBBBF82421A6EB09034A440093DE
:1030D000ABF82421BBF82421B2F5807F0CD0002A64
:1030E000C5D13D4600F0FCF940B9FFF72DFCBAE729
:1030F000D146CDF800A0EDE7864DF3E72846FEF770
:1031000057F8012812D100228BF826216A88D306AD
:1031100011D4A846804A1046FEF74AF801287E4A94
:103120000ED09BF8262182B1042100E00321204625
:10313000FFF7FEFBD9E705F180088BF82601E9E7E8
:103140009BF82611D2F814A0E1B9D8F81420524502
:103150001BD3D2B1012271498BF801204FF4806258
:10316000CBF80410CBF808206D4A531AA2F5806200
:10317000521AD8F8181001939142CBF80C301CD990
:103180000721D4E76969514501D00C21CFE71C32F2
:1031900005F11C0105F13C0012F801EB11F801CB1F
:1031A000E64501D00621C2E78842F5D14046FDF749
:1031B000FFFF0128C9D00521B9E700F091F908B94E
:1031C0001021B4E79BF8262182B12846FDF772FF53
:1031D0000028F5D05048FDF7D5FD824630B91821BA
:1031E0002046FFF7A5FBFFF7AFFB45E7DBF80C1028
:1031F000DBF80400FDF73EFE012801D00A2196E726
:1032000080224146DBF80400FDF782FE012801D050
:103210000B218CE79BF82611002956D04046FDF77C
:103220000DFE824608B91921DAE75C2200213D48EB
:103230004FF0000A03F0D2FA3B484FF480723B4B48
:10324000CBF840018118CBF84421CBF828A1CBE979
:103250005612374A3049CBF87021364ACBF87421E0
:10326000354ACBF87821354ACBF87C2101F58062CC
:10327000CBF82C21324A1A44019B521A3149CBF81F
:103280003C31521AA0F17C01CBF830212E4ACBE917
:103290004DA2A0F170026438FFF7ECFBAA69CBE9FC
:1032A000062AD8F81820CBE9042A0022009B934272
:1032B000ABF8242117DD2246194607EB0900FFF77A
:1032C0006DFD00287FF4D3AE0FE7AA6902F5806296
:1032D000CBF818204FF48072CBF81C20D8F81820B7
:1032E000CBE90421E1E7B6F5807F05D92246A6F5B2
:1032F000807105F58070E2E702228BF80020B6E6C7
:1033000000F0EEF800283FF4F0AE22463146384691
:10331000D5E700BFAC180220000004080000409070
:1033200000009C90D01902202C1A022001002008D5
:10333000AD2900087D290008E9280008FB280008BD
:10334000FFFF3F900000009000044090881802208A
:1033500038B50546FDF76AFD802209490948FDF7A1
:10336000F7FD0128044603D10648FDF709FE04468F
:103370001CB916212846FFF7DBFA204638BD00BFEE
:1033800000004090AC18022010B5044618B1FFF7B9
:10339000B7FA01238370FFF7D7FA18B924B10A23CB
:1033A000A37010BD0120FCE72046FAE7014608B5EE
:1033B00038B1FFF7A5FA094A92F8233013B101207A
:1033C000087008BD92F82200012802D90120487037
:1033D000F7E701D18B70F4E70120F2E788180220AB
:1033E00070B50446A0B0E0B180220F496846FDF7F1
:1033F000AFFD034690B1059A07AD08340FAE44F80F
:10340000082C069A44F8042C2A46083403CAB2420F
:1034100044F8080C44F8041C1546F5D1184620B0B1
:1034200070BD0346FAE700BF000004080A4608B56D
:1034300030B17E2904D8034903F0C2F9012008BD48
:103440000020FCE78005000838B5054640B141B1D1
:103450004C1E0549224603F0C9F9002301202B55D3
:1034600038BD0846FCE700BF37690008014B18600B
:10347000704700BF2C1C02204FF0E0200D4A8169EC
:1034800010B5D2E901348B42234410D310684FF4B5
:103490007A745B1AB0FBF4F09842936004D2D3685C
:1034A000002001339060D360D068516010BD406946
:1034B0000344EBE72C1C022008B507480023074A09
:1034C00083800260C0E9053303230362FEF714F929
:1034D000B0FA80F0400908BD3C1C022000300240D8
:1034E000064B82B01A6B42F480521A631B6B03F4D2
:1034F00080530193019B02B0FFF7DEBF003802400A
:103500000A4601460148FEF731B900BF3C1C0220C3
:1035100051B1B0F1005F07D3013908440349884233
:103520008CBF00200120704700207047FFFF07205C
:1035300051B10139054B0144994205D804498842EB
:1035400034BF00200120704700207047FFBF0720D4
:103550000027022051B10139054B0144994205D899
:103560000449884234BF0020012070470020704782
:10357000FF260220000002207047FDF79BBFFDF7E9
:10358000ABBFFDF7E5BFFEF72FB810B5044686B018
:1035900040B101A8FEF756F8029B2360019B6360CF
:1035A00006B010BD0120FBE770B5921000239342D6
:1035B00005DA50F8234041F823400133F7E7062AA3
:1035C0002ED0082A5CD0042A40F0A3800022514863
:1035D000CB6815580868DCB245404F48065D1C0EA4
:1035E0000432045D44EA0624C3F30746282A865DB4
:1035F00044EA0664C3F30726805D44EA004485EA92
:1036000004004C68086180EA04008C68486180EA24
:10361000040080EA03038861CB617AD01031D6E7D9
:1036200000223C4B4869013203EB8203C5B253F8D8
:10363000044C0B685C40384B5E5D050E5D5D45EAF1
:103640000625C0F30746C0F307209E5D185C45EAD7
:10365000066545EA004084EA00038B6101200B46C1
:103660005D689C69032885EA0404DC6101D1072AAE
:103670004FDC0130062803F10403F1D11831D0E703
:103680000024244BCA69E5580B68D0B25D40224B38
:103690001E5C100E0434185C40EA0620C2F3074694
:1036A0001C2C9E5D40EA0660C2F307269E5D40EA40
:1036B000064085EA00004D68086280EA05008D68D2
:1036C000486280EA0500CD68886280EA0500C86229
:1036D0001FD0050E20315E5DC5B25D5D45EA066511
:1036E000C0F30746C0F307209E5D1B5C51F8100C29
:1036F00045EA064545EA0323434051F80C0C0B61AB
:10370000434051F8080C4B6143405A408B61CA61F9
:10371000B7E770BD40690008687300082DE9F04FF5
:10372000C5B0002303930B681BBA04934B681BBA04
:1037300005938B681BBA0693CB681BBA07930B697A
:103740001BBA08934B691BBA09938B691BBA0A937E
:10375000CB691BBA0B930B6A1BBA0C934B6A1BBA4F
:103760000D938B6A1BBA0E93CB6A1BBA0F930B6B2C
:103770001BBA10934B6B1BBA11938B6B1BBA129332
:10378000CB6B1BBA139342AE12AB196853F8385C7B
:1037900053F8144C53F8342C2C448D0A85EA7145A7
:1037A00085EAF141D70853F8105C214487EAF21703
:1037B0005C6887EAB24739442A44A50A996085EAD9
:1037C000744553F8301C85EAF4442244CC0884EA5A
:1037D000F11484EAB1411144D9600833B342D4D121
:1037E000664E0368026944684169D0F808A085699B
:1037F000D0F80C80D0F81C9001273760366803960B
:103800005F4E37680397039F013727D1039F3760C7
:1038100036680396039E002E38D00368594E594FE0
:10382000C1698569C268D0F81490D0F808B0D0F8A2
:1038300004C05E40036906605F4082EA050487EACF
:1038400001038BEA090A076187EA0C0872408BEAD8
:1038500001018CEA050586EA090917E0494F494E3E
:103860005F40564088EA050C8AEA010B89EA0A0A99
:1038700086EA090387EA0802654087EA010986EAC1
:103880000408514607600661DA4664464FF0000CB2
:103890000CF11007DFF8F0B06E46BE595CF80B7003
:1038A00037444FEAB21686EAF22686EA7266374451
:1038B00085EA010616406E403E44B14444EA0306E0
:1038C00006EA0A0604EA03073E434FEAB30787EA1B
:1038D000733787EAB3573E4404AFE3446744DBF8E9
:1038E00004B07F68C844BB4481EA020708EA0707BE
:1038F0005D444F403D444FEAB8174E4487EAF827ED
:1039000087EA786746EA030B3D440BEA040B06EAB4
:1039100003074BEA070B4FEAB60787EA763787EAD1
:10392000B6570CF1080CBB44BCF5807FAA44AB44ED
:1039300008D08946154641465246A0469A46344626
:103940005B46A5E7456807682E44856846602B44BA
:103950008360C3681C440369C460534403614369C2
:103960004344436183691A44C36982615F441944D3
:103970000760C16145B0BDE8F08F00BF083002406C
:1039800000300240F0F0A5A5686D000830B50023B6
:103990009510AB4206DA50F8234024BA41F8234090
:1039A0000133F6E70846BDE83040FFF7FDBD0000F3
:1039B0002DE9F74FDB1003F1030900230193A54B19
:1039C00001241C601B680193A34B1C680194019C9B
:1039D00001348B4617D1019C1C601B680193019E2A
:1039E000146803685768456856B984EA030C83680D
:1039F0009468C0685C40D3686F4083EA00080BE0BD
:103A000087EA050C05E05468436884EA030C1368F0
:103A100004685C40A0462746904B4FEA1C605FFA62
:103A200088F553F820601069704053F82560C7F39B
:103A3000074580EA366053F8256080EA3626C4F3ED
:103A400007205FFA87FA53F8200053F82AA086EA85
:103A50003046380EC7F3072753F8205050696840A6
:103A60005FFA8CF509F1FF3953F8255080EA35608B
:103A7000C4F30745B9F1000F53F8255080EA35200B
:103A8000C8F3072502F1200253F8255080EA35409B
:103A90004FEA1465E4B253F8251052F8085C53F865
:103AA000244081EA050181EA3A65C8F3074A4FEAF2
:103AB000186853F82AA052F8041C53F8288085EAA5
:103AC0003A25CCF3072ACCF3074C88EA010888EAA8
:103AD000346853F82C4053F82AA088EA342853F865
:103AE000274085EA3A4588EA34484FEA16645BDDA8
:103AF00053F82470146891687C405FFA88F75FFA85
:103B000080FA53F8277053F82AA084EA3764C0F388
:103B1000074753F8277084EA372CC5F3072453F876
:103B200024408CEA344C040EC0F3072053F8247070
:103B300054687C40F7B253F8277084EA3764C5F3C1
:103B4000074753F8277084EA3727C8F3072453F848
:103B5000244087EA34472C0EEDB253F8244053F842
:103B600025504C4084EA3A64C8F3074A4FEA186883
:103B700053F82AA053F82880D16884EA3A24C6F37F
:103B8000072AC6F3074688EA010888EA356853F829
:103B9000265053F82AA053F8203088EA352884EAC2
:103BA0003A4488EA334837E72D4B1F5D5FFA88F4C3
:103BB0001C5D44EA0767C0F307441C5D47EA0447FD
:103BC000C5F307241C5D47EA042714687C40CBF842
:103BD0000040040E1F5DF4B21C5D44EA0767C5F3A4
:103BE00007441C5D47EA0447C8F307241C5D47EA05
:103BF000042754687C40CBF804402C0EEDB21F5DC6
:103C0000C4B2C0F307201C5D44EA0767C8F3074449
:103C10004FEA18681C5D47EA0447C6F30724C6F359
:103C200007461C5D47EA042794687C40CBF80840AF
:103C300013F808705C5D9D5D1B5CD26844EA076404
:103C400044EA054444EA03235340CBF80C3003B064
:103C5000BDE8F08F0830024000300240686E000876
:103C600068730008F8B515460C46FFF78FFEEA109A
:103C700003325200012595426CDA54F8101F364881
:103C8000364BCEB20135865D53F826700E0E865D3A
:103C900053F8266086EA3766C1F30747C1F3072168
:103CA000C75D415C53F8277053F8211086EA372628
:103CB00086EA314121606168CEB2865D53F8267094
:103CC0000E0E865D53F8266086EA3766C1F3074715
:103CD000C1F30721C75D415C53F8277053F82110E9
:103CE00086EA372686EA31416160A168CEB2865DF8
:103CF00053F826700E0E865D53F8266086EA376606
:103D0000C1F30747C1F30721C75D415C53F8277032
:103D100053F8211086EA372686EA3141A160E1682E
:103D2000CEB2865D53F826700E0E865D53F826607F
:103D300086EA3766C1F30747C1F30721C75D415CD7
:103D400053F8277053F8213086EA372686EA334342
:103D5000E36090E7F8BD00BF687300086869000879
:103D60002DE9F0470F460446114600285ED0002F8B
:103D70005CD01AB903F00602022A57D1626A22F017
:103D80000800102801D0202A4CD103F0060CBCF109
:103D9000020F03D0206901380F2843D82079E16051
:103DA00020F00605BCF1020F257103D110F00105CA
:103DB00026D031E00026D4F810906661A661E66155
:103DC00026624E45F2DA1B4D11F806A04FF00408AA
:103DD000354096FBF8F8002D04EB880803DA013D26
:103DE00065F003050135C5F10305ED000AFA05FA92
:103DF000D8F8145045EA0A0AC8F814A00136E0E7DA
:103E000013F0010FA760384604F1280102D0BCF17D
:103E1000060F04D1FFF7BAFD0020BDE8F087FFF7D9
:103E200021FFF9E740F61F40BDE8F0874FF44260FC
:103E3000BDE8F087030000802DE9F74F00250195CC
:103E4000A64D01262E602D680195A54D2E68019680
:103E5000DB10019E03F103094FEA491301368B463B
:103E600002EB030417D1019E2E602D680195019E7F
:103E7000D25867680368456856B982EA030C8368BC
:103E8000A268C0685A40E3686F4083EA00080BE00C
:103E900087EA050C05E066684568D258036886EA3B
:103EA000050C5A40904617468E4B203C4FEA1C604A
:103EB000FDB253F820602069704053F82560C8F3C4
:103EC000074580EA366053F8256080EA3626C2F35B
:103ED00007205FFA88FA53F8200053F82AA086EAF0
:103EE0003046380E09F1FF3953F8205060696840B8
:103EF000D5B2B9F1000F53F8255080EA3560CCF304
:103F0000074553F8255080EA3520C8F307254FEAC6
:103F1000186853F8255053F8288080EA35404FEA56
:103F20001265C2F3074253F82510A56953F8222001
:103F300081EA050181EA3A65C7F3074AE16953F866
:103F40002AA085EA3A25CCF3072A5FFA8CFC88EA96
:103F5000010853F82CC053F82AA0C7F3072788EAB2
:103F60003C6888EA322853F8272085EA3A4588EAEF
:103F700032484FEA16625ADD53F822702268A1686F
:103F80007A40C7B25FFA88FA53F8277053F82AA02C
:103F900082EA3762C8F3074753F8277082EA372C62
:103FA000C5F3072253F822208CEA324C020E53F854
:103FB000227062687A40EFB253F8277082EA376263
:103FC000C6F3074753F8277082EA3727C8F307225A
:103FD0004FEA186853F8222053F8288087EA3247BE
:103FE0002A0EC5F3074553F8222053F825504A40BE
:103FF00082EA3A62C0F3074AE16853F82AA082EAEB
:104000003A22C6F3072AF6B2C0F3072053F8266017
:1040100053F82AA053F8203088EA010888EA366865
:1040200088EA352882EA3A4288EA33483CE72E4B50
:104030009F5CC2B29A5C42EA0767C8F307429A5C87
:1040400047EA0247C5F307229A5C47EA022722683B
:104050007A40CBF80020020E9F5CEAB29A5C42EAFA
:104060000767C6F307429A5C47EA0247C8F307228C
:104070009A5C47EA022762687A40CBF804202A0E4D
:10408000C5F307459F5C5D5D5FFA88F24FEA1868EB
:104090009A5C42EA0767C0F30742C0F307209A5CC4
:1040A00047EA0247C6F30722F6B29A5C47EA0227BC
:1040B000A2687A40CBF8082013F808709A5D1B5C60
:1040C00042EA076242EA054242EA0323E2685340B9
:1040D000CBF80C3003B0BDE8F08F00BF08300240D1
:1040E0000030024068690008687200080423FFF786
:1040F00037BE2DE9F04F884687B016461F46044666
:10410000002800F0B880002900F0B580002B00F0F6
:10411000B2801098002800F0AE800F2A40F3AE80E5
:10412000237913F0060F40F0AC8032071DBF43F037
:104130000403A6F110092371B14600254D4522DA8A
:10414000002308EB0502E118D258496912BA4A4027
:1041500003F1080A69460433102B4AF80120F0D114
:10416000636A02A804F1140104F12802FFF720FC9D
:104170000023E21851697A1909BAD1500433102B7F
:10418000F7D11035DAE7B54203DB1098066000205E
:1041900079E0C5EB060B042100239BFBF1F11A46E5
:1041A0008A4215DA08EB050003F1080AC05890FAB4
:1041B00080FEE018E94640698EEA000E4AF809E000
:1041C00007EB050E00BA4EF8030001320433E7E7AF
:1041D00021EAE1718B0004EB030E06A81844DEF817
:1041E000142040F8102CABEB810B03EB050C0022E4
:1041F0005A451EDA06A808EB0C0A00EB81001AF8F3
:1042000002A001904FEAC20950F8100CC9F1180938
:104210000AFA09FA8AEA000A019840F810ACDEF8B6
:10422000140007EB0C0A20FA09F00AF80200013228
:10423000DEE702AA134401310022032902F104023D
:1042400005DC0EEB0200013140699850F5E7636A26
:1042500002A804F1140104F12802FFF7A9FB0023CE
:10426000E21851697A191A44043309BA102B42F83A
:10427000101CF5D189E74FF4426004E040F61D4080
:1042800001E040F61E4007B0BDE8F08F38B132B112
:10429000037943F0020303710020106070474FF46C
:1042A000426070470523FFF75BBD2DE9F04F8DB0ED
:1042B0000DF1200A05468846164650460021102278
:1042C0001F4602F08BFA002D00F0F680B8F1000FC7
:1042D00000F0F280002F00F0EF801698002800F028
:1042E000EB800F2E40F3EB802B7913F0060F40F09C
:1042F000E98032071DBF43F00403A6F120092B71AA
:10430000B14600244C4528DA002308EB040203F1EF
:10431000100BD2586946043312BA102B4BF8012007
:10432000F3D16B6A04A8514605F12802FFF784FD1A
:104330000023E9185AF8032048690DF1100C424097
:104340005CF80300486139194AF8032012BACA50D0
:104350000433102BEDD11034D4E7B44203DB1698AC
:1043600006600020B0E0002308EB040903F1100B05
:1043700059F803206946043312BA102B4BF8012078
:10438000F2D105F1280C624651466B6ACDF80CC09B
:1043900004A8FFF751FD04F1100CCCEB060E04212C
:1043A0009EFBF1F1002302911A46DDF808A0524568
:1043B00018DA09EB030003F1100A0069694600BA34
:1043C0004AF801000DF1200A013253F80A10484062
:1043D00043F80A0090FA80FB381918440433C0F8F7
:1043E00010B0E2E72AEAEA718B000CA81844002218
:1043F0009C4440F8202CAEEB810BCDF804C05A450C
:1044000020DA019840444FEAC20A10F802900DF1F8
:10441000300C0CEB810ECAF1180A09FA0AF0844636
:104420005EF8200C8CEA00004EF8200C01985EF833
:1044300010EC38442EFA0AFA8AEA090A00F802A0B7
:104440000132DCE70CAA1A442BEAEB7E4FF0FF3076
:104450004FEACE0E20FA0EFE52F8100C0EEA000EB5
:1044600052F8200C8EEA000042F8200C0DF12008D2
:1044700004A808EB030E013103440022032902F1D2
:10448000040204DC5EF8020098500131F6E76B6A22
:10449000039A04A84146FFF7CFFC0023EA185169AC
:1044A00058F803204A40391948F8032012BACA5074
:1044B0000433102BF2D152E74FF4426004E040F68F
:1044C0001D4001E040F61E400DB0BDE8F08F38B150
:1044D00032B1037943F0020303710020106070478A
:1044E0004FF4426070472DE9F8431646C26CF30062
:1044F0000446C2F3C5001A449A420F46E26402D24F
:10450000236D01332365236D03EB56732365331845
:104510003F2B29D9C0F14005204439460C302A46AA
:1045200004F1540804F10C0902F04AF940464946E6
:10453000FFF7F4F805F13F03B34213D279198B0763
:1045400001D040460AE00B464A46403153F8040B7E
:1045500042F8040B8B42F9D140464946FFF7DEF89A
:104560004035E7E7002000E0002520447919721B60
:104570000C30BDE8F84302F023B938B578B171B119
:10458000002A0CDB037903F0040303F0FF041BB9DA
:10459000FFF7A9FF204638BD40F6A17038BD40F6B0
:1045A000A37038BD0C4B43650C4B83650C4BC36546
:1045B0000C4B03660C4B43660C4B83660C4BC3667B
:1045C00003F17453A3F52303A3F692430367002377
:1045D000C3640365704700BF67E6096A85AE67BBC1
:1045E00072F36E3C3AF54FA57F520E518C68059BD5
:1045F000ABD9831F08B538B1027922F006020271E7
:10460000FFF7D0FF002008BD40F6A37008BDF7B546
:10461000002307460E46032BD4BF4C2148213944C2
:10462000DA4302F003024968D20021FA02F20DF8DF
:1046300003200133082BEED1FB6C3D6D00241C439D
:10464000E20842EA4572EB083F24002514401D4071
:10465000002D08BF382C3C444FF0800302F03F028D
:10466000237302F1010214D2372A4FF0000303DC56
:10467000B91801320B73F7E7FA181DF8031082F826
:1046800044100133082BF7D107F1540007F10C0156
:104690001FE0402A04D0BB18002119730132F8E74B
:1046A00007F1540507F10C0428462146FFF736F8B8
:1046B0000022B91801320023382A0B73F9D1FA18F5
:1046C0001DF8031082F844100133082BF7D1284657
:1046D0002146FFF723F800243B195B6D1BBA3351C9
:1046E0000434202CF8D107F10C000021402202F004
:1046F00075F8224607F15400002102F06FF807F127
:104700004C000021082202F069F803B0F0BD70B53A
:104710000D4688B016460446C0B1B9B1B2B183683F
:10472000013B1F2B15D8037943F00403037169463D
:10473000FFF76DFF0023A268934204DA1DF80320FF
:10474000EA540133F7E73260002004E040F6A3703A
:1047500001E040F6A27008B070BDD388F0B54C1CE3
:1047600003F10806A4009588A719AF420DD8156873
:10477000EF18076017683E44EE5003689971D388BC
:1047800008331C44D4800020F0BD40F2ED30F0BD71
:1047900003684BB141B1CA889B79083ADB4302EB0D
:1047A0008303CB8000230360704710B50123827917
:1047B00001329342026805D2002442F823400133BB
:1047C0009BB2F4E7012300298380B3BF4942002351
:1047D000C371C371116010BD83888A799A4270B524
:1047E00005D201329A421ED341F2B54400E00024C2
:1047F000C279CA718B8000229A4207DA056855F89F
:1048000022600D6845F822600132F5E700228D79BB
:10481000D018854205DB0D68002645F8206001327E
:10482000F5E7204670BD41F2B54070BD2DE9F84F67
:104830001646D0F8009017688B888288D1F80080DF
:10484000934234BF9A46924609EB820C0025847944
:1048500005EB020E0134A6454FF0000403D24CF8DC
:1048600025400135F3E708EB830C8D7904EB030E4B
:104870000135AE4504D200254CF824500134F4E74C
:104880009A4238BF08463146FFF7A6FF4FEA8A0B27
:10489000D4460022002000215A450FD059F802309A
:1048A00058F802400025E41845F10005241845EBAE
:1048B0000105BC50284600210432EDE750EA01030F
:1048C000B18804D157F82130B3B9BDE8F88FBB588F
:1048D0000AF1804A01330AF1FF3ABB5007EB8A0321
:1048E00053F8042F002AEDD18C45EBD85A680132D9
:1048F0000CF1010C5A60F3E70131B180BDE8F88F8B
:104900008388012B06D103681868D0F1010038BFF5
:10491000002070470020704710B50023C3718179D3
:104920009AB201318A4203F1010304D201680024E2
:1049300041F82240F3E70123838010BD90F907007E
:10494000431E5842584170470368186800F0010040
:1049500080F0010070472DE9F041C279CB79934294
:1049600054B232D184888D88AC4220D826D30068D6
:10497000096800EB840701EB850C01236FF0030647
:104980005E4357F806805CF80660B04504D1A34248
:1049900002D80133A342F1D95E1EA6421ED0E41A0A
:1049A000EB1A50F8240051F82330984206D9002A17
:1049B0000CBF02206FF00100BDE8F081002A0CBF9F
:1049C0004FF0FF300120BDE8F081012C09D1002B10
:1049D0000CBF6FF002000320BDE8F0810020BDE8AD
:1049E000F0810320BDE8F08110B50446FFF788FF91
:1049F000A0B9A2882168530102F18042013A51F81E
:104A00002200A3F120014FF0004202EA0004944288
:104A100006D08B4204D05208013BF6E7012010BDBE
:104A2000184610BD01F01F03012202FA03F34909E1
:104A3000026852F821001840C31A58425841704782
:104A4000F8B50C46002A53D008B9002950D1E71C0C
:104A50009379BF08BB4248D3002C41D0042194FB7A
:104A6000F1F1061900258D42136807DA56F804CDD6
:104A70009CFA8CFC43F825C00135F4E721EAE17586
:104A8000AE0092F806C0654506DA4FF0000C43F818
:104A900006C001350436F4E714F0030401D1978011
:104AA00013E0067843F8216003EB81050121A14260
:104AB000F5DA10F801C02E684CEA06262E600131A6
:104AC000F5E7012909D001399180918801F18040F1
:104AD000013853F820000028F3D00020D071F8BD31
:104AE0001046FFF719FF2046F8BD41F2B540F8BD6A
:104AF00041F2B840F8BD70B50446FFF701FF08B1B8
:104B0000002070BDA18808468A00236850B19D1816
:104B1000013855F8046C9D586D0045EAD6759D50D6
:104B2000043AF2E71A6852001A6053F82130012B58
:104B3000E6D1013189B2A279A18041F2B5430131B8
:104B400091428CBF1846002070BDF8B50446FFF7AF
:104B5000D7FEC8B9A58801466A1E9142236809D2CA
:104B600088001E18013177681E58760846EAC77615
:104B70001E50F2E753F82210012D4FEA510143F87D
:104B8000221001D901B9A280F8BDF8B582888379D5
:104B90000A449A4205460C4623DCFFF7B1FE18BBD7
:104BA0001CB3AE8806F18041013921446FF0030C3B
:104BB000731E89000CFB04FC2A6833B15718013BB3
:104BC00057F80C7057500439F6E7116842F8241072
:104BD000002142F823100133A342F9D33444AC80BE
:104BE000F8BD41F2B540F8BD0020F8BD2DE9F04315
:104BF00099B38488036804F18042013AC1F1200C22
:104C000053F822604FEA820826FA0CF6621E03EB84
:104C1000840562B155F8087C27FA0CF955F8047C34
:104C20008F4049EA070745F8047D013AF1E71D681E
:104C300005FA01F119604EB1817901348C4208D82E
:104C400043445E6084801046BDE8F0833046BDE892
:104C5000F08341F2B540BDE8F0830846BDE8F0833B
:104C60004B1E1E2BF0B520D884880022661EB2424F
:104C700003680DD295005F19C1F1200C7F6807FA17
:104C80000CFC5F59CF404CEA070701325F51EEE759
:104C900004F18042013A53F8225025FA01F143F819
:104CA000221011B9012C18BF8680F0BD2DE9F04DFE
:104CB00006460F46F9B1D0F800808188C44600202E
:104CC0000022002388420BD2DCF8004092469B462B
:104CD000E7FB04AB4CF804AB5A4600230130F1E784
:104CE00032B1B479481CA04208D8B08048F82120DD
:104CF0000020BDE8F08DFFF70FFEF9E741F2B54067
:104D0000BDE8F08D2DE9F0438388B1F804809479F3
:104D100043452CBF9946C1460134A14557D88479F3
:104D20009C4206D30468002544F8235001339BB20B
:104D3000F5E743468C799C424FF0000405D30D689B
:104D400045F8234001339BB2F4E7A4460025002434
:104D50001FFA8CF308F10106B3420CF1010C11D2D9
:104D6000066856F823700E6856F82360BE1B67EB82
:104D700007073619146847EB050744F82360FD1749
:104D80003C46E5E74B4511680DD2066856F823C04E
:104D900014EB0C0645F1000741F8236001333C4653
:104DA000FD179BB2EEE734B103F1804001386FF09C
:104DB000010441F82040013B9BB251F8230008B99F
:104DC000002BF8D1013393800020BDE8F08341F23D
:104DD000B540BDE8F0832DE9F7430D4602AE1F460E
:104DE000002346F8043D8179AB79994238BF1946D2
:104DF00004469046304601313A46FFF7AEFC0028A3
:104E00006DD120462946FFF7A6FD0330062857D866
:104E1000DFE800F0322C1C252C1C040001992846E8
:104E2000FFF7DAFC01994FF0000981F8079020465E
:104E3000FFF791FD002840D0022804D001303FD177
:104E40002846214634E02046294628E0019A20469B
:104E50002946FFF7EBFC0022019BDA7130E0019A52
:104E600020462946FFF7E2FCE279F5E7204629468D
:104E7000019AFFF7DBFC1EE001992046FFF7ACFC2E
:104E800001984FF0000980F807902946FFF763FD6D
:104E900098B102280AD0013012D128462146019A41
:104EA000FFF730FF019B83F8079009E02046294671
:104EB000019AFFF727FF0122CEE70198FFF72CFDAB
:104EC00040460021FFF771FC41460198FFF784FC42
:104ED000394604463046FFF75BFC204601E040F2CD
:104EE000ED3003B0BDE8F0832DE9F3410C4602AE8E
:104EF0001F46002346F8043D8179A3790546904674
:104F00003046994238BF19463A46FFF726FC00283A
:104F100043D1019B01229A8028462146FFF71BFDC1
:104F2000033006282AD8DFE800F0211B1814110AE4
:104F3000040028462146019AFFF778FC04E0284641
:104F40002146019AFFF7DEFE002215E020462946A1
:104F5000F7E70198FFF7E0FC10E02046294601E062
:104F600028462146019AFFF7CDFE04E02846214657
:104F7000019AFFF75BFC0122019BDA714046002198
:104F8000FFF713FC41460198FFF726FC394604461B
:104F90003046FFF7FDFB204601E040F2ED3002B065
:104FA000BDE8F0812DE9F34701F104090C46817950
:104FB000002302310546484616460193FFF7CDFB14
:104FC0000146002840F0888060682560FFF7EDFB0F
:104FD000AA88636801329A80A9881A68012342F876
:104FE00021302A684FF01F0810680321022200FBBD
:104FF00003F70F40974228BF9B184900B8F10108FA
:105000004FEA420281F00101F1D15B42A360A9792C
:1050100001A801313246FFF7A0FB08B1484658E02D
:1050200001992846FFF7D8FB0198FFF7DDFC4042C5
:1050300000F01F0A51460198FFF7D8FD60680199FA
:1050400002463346FFF750FF074600283CD1AB88A5
:10505000984527D2606803F18043013B0268012133
:1050600052F82390FFF791FDB9F1000F17D0019985
:105070002846FFF7B1FB49460198FFF717FE514656
:105080000198FFF7B3FD6068019902463346FFF7C8
:105090002BFF6368AA881B6853F82290E4E708F1A5
:1050A0000108D4E701A83146FFF772FB6068294682
:1050B000FFF751FC002805DD6068294602463346AB
:1050C000FFF712FFE66009E048463146FFF760FB54
:1050D00001A83146FFF75CFB40F2ED37384602B0DD
:1050E000BDE8F08708B503460430D968FFF750FBE8
:1050F00008BD002208B502608260426803461AB10A
:105100000430D968FFF744FB08BD2DE9F04F9DB08E
:105110001C460C901CA8002340F8043D23680D9207
:10512000894619680E91A16818919979D9F80020DB
:1051300009920131E2689F88FFF70FFB8046002843
:1051400040F0C9801B984146FFF72FFB1B9EB9F822
:105150000430099A356802EB83014046C218BA420E
:105160004FF0000203D241F820200130F6E70C9BFB
:10517000B3F804E002EB0E01B94206D20C980068C5
:10518000002340F821300132F4E74FEA870EAEF1F8
:105190000403EB18002105EB0E0C19930091009805
:1051A000B84270D20C9ADDF800801368099853F861
:1051B000283008932A68036808990E9892464FF0A1
:1051C000000BE3FB01AB189B0AFB03F30F930F9952
:1051D0000368D0464FF00009E3FB01890021043148
:1051E000714528D000220B92099B6A585858CDF877
:1051F00028B09246089ACDF848904FF0000BE0FB9B
:1052000002ABDDE90A2300201AEB020A4BEB030B89
:1052100013900E9B0F9A5B580193DDE91289E3FB13
:1052200002896B18CDE9028918EB0A0849F10009D7
:1052300043F8048CD3E700230793CDF818B0DDE9D9
:1052400006ABDCF80030CDF84090002011901AEB4E
:10525000030ADDE910234BF1000B12EB0A0243F1C4
:1052600000031493DDF80090149B199915905B448A
:1052700009F101090A60CDF858B01790CCF8003058
:10528000CDF800908BE77B1CB380B288012A08D947
:1052900002F18043013B55F8233013B9013AB28043
:1052A000F3E730462168FFF756FB00281B9808DB20
:1052B00021680D9AFFF726FD0D9900230546CB7155
:1052C00003E00D99FFF788FA05461BA8E168FFF790
:1052D0005FFA284601E040F2ED301DB0BDE8F08FE6
:1052E000F7B502AC0023064644F8043D0F461546C8
:1052F0002046B179D268FFF730FA80B901980121D0
:10530000FFF753FA304601993A462B46FFF7FDFE68
:10531000E96806462046FFF73BFA304601E040F2D6
:10532000ED3003B0F0BD70B5049D1E462B4614460B
:10533000FFF751FD20B1A379A28801339A4213D11E
:1053400020463146FFF707FB002805DB20463146A3
:1053500022462B46FFF7C8FDA088A27941F2B5434B
:1053600090428CBF1846002070BDF8B5069D1F46C0
:105370002B461646FFF7B8FD044650B93046FFF7F6
:10538000DDFA30B13046394632462B46FFF723FD71
:1053900004462046F8BD70B504460D461646FFF794
:1053A000AAFB20462946FFF7D6FA002806DB20464E
:1053B000294622463346FFF797FD00E00020A188EA
:1053C000A27941F2B543914288BF184670BD2DE9DC
:1053D000FF4180461D46104600230F4616460093A7
:1053E000019302930393FFF7AFFA002840F0C680C1
:1053F0006846B1792A46FFF7B0F90446002840F024
:10540000BF8001A8B1792A46FFF7A7F90446002812
:1054100040F0AF80B17902A801312A46FFF79DF92B
:105420000446002840F0A180B17903A801312A4642
:10543000FFF793F90446002840F093804046009916
:10544000FFF7CAF90446002840F0878030460199EA
:10545000FFF7C2F9044600287FD102980121FFF727
:10546000A4F903982146FFF7A0F90098FFF748FA3E
:1054700000285AD10098FFF767FAE8B10098FFF7C3
:1054800064FB0298FFF760FA40B902983146024681
:105490002B46FFF7A0FC044600285ED10298FFF7D8
:1054A00054FBE7E70198FFF750FB0398FFF74CFA2E
:1054B00040B10398FFF749FB0198FFF745FA002830
:1054C000F0D109E00398314602462B46FFF783FCF2
:1054D00004460028EDD040E09DE80300FFF73BFACA
:1054E00000280BDB9DE803002B460246FFF7FCFC7F
:1054F0000446002831D10298039909E001980099E7
:1055000002462B46FFF7F0FC044630BB0398029995
:1055100002462B46FFF7E8FCA7E703983146024610
:105520002B46FFF758FC0446B8B90398FFF706FA74
:105530000028F2D106E0314602462B46FFF7D4FCA4
:10554000044650B903983146FFF705FA002803983E
:10555000F1DA3946FFF740F9044603A82946FFF778
:1055600017F902A82946FFF713F901A82946FFF702
:105570000FF968462946FFF70BF901E041F2B644FE
:10558000204604B0BDE8F08138B5037B9B07044694
:105590000D4617D40068496802462B46FFF7B5FD53
:1055A00088B9606869682B460246FFF7AEFDA068BF
:1055B00069682B460246FFF7A8FD237B43F00403EE
:1055C000237338BD002038BD38B5037B03F00603D4
:1055D000042B04460D4614D100682A460146FFF705
:1055E0007FFE78B960682A460146FFF779FEA06819
:1055F0002A460146FFF774FE237B23F0040323733E
:1056000038BD002038BD2DE9F04385B01C460DF1B2
:105610001008002348F8043D029323680E46997948
:105620000746914640460231E268FFF796F8054684
:10563000002840F008812368E268997902A80231C5
:10564000FFF78BF80546002840F0F98003986FF0CB
:105650000201FFF7AAF83B7B9B0702D502233373B5
:10566000E9E0B868029A0423337301462346FFF742
:105670004CFD0546002840F0DE807968B268B868C5
:105680002346FFF742FDB0682168E268FFF783FE1A
:105690000546002840F0CF8003982168E368024661
:1056A000FFF799FBD9F8303003981968FFF753F9E1
:1056B000002837D1E368009338680299039A236879
:1056C000FFF753FE0546002840F0B580E3680093DD
:1056D0003868029932682368FFF725FE05460028DE
:1056E00040F0A98030680399029A2346FFF70DFD28
:1056F0000546002840F09F8003990298FFF76CF858
:1057000003982168E268FFF746FE0546002840F04E
:1057100092800299E3680093039823680A46FFF792
:1057200002FE34E00298234601460246FFF7EDFCF4
:10573000054600287FD1D9F8303061681868039A8F
:105740002346FFF7E2FC029903980A462346FFF737
:10575000DCFC3868039A01462346FFF7D6FC029822
:10576000E3680093039923680246FFF7DCFD216894
:10577000E2680398FFF70FFE0298E368009303992D
:1057800023680246FFF7CFFD0546002853D178680D
:10579000326801462346FFF7B8FC054600284AD187
:1057A0002168E2683068FFF7F6FD3068039A234607
:1057B0000146FFF7AAFC2168E2680398FFF7EBFDBA
:1057C0002168E2683068FFF7E6FD386896E8060071
:1057D0002346FFF79AFC054600282CD10298326830
:1057E00001462346FFF791FC3068E3680093716837
:1057F00023680246FFF7B9FD3068E36800937168DB
:1058000023680246FFF7B1FD7068E36800933168D2
:1058100023680246FFF7A9FD716802980A462346ED
:10582000FFF773FC7068E3680093039923680246EE
:10583000FFF79BFD054602A8E168FEF7A9FF404679
:10584000E168FEF7A5FF284605B0BDE8F0832DE925
:10585000F0410D460446002800F0D680002900F0F3
:10586000D3800369002B00F0D38041694B1E432B8A
:1058700000F2CE800368002B00F0CA804368442BFE
:1058800000F2C6808369002B00F0C280C369013B2F
:10589000432B00F2BD802868002800F0B980033156
:1058A00089081823AA884B4360339A4203D240F2F6
:1058B000ED30BDE8F081EB88184418332063EB80AD
:1058C0000028F4D008302A46FEF747FF0646002895
:1058D00040F092806169206B033189082A46FEF707
:1058E0003CFF0646002840F08280236B94E80300CA
:1058F0001A68FFF7A5F8236B61699A6880462069EA
:10590000FFF79EF8E1690746206B03310C308908E8
:105910002A46FEF722FF0646002864D1236BA069C1
:10592000DA68E169FFF78CF847440744A368206B05
:105930004660066146619BB1E1684B1E422B0FD861
:105940000331043089082A46FEF707FF064600287F
:1059500044D1236BA068E1685A68FFF771F80744E7
:10596000236A53B3616A4B1E422B26D8A36A23B322
:10597000E36A013B422B20D8206B033110308908A9
:105980002A46FEF7EAFE064618BB236B616A1A69CF
:10599000206AFFF755F8E16A0744206B03311430A1
:1059A00089082A46FEF7D9FE236B064660B9A06A2D
:1059B000E16A5A69FFF744F80744002F41F2BF40FB
:1059C00008BF0020BDE8F08103F110002946FEF772
:1059D000DFFE206B29460430FEF7DAFE206B2946F5
:1059E0000C30FEF7D5FE206B2946FEF7D1FE206B6A
:1059F00029460830FEF7CCFEEB88183BEB800023ED
:105A000023633046BDE8F08141F25440BDE8F081A7
:105A100041F25340BDE8F08138B50D4604460028F8
:105A200032D0002930D0006B002830D00368002B22
:105A30002DD083685BB3FEF7ABFE206B29460830A0
:105A4000FEF7A6FE206BC3681BB10C302946FEF79B
:105A50009FFE206B43681BB104302946FEF798FE79
:105A6000206B03691BB110302946FEF791FE206BB5
:105A700043691BB114302946FEF78AFEEB880020EB
:105A8000183BEB80206338BD41F2544038BD41F2F1
:105A9000534038BD2DE9F041054614460E46002915
:105AA0005CD0002A5AD0002858D00B6B002B4FD066
:105AB000106800284CD09968002949D0D38889798A
:105AC000978803F1340C4FF00C0818FB01C18F428A
:105AD00041D3184428601033D380336B9B68997985
