:020000040800F2
:10000000000008246DB60008B9BA0008E7A000088F
:10001000E1A00008EFBC0008F1BC000800000000EF
:1000200000000000000000000000000041970008F0
:10003000F3BC000800000000F5BC0008F7BC000895
:10004000BDB60008BDB60008BDB60008BDB60008C4
:10005000FBBC0008BDB60008BDB60008BDB6000870
:10006000BDB60008BDB60008BDB60008BDB60008A4
:10007000BDB60008BDB60008BDB60008BDB6000894
:10008000BDB60008BDB60008BDB60008BDB6000884
:10009000BDB60008BDB60008BDB60008BDB6000874
:1000A000BDB60008BDB60008BDB60008BDB6000864
:1000B000BDB60008BDB60008BDB60008BDB6000854
:1000C000BDB60008BDB60008BDB60008BDB6000844
:1000D000BDB60008BDB60008BDB60008BDB6000834
:1000E000BDB60008BDB6000800000000BDB600089F
:1000F000BDB60008BDB60008BDB60008BDB6000814
:10010000BDB60008BDB60008BDB60008BDB6000803
:10011000BDB60008BDB60008BDB60008BDB60008F3
:10012000BDB60008BDB60008BDB60008BDB60008E3
:10013000BDB60008BDB60008BDB60008BDB60008D3
:10014000BDB60008BDB600080000000000000000B9
:10015000BDB60008BDB60008BDB60008BDB60008B3
:10016000BDB60008BDB60008BDB60008BDB60008A3
:10017000BDB60008BDB60008BDB60008000000000E
:10018000BDB60008BDB60008BDB60008BDB6000883
:10019000BDB60008BDB60008BDB60008BDB6000873
:1001A000BDB60008BDB60008BDB60008BDB6000863
:1001B000BDB60008BDB60008BDB60008BDB6000853
:1001C000BDB60008BDB60008BDB60008BDB6000843
:1001D000BDB60008C1330108BDB60008BDB60008B1
:1001E000BDB60008BDB60008BDB60008BDB6000823
:1001F000BDB60008BDB60008BDB60008BDB6000813
:10020000BDB60008BDB60008BDB60008BDB6000802
:10021000BDB60008BDB60008BDB60008BDB60008F2
:10022000BDB60008BDB60008BDB60008000000005D
:10023000BDB60008BDB60008BDB60008BDB60008D2
:10024000BDB60008BDB60008BDB60008BDB60008C2
:10025000BDB60008BDB60008BDB60008BDB60008B2
:10026000BDB60008BDB60008BDB60008BDB60008A2
:10027000BDB60008BDB60008BDB60008BDB6000892
:10028000BDB60008BDB60008BDB6000800000000FD
:10029000BDB60008BDB60008000000000000000068
:1002A000000000000000000000000000000000004E
:1002B000000000000000000000000000000000003E
:1002C000000000000000000000000000000000002E
:1002D000000000000000000000000000000000001E
:1002E000000000000000000000000000000000000E
:1002F00000000000000000000000000000000000FE
:1003000000000000000000000000000000000000ED
:1003100000000000000000000000000000000000DD
:1003200000000000000000000000000000000000CD
:1003300000000000000000000000000000000000BD
:1003400000000000000000000000000000000000AD
:10035000000000000000000000000000000000009D
:10036000000000000000000000000000000000008D
:10037000000000000000000000000000000000007D
:10038000000000000000000000000000000000006D
:10039000000000000000000000000000000000005D
:1003A000000000000000000000000000000000004D
:1003B000000000000000000000000000000000003D
:1003C000000000000000000000000000000000002D
:1003D000000000000000000000000000000000001D
:1003E000000000000000000000000000000000000D
:1003F00000000000000000000000000000000000FD
:10040000000000000EB433B5059C05467246114B42
:100410009A4205D2002002B0BDE8304003B07047D8
:1004200072460D4B9A42F5D80121204603F036FB67
:100430000028EFD00121204603F06EFB0128E9D00F
:10044000002306AA214628462370019202F0A0F953
:10045000E1E700BF008B0008FF96000800000000E5
:10046000000000000000000000000000000000008C
:10047000000000000000000000000000000000007C
:10048000000000000000000000000000000000006C
:10049000000000000000000000000000000000005C
:1004A000000000000000000000000000000000004C
:1004B000000000000000000000000000000000003C
:1004C000000000000000000000000000000000002C
:1004D000000000000000000000000000000000001C
:1004E000000000000000000000000000000000000C
:1004F00000000000000000000000000000000000FC
:10050000B6A9F2D0C70E1EDF201E558C39F2431655
:10051000004A90D119D4AD59080DFAD80C419EA1CA
:1005200000000000000000000000000000000000CB
:1005300000000000000000000000000000000000BB
:1005400000000000000000000000000000000000AB
:10055000000000000000000000000000000000009B
:10056000000000000000000000000000000000008B
:10057000000000000000000000000000000000007B
:10058000FFFFFFFFFFFFFFFFFFFFFFFFFFFFFFFF7B
:10059000FFFFFFFFFFFFFFFFFFFFFFFFFFFFFFFF6B
:1005A000FFFFFFFFFFFFFFFFFFFFFFFFFFFFFFFF5B
:1005B000FFFFFFFFFFFFFFFFFFFFFFFFFFFFFFFF4B
:1005C000FFFFFFFFFFFFFFFFFFFFFFFFFFFFFFFF3B
:1005D000FFFFFFFFFFFFFFFFFFFFFFFFFFFFFFFF2B
:1005E000FFFFFFFFFFFFFFFFFFFFFFFFFFFFFFFF1B
:1005F000FFFFFFFFFFFFFFFFFFFFFFFFFFFFFADE31
:100600003EB445F65731C4F6AF314EF2F112C2F2A4
:10061000583240F20E53C6F6A45346F6E624C4F20E
:10062000446480E81E003EBC70473EB44BF2DE617D
:10063000C4F28C2142F23322CAF2FA2242F6133378
:10064000C2F27E2348F24D34C5F6821480E81E00C3
:1006500000F1100048F66F61CCF6A5014BF6D052C0
:10066000C8F677324AF2A713CEF6946345F21B140C
:10067000C3F2804480E81E0000F1100042F21B51DA
:10068000C2F20A714FF26D22C4F65C5248F66F5303
:10069000CDF6524343F2BA24C7F6722480E81E0016
:1006A00000F1100046F2A631CEF2577142F29432B8
:1006B000C8F2D8724EF2F063C5F6BE6345F67A24EE
:1006C000CBF6E82480E81E003EBC70470000000026
:1006D000000000000000000000000000000000001A
:1006E000000000000000000000000000000000000A
:1006F00000000000000000000000000000000000FA
:1007000008B500F0DBF8012008BD00000000000083
:1007100000000000000000000000000000000000D9
:1007200000000000000000000000000000000000C9
:1007300000000000000000000000000000000000B9
:1007400000000000000000000000000000000000A9
:100750000000000000000000000000000000000099
:100760000000000000000000000000000000000089
:100770000000000000000000000000000000000079
:100780000000000000000000000000000000000069
:100790000000000000000000000000000000000059
:1007A0000000000000000000000000000000000049
:1007B0000000000000000000000000000000000039
:1007C0000000000000000000000000000000000029
:1007D0000000000000000000000000000000000019
:1007E0000000000000000000000000000000000009
:1007F00000000000000000000000000000000000F9
:1008000010B5054C237833B9044B13B10448AFF34A
:1008100000800123237010BD0004002400000000AC
:10082000986D000808B5034B1BB103490348AFF3AB
:10083000008008BD0000000004040024986D00083A
:100840000D4B82B00D4A0E489B1A48BF03339B10D4
:100850000093002301930199009B994201D302B0B8
:1008600070470199019B50F8211042F82310019B19
:1008700001330193EFE700BF0004002400040024CB
:10088000A07200080B4B82B00B4A00219B1A48BF94
:1008900003339B10009301910198009B984201D370
:1008A00002B07047019B42F82310019B0133019372
:1008B000F2E700BF781C00240004002408B5FFF70D
:1008C000E1FFBDE80840FFF7BBBF0FB404B07047BD
:1008D00000487047786E00087047000030B50F4C34
:1008E0000023A142C0E90033C0E9023312D20C4B0D
:1008F00099420CD85D1CC0E900121144A94205D9E7
:10090000DB4384601944521AC160426030BDDB434E
:1009100023441944C0E90212F8E700BF0000009028
:10092000FFFF1F081FB504466846FFF7D7FF019A6F
:100930001AB10099204606F005FA039A62B10299AD
:10094000074B99420AD3C91A204603F00AF9B0FAB4
:1009500080F0400904B010BD0120FBE70020F9E75A
:10096000000000902DE9F047884614461146234ABE
:100970001F46844613794046012B16D1DFF898A014
:10098000A24517D81E4D1F4B2B441F4D5B1BA34286
:1009900010D9A4EB0A05166806F58066B54217D390
:1009A0001A49A1EB0A01891B21443A46BDE8F047E8
:1009B000FFF7B8BF164DA54204D8164BA34201D984
:1009C000651BE8E7062300208CF80030BDE8F087BF
:1009D000EB19B342E9D9A6EB0509214640464A4640
:1009E000FFF7A0FF0128F1D10849BB1B08EB090064
:1009F000A1EB0A0A5F195444611BD6E720040024C6
:100A000001002008FFFF2190000000900000200856
:100A100000002290000062900000020808B501F07A
:100A20006BF940B9054B064A5A6101F08BF9B0FAEF
:100A300080F0400908BD0020FCE700BF0020005204
:100A40000000EE172DE9F04F8BB0044690461A4691
:100A500006A8FFF743FF079F002F55D0002C55D065
:100A6000B8F1000F54D00023DDF818902370FFF781
:100A7000D5FF0128054603D101F03EF978B1257074
:100A8000099A002A00F0A680012D40F0A3800023DF
:100A900008992370514B99423CD200259AE00646B2
:100AA000DFF840B108EB060A5B463A464846514635
:100AB00000F030FD002801DB830705D0032300256B
:100AC000237001F03FF9DBE728B106443F1A814467
:100AD000002FE7D1F5E720704946DAF80020012021
:100AE00001F0AEF90028E9D1D9F80010DAF80020B9
:100AF000914201D00423E2E74FF00A0309F104090F
:100B00000436043F2370E3E70125B9E72546B7E73C
:100B10004546B5E7A1EB0309511E4944090C0131D3
:100B2000B1F5806F0091B8D84FEA194A0099514544
:100B300008D84946404603F01DF8002848D0032352
:100B40002370AAE70AF01F014FEA5A1B01912449BA
:100B5000019801EB8B018968C14011F0010134D18A
:100B60004FEA0A4602929E1997D24FF00A0304A850
:100B7000237003F010F8194B029AD0B9049901F5CB
:100B80007F47FF37B7FBF1F70121F01ACDE90221CA
:100B900002F0F9FF114BDDE9022118B14FF002011B
:100BA000217000210498013F0644EED100293FF452
:100BB00074AF0B49019801EB8B0B012101FA00F096
:100BC000DBF808100143CBF808100AF1010AADE781
:100BD0000A23237028460BB0BDE8F08F0000009078
:100BE00020040024CB0800082DE9F14F8046264858
:100BF0001F460C4690F88C309246012B17D1DFF837
:100C0000A4B08B451AD8214D214B2B44214D5B1BA1
:100C10008B4213D9A1EB0B05D0F8886006F58066EE
:100C2000B5421AD31C49A1EB0B01891B21443B4659
:100C3000404601B0BDE8F04FFFF704BF174DA54295
:100C400004D8174BA34201D9651BE5E70723002011
:100C500088F8003001B0BDE8F08FEB19B342E6D957
:100C6000A6EB05095246214640464B46FFF7EAFEF1
:100C70000128EFD10849BF1B0AEB0902A1EB0B0BBE
:100C80002F445C44611BD2E72004002401002008AB
:100C9000FFFF21900000009000002008000022903B
:100CA0000000629000000208C3B2532B05D1000A75
:100CB000A0F155035842584170470020704700008A
:100CC000C1B10D4B984204D84B1E0C4A03449342C9
:100CD0000ED20B4A0B4B13440B4A9B1A984209D86D
:100CE00001390844094981428CBF00200120704726
:100CF0000120704700207047FFFF619000002290A4
:100D000000002008FFFF2190000000900000020872
:100D1000B3F5806F67B505460E4610461946019338
:100D200004D9092300202B7003B060BD064A01AB33
:100D300000F08CF90128044AF3D1019B3146284682
:100D4000FFF752FFF0E700BFC0040024B3F5806F47
:100D5000F7B506460D461C46019304D9082300202A
:100D6000337003B0F0BD074F3946FFF7FBFD012894
:100D7000F7D101AB2A462146384600F0B9F90128DF
:100D8000ECD1EEE7D808002402460088074908B5F0
:100D9000FFF78AFF012806D1D36B002B0B6018BF29
:100DA00003460B7108BD00200871FBE720040024F6
:100DB000024B002201201A601A717047200400249F
:100DC00002460088094908B5FFF76EFF012808D1DF
:100DD000D36B002BC1F8883018BF034681F88C30E4
:100DE00008BD002081F88C00FAE700BF2004002431
:100DF000034B00220120C3F8882083F88C20704721
:100E0000200400240246008808B5FFF74DFF0128A2
:100E100009D1104600F050F9431E58425841034B87
:100E200083F8BC0808BD0020F9E700BF20040024B7
:100E3000024B0022012083F8BC28704720040024C4
:100E40000246008808B5FFF72FFF012809D1104698
:100E500000F0E2F8431E58425841034B83F8A404C3
:100E600008BD0020F9E700BF2004002408B502F007
:100E700066FE012008BD000070B58AB004460391EB
:100E8000FFF71EFF00283BD0039A214606A8FFF774
:100E900025FD079DD5B90124099BA3B1012C12D1D1
:100EA00004A802F078FE044640BBDDE90432B2F14A
:100EB000806F03D8A3F580335C425C41802200211F
:100EC000104805F04DFF20460AB070BD069EFFF7A2
:100ED000A5FD01280446DFD100F00EFF0028DAD17D
:100EE000094B2946094A30460093094B00F0BCFAE9
:100EF000B0FA80F4640900F025FFCDE70024DDE7B7
:100F00000446E0E728040024D1080008CB080008C4
:100F1000D908000813460A2230B585B00D46194697
:100F200004468DF80F200193FFF7CAFE58B1084A16
:100F30002146019B0DF10F0092F8A424012A2A46B4
:100F400003D1FFF7E5FE05B030BDFFF74DFEFAE730
:100F50002004002407B513460A228DF80720084A0A
:100F600092F8BC28012A0A4601460DF1070004D177
:100F7000FFF7ECFE03B05DF804FBFFF7F3FCF9E7C5
:100F80002004002430B50446A1B008B30088FFF760
:100F90008BFE01281CD1124B0022124D83F8A42491
:100FA000FFF726FF294680226846FFF7D3FF012876
:100FB0004FF080020ED1BDF80000FFF775FE01284A
:100FC00008D16946204605F0ADFEB0FA80F0400930
:100FD00021B030BD21462846FFF79CFFF8E700BF4F
:100FE00020040024800022900A4810B5FFF708FB77
:100FF000084A002312F8014B4CB90133102BF9D1E8
:1010000010220021034805F0ABFE204610BD01244C
:10101000F6E700BFE00C002438B5044698B10A4D4D
:1010200005F11000FFF7ECFA0023221D05F1200066
:1010300085F824301023E9186B642B6303F0F4FA6D
:10104000B0FA80F0400938BDE00C002407B558B173
:101050006AB173B1009313460A460146064803F08D
:10106000E6FAB0FA80F0400903B05DF804FB1046E0
:10107000FAE71846F8E700BF000D00240A4610B54D
:1010800000B139B9002410220021094805F068FE9A
:10109000204610BD0146074803F033FDB0FA80F446
:1010A000102200210248640905F05AFEF0E700BF53
:1010B000F00C0024000D002438B50446A0B10B4DFF
:1010C0002846FFF79DFA0023221D294685F83C316A
:1010D000102305F59C70C5F85C31C5F8483103F064
:1010E000C1FBB0FA80F0400938BD00BFE00C00241D
:1010F00007B579B158B17AB183B1009313460A4666
:101100000146074803F0B1FBB0FA80F0400903B094
:101110005DF804FB0120FAE71046F8E71846F6E709
:10112000180E00240A4610B500B139B90024102267
:101130000021094805F014FE204610BD014607486D
:1011400003F0DDFCB0FA80F41022002102486409AB
:1011500005F006FEF0E700BFE00C0024180E0024A6
:1011600008B507482023C0F85832002300F5147052
:10117000037103F04FFDB0FA80F0400908BD00BFD5
:10118000E00C00240A460146034808B503F003FDBD
:10119000B0FA80F0400908BD300F00240A4601462D
:1011A000034808B503F0CEFDB0FA80F0400908BD51
:1011B000300F00242DE9F0410026AEB0044604961D
:1011C000CDE90266002800F08F8049482025FFF70E
:1011D0002CFA8DF8486011AE1395304603F01AFDD5
:1011E00058B940222146304603F0D5FC28B904AA5C
:1011F00009A9304603F0A6FD08B100246FE04FF4C2
:10120000006305AFDFF8F080304606933946394B6E
:10121000CDF8148003F1200211931295139203F17B
:1012200040021495159203F160021895179203F18C
:101230008002A033169519921B931A951C9504F001
:10124000FCFD0028D9D131463A4603A804F00DFF31
:1012500001460028D1D12B46A8F14002039804F0A2
:1012600085FFA8F1200201212B46039804F07EFFA0
:101270003A463146039805F02DFC0028BDD1314691
:101280003A4602A805F051FA01460028B5D104F10A
:1012900040022B46029805F096FA04F160022B46B4
:1012A0000121029840F2EB3405F08DFA039B029A7B
:1012B00009A80499079307AB0097089605F097FAD9
:1012C000031B394602A85C425C4105F065FA3946C9
:1012D00003A804F02CFF3946304604F08CFE40226F
:1012E0000021034805F03CFD20462EB0BDE8F0810A
:1012F000A40F0024B06D0008E40F00240A4BB3F8DB
:1013000080104FF6FD734A1E92B29A4297BF074B68
:101310004FF0016303EA412303F10063834294BF6A
:1013200002200120704700BF00E8F11F00FE1F00EF
:101330000F4B10B5B3F880404FF6FD73621E92B2AA
:101340009A4294BFC4F30323082383428ABF00F563
:10135000806000204004022909D14FF6FD739A42B3
:1013600096BF044B4FF4801303EA4423184410BD86
:1013700000E8F11F00FE1F002DE9F04F16468BB06C
:10138000002204460D461F46049243B14B1E022E16
:10139000024603440CBF022101212248B847002322
:1013A000DFF884A0DFF884B0CDE905362023099367
:1013B000022D2B4604A905A828BF0223CDE9074327
:1013C000ED1A1C4400F0F8FDB0F10008149B8146B2
:1013D00018BF4FF00108C8F1000803B19847A7B142
:1013E000159BE3B131460798FFF7A2FF159B98477D
:1013F0000346314607980393FFF79AFF039B024683
:1014000008995046CDF80080B84725B1B9F1000FD2
:10141000CED04FF0FF3840460BB0BDE8F08F5B46B2
:10142000E7E700BF7A6E0008996E0008606F000859
:101430000B4BB3F880104FF6FD734A1E92B29A42DE
:1014400097BF084B4FF0016303EA412303F10063A8
:1014500083428CBF00F17840C01A400C704700BF37
:1014600000E8F11F00FE1F002DE9F04F054685B092
:101470000F4691469A46FFF7DBFF80462846FFF766
:101480003DFF7B1E06462B4418460393FFF736FFAD
:101490008642834626D01D494FF6FD74039BB1F862
:1014A0008000411E89B2A14296BF194C4FF00164E1
:1014B00004EA4024184698BF04F10064FFF7B8FF1F
:1014C0000E9B411C5A460020671BCDE900A34B46EA
:1014D000FFF752FF631E0446A0B91846FFF70EFF40
:1014E00086420FD1681E3844FFF7A2FF0E9BC8F159
:1014F0000101324601444046CDE900A34B46FFF7C7
:101500003BFF0446204605B0BDE8F08F00E8F11F20
:1015100000FE1F002DE9F7431E46C30607460D4691
:101520001446804647D13EB1202C03460A46254842
:10153000214628BF2021B0471F2C12D8DFF89490F5
:1015400022462946484605F0FDFBC4F12002FF2152
:1015500009EB040005F004FC16B121461A48B04717
:101560004D462A463946012000F06AFC20B14FF072
:10157000FF3003B0BDE8F083083D07F1200CE045E3
:1015800004D1202C204628BF2020F2E74146D8E98C
:10159000007008F10808BFF34F8F55F8083F6A68DC
:1015A000824208BFBB42EAD0002EE0D0CDE900075E
:1015B0000648B047DBE7002ED9D001460448B047C3
:1015C000D5E700BFBE6E0008DB6E0008F86E0008AD
:1015D000356F0008E41700244FF000624FF4005309
:1015E0004FF48071C0E900234FF48043C0E9023119
:1015F0004FF4002303610020704700B54FF440739F
:1016000095B04FF040720C9305230F92022206937F
:1016100000230B9206A913930093049303926A4646
:10162000CDE90D33CDE91133102302934FF480033C
:10163000059340F20113019341F2883300F05CFFFF
:10164000002814BF6FF00400002015B05DF804FB03
:10165000032941F2883230B508BF4FF4407395B08A
:1016600018BF4FF480730C4606A905460C93062359
:1016700006930023CDE90D330F930B931393CDE91C
:10168000113300F03EFE20BB40F202230222032C65
:101690004FF4800104902846CDE900334FF0100349
:1016A000CDE902324FF005036A46CDE905130CBFC0
:1016B0004FF040734FF0807306A90F9341F28833C7
:1016C00000F01AFF00280CBF00206FF0040015B0D6
:1016D00030BD6FF00100FAE730B504468FB0154613
:1016E00003290ED8DFE801F0022D38434FF4807251
:1016F0000692022200924FF4806207924FF08072AD
:10170000099201934FF44052129B6946039220467E
:101710000A93002341F28832089305930D93CDE993
:101720000B3300F0EEFD38BB41F2883229462046EB
:1017300000F02AFE00280CBF00206FF002000FB05E
:1017400030BD4FF480720692D22200924FF40062B4
:1017500007924FF00072D3E74FF48072069238225E
:1017600000924FF4406207924FF04072C8E74FF486
:10177000407206923422F3E76FF00100DFE730B5E4
:1017800004468FB0154603290ED8DFE801F0023277
:101790003D484FF4807206920E2200924FF4806210
:1017A00007924FF08072099208224FF00040019397
:1017B000002305924FF44052694608930392129A0F
:1017C0000D930A924FF08042CDE90B0241F288322C
:1017D000204600F096FD38BB41F28832294620466B
:1017E00000F02BFE00280CBF00206FF003000FB0AC
:1017F00030BD4FF4807206923D2200924FF4806219
:1018000007924FF00072CEE74FF480720692EE22FC
:1018100000924FF4406207924FF04072C3E74FF4DA
:1018200040720692ED22F3E76FF00100DFE730B57A
:1018300004468FB0154603290ED8DFE801F0022ECA
:1018400039444FF4807206920C2200924FF4806269
:1018500007924FF080720992082201930023694693
:1018600005924FF44052204608930392129ACDE914
:101870000A2341F28832CDE90C3300F042FD38BB37
:1018800041F288322946204600F0D7FD00280CBFDF
:1018900000206FF003000FB030BD4FF4807206924D
:1018A000BC2200924FF4006207924FF00072D2E720
:1018B0004FF480720692EC2200924FF4406207923D
:1018C0004FF04072C7E74FF440720692EB22F3E705
:1018D0006FF00100DFE7032941F2883200B508BF4D
:1018E0004FF440738FB018BF4FF48073694606936E
:1018F000C72300930023CDE90733099305930D9384
:10190000CDE90B3300F0FDFC002814BF6FF001009F
:1019100000200FB05DF804FB022B70B505468EB0B9
:101920000E462ED0032B2ED0012B14BF2123522381
:10193000032E0093314628460CBF4FF440734FF4FA
:101940008073019206934FF4406307934FF4405322
:1019500003930023CDE9083305930D93CDE90B33B1
:10196000FFF776FE41F288326946284600F0C9FC4E
:10197000044668B931462846FFF73FFE20460EB0C0
:1019800070BDDC23D4E70EB0BDE87040FFF7A3BF05
:101990006FF00100F3E7000008B5054800F0FCFD1A
:1019A000044A0020536923F04063536108BD00BF1F
:1019B000281800240050005230B50D4687B0044668
:1019C000002833D101A8FFF707FE1A4B1A4A01205D
:1019D0001A606978194A0029986052F8212008BFD6
:1019E00010245A60DC60019A92FAA2F2B2FA82F2F2
:1019F000002483F84C00013ADC611A614FF4407214
:101A0000C3E9052440221A622A7883F84E1083F82D
:101A10004D20AA781A6541F288329A64022283F82E
:101A20004120FFF7B9FF204607B030BD6FF001003D
:101A3000FAE700BF2818002400500052706E00081A
:101A400037B50C46A0B90C4890F84E5090F84D10A0
:101A500000931346224645B9FFF7E9FE18B16FF02F
:101A6000040003B030BD0020FBE7FFF788FEF5E778
:101A70006FF00100F5E700BF281800242DE9F341BD
:101A80000F461446A8BBD5B2D618DFF87480C5F54A
:101A900080759D4228BF1D4698F84D101848FFF7E5
:101AA000ACFD20B16FF0040002B0BDE8F08198F801
:101AB0004D104046FFF7CCFD0028F3D123463A46AF
:101AC00098F84D1040460095FFF706FE0028E9D132
:101AD00098F84D104046FFF790FD0028E2D12C44C5
:101AE0002F4404F58073B34206D9351BA642D3D8E0
:101AF000DAE76FF00100D7E74FF48075F6E700BF33
:101B00002818002470B50D461646B8B90D4C94F847
:101B10004D102046FFF771FD68B994F84D1020462E
:101B2000FFF796FD38B933462A4694F84D10204603
:101B3000FFF7F2FE08B16FF0040070BD6FF0010016
:101B4000FBE700BF2818002410B5044608461CB95E
:101B5000FFF742FD204610BD6FF00100FBE7F0B536
:101B600022F003050C46970806680D44A54208D1EB
:101B700012F003021ED0012A14D111F8273033705D
:101B800018E06378043414F804CC1B0443EA0C63B3
:101B900014F801CC43EA0C0314F802CC43EA0C23FA
:101BA0003360E3E76B78022A11F8272043EA022327
:101BB000338002D103681868F0BDAB78DFE7F0B579
:101BC0000068550800238E1C9D4206D1D30702D51C
:101BD00031F8253003800068F0BD31F8237036F805
:101BE0002340013344EA07440460EDE770470000F6
:101BF00010B5044608B9012010BD437F03F0FF0271
:101C000013B90277FFF7F2FF022363772379E3B971
:101C10002368134A5A619A6822F018029A6062791E
:101C20002368D2B94FF0FF321A6100209A686169C7
:101C300022F060020A43A1699A609A6822F0800249
:101C40000A439A6001236377D6E7D4E9021220465B
:101C500000F02CF80028E2D0CDE72269E4E700BFCD
:101C6000B71DC104F8B50226044646770668B76872
:101C700047F00107B760076A022F14D0032F05D081
:101C8000012F0DD0002001236377F8BD01EB820501
:101C9000A94201D13068F6E751F8043B3360F7E719
:101CA000FFF75DFFEFE7FFF78AFFECE7CB0710B523
:101CB0000CD51F23013B1CD321FA03F4E407F9D50B
:101CC000102A12D004D83AB1082A10D001200BE013
:101CD000182AFBD1062BF9D800684161836823F0EC
:101CE00018031A438260002010BD072BF3E70F2B67
:101CF000F1E7002AEAD1EFE7104BDA68D20706D401
:101D00000E4BD3F80C0110F001000AD170470C4AB9
:101D10005A6002F188325A60DB68DB07F0D5012097
:101D20007047074AC3F8042102F18832C3F804213E
:101D3000D3F80C0100F00100704700BF00200052F2
:101D4000230167450A4BDA6842F00102DA60DA687B
:101D5000D2070BD5D3F80C2142F00102C3F80C21B5
:101D6000D3F80C01C04300F0010070470120704718
:101D7000002000522DE9F0410C46054601F03EFEE0
:101D80002B4E022C0746DFF8AC8018BF0426042E29
:101D900024D1D8F81030C3F38003A3B9012C254B0C
:101DA000254A25D11B69134033F0004129D023482F
:101DB000002B826942EA030282611E4A1EDB5361E4
:101DC0000120BDE8F0816B1CE1D001F017FEC01BC3
:101DD000A84201D8002DDAD10320F2E7D8F810315B
:101DE00026EA030313F0040F0CBF01230023D4E7FA
:101DF000D3F81031134043F00043D5E7C2F8141173
:101E0000DEE7012C0B4A08D1106910F48030D8D0DD
:101E10004FF4803353610846D3E7D2F8100110F431
:101E20008030CED04FF48033C2F81431F3E700BFD6
:101E300004000080002000520000EE1780180024EB
:101E4000F8B5284E0D461746337D012B48D001F1D9
:101E500078430120B3F5801F307531D3A1F10163C0
:101E6000B3F5801F2BD20224002321464CF25030C0
:101E7000B361FFF77FFF00BB012C1B4B22D1DA6857
:101E800042F00202DA60BFF36F8FBFF34F8F00237F
:101E9000FA58EA500433202BFAD1BFF36F8FBFF307
:101EA0004F8F4CF250302146FFF764FF012C0E4B50
:101EB0000FD1DA6822F00202DA6000233375F8BD30
:101EC0000446D1E7D3F80C2142F00202C3F80C21FA
:101ED000D9E7D3F80C2122F00202C3F80C21ECE779
:101EE0000220ECE7801800240020005201F00303D8
:101EF000032B17D11D4BDA6822F03002DA60D3F8D9
:101F00000C2122F03002C3F80C21DA680243DA60B7
:101F1000D3F80C211043C3F80C019A6942F0100267
:101F20009A617047CA070BD5104BDA6822F030026D
:101F3000DA60DA680243DA60DA6842F08802DA606E
:101F40008B0711D5094BD3F80C2122F03002C3F8CE
:101F50000C21D3F80C211043C3F80C01D3F80C2149
:101F600042F08802C3F80C21704700BF00200052E5
:101F700010B5CC070BD50F4CE36823F4E663E360A0
:101F8000E36843EA0023134343F08403E3608B07D1
:101F90000FD50849D1F80C3123F4E663C1F80C31B0
:101FA000D1F80C3143EA0020024342F08402C1F828
:101FB0000C2110BD002000522DE9F047464E054689
:101FC0000F46337D012B00F0848001210023317501
:101FD0004468B3610C4006D04CF25030FFF7CAFEA3
:101FE000041E18BF01246B68980706D46CB1012445
:101FF000002333752046BDE8F08702214CF25030B3
:10200000FFF7B8FE0028F1D0F1E7D5F80080B8F16D
:10201000010F26D169682869FFF768FF6B68D90747
:102020000CD541464CF25030FFF7A4FE2B4A041E5B
:10203000D36818BF012423F00803D3606B689A07A4
:10204000D6D502214CF25030FFF794FE234A0028E7
:10205000D2F80C3118BF012423F00803C2F80C3168
:10206000C6E74FF0FF33DFF87480DFF874903B6011
:10207000D5F808A0D5E9022313445345B8D95046F2
:102080002A696968FFF774FF686810F001000AD0D8
:1020900001214CF25030FFF76DFED8F80C3003EA06
:1020A0000903C8F80C306B689B070AD502214CF273
:1020B0005030FFF75FFED8F80C3103EA0903C8F887
:1020C0000C3118B10446C7F800A091E70AF1010AE3
:1020D000D0E702248EE700BF8018002400200052C1
:1020E000FBF8FFFF38B5044601F088FC054644B113
:1020F00094F83D30022B06D08023A366002384F899
:102100003C30012015E02368DA6822F03E02DA60F4
:10211000DA6822F00102DA602268D36813F0010362
:1021200008D11F2118465160012284F83C3084F800
:102130003D2038BD01F062FC401B0528ECD9A36EA0
:1021400043F04003A366002384F83C30032384F863
:102150003D30D6E72DE9F0474E6A36B1B2F1406F17
:1021600003D08B6A0468013B2361D1F81890D1E950
:102170000775B9F1000F4FD04B6946EA09090068AD
:10218000D1F800A04FEA834CD1F834E049EA0209C3
:10219000D1E90B4835B38B6849EA05050E69C3617F
:1021A0009FB14AEA07032343CC6843EA080343EAA2
:1021B0000E033343234343EA0C032B43B2F1406F36
:1021C00043610DD04B6883610AE04AEA040343EAA5
:1021D000080343EA0E03334343EA0C032B434361F2
:1021E000BDE8F0876FB14AEA07032343CC6843EAAE
:1021F000080343EA0E03234343EA0C0343EA0903BB
:10220000DCE74AEA040343EA080343EA0E0343EA2D
:102210000C0343EA0903E2E765B304688B680869C5
:10222000E36146EA05034E6943EA0205D1F834C08A
:10223000B604D1E90B83A7B13843B2F1406F40EA4D
:10224000080043EA0003C86843EA0C0343EA0003BA
:1022500043EA060343EA05036361C1D04B68A36107
:10226000BEE740EA0800034343EA0C0333432B4331
:102270006361B5E77FB146EA0703CC6A00681343A0
:1022800023430C6B23434C6B2343CC6823434C699F
:1022900043EA844392E7002EA2D0CB6A006833431E
:1022A0000E6B1A434B6932434E6B324342EA834210
:1022B000426195E72DE9F041DDF8188004460E46AD
:1022C00015461F4622689368334214BF012300233A
:1022D000AB4201D1002012E0B8F1FF3FF3D001F092
:1022E0008DFBC01B404502D8B8F1000FEAD1042392
:1022F000012084F84130636C43F001036364BDE85E
:10230000F0812DE9F043044685B01746894601F077
:1023100075FB94F840200346012A33D0012202269F
:1023200084F8402094F84120012A5FFA82F827D1EE
:1023300000220390202120466264009784F84160C7
:10234000FFF7B8FF0546A0B9024649462046FFF709
:1023500001FFD9F82420039B4AB942463146204662
:102360000097FFF7A7FF054618B92368DE6084F8D9
:102370004180002384F84030284605B0BDE8F08352
:102380003546F6E70225F7E7F0B5044685B0164670
:102390000F4601F033FB94F8402003462568012ADC
:1023A00049D0012284F8402094F84120012AD0B27B
:1023B0003FD100226264002F36D0122284F84120DF
:1023C0002A690132E2622A6967620132A2626A699D
:1023D00022F040626A61E26A8AB901220221204643
:1023E0000096FFF767FF10B923680222DA60012325
:1023F00084F84130002384F8403005B0F0BD01225C
:102400000421204600960393FFF754FF0028EED1E5
:10241000626A039B127885F82020626A0132626248
:10242000E26A013AE262D6E7636C43F00803636450
:10243000E0E70220DEE70220DFE7F0B5044685B0E2
:1024400016460F4601F0DAFA25680346D5F818C09B
:1024500094F84020012A4DD0012284F8402094F8BD
:102460004120012AD0B243D100226264002F3AD029
:10247000222284F841202A690132A2632A69276353
:1024800001326263696921F0406141F080616961F4
:10249000C5F818C0A26B8AB9012202212046009615
:1024A000FFF708FF10B923680222DA60012384F8DD
:1024B0004130002384F8403005B0F0BD01220621F0
:1024C000204600960393FFF7F5FE0028EED195F81D
:1024D0002010226B039B1170226B01322263A26BCE
:1024E000013AA263D6E7636C43F008036364E0E754
:1024F0000220DEE70220DFE72DE9FF410446154612
:102500001E46884601F07AFA94F840200346012AD4
:1025100040D0012284F8402094F84120012AD7B20B
:1025200036D142210022039020466264009684F84E
:1025300041102021FFF7BEFE20BB21682A682869D0
:102540008A626A684A62AA68CA620A6822F4400219
:102550000243204642F480020A604146EA68C8F815
:1025600028204FF00062FFF7F5FD039B3A46082153
:1025700020460096FFF79EFE20B923680822DA6005
:1025800084F84170002384F8403004B0BDE8F08145
:102590000220F7E70220F8E71FB5044601F02EFA03
:1025A000034694F8410010F002003AD0002221685E
:1025B00084F840200A6812F0040234D00A68E06B04
:1025C00022F0040203930A60FFF78CFD039B18B10D
:1025D000626C42F0040262642268916889061DD52B
:1025E00011682046039341F0020111600221A26CA0
:1025F00000920122FFF75EFE039B90B92268022140
:10260000D1602021A26C009202462046FFF752FEC4
:1026100038B92268536923F040635361012384F879
:10262000413004B010BD1046D6E710B50446032172
:1026300001F02CFAE3681B1A5842584110BD000003
:10264000F8B504460D46FFF7F0FF30B9114B0422F0
:102650001A70104B1B782B70F8BD23460E4E04F1F8
:1026600010071868083353F8041C3246BB4203C2F3
:102670001646F6D12346094C1868083353F8041C53
:102680002246BB4203C21446F6D10120014B18700A
:10269000DFE700BF9C180024781C0024881C00245D
:1026A0002DE9F041154D002680462E7001F0DAF933
:1026B0000128044606D02B78344688F8003020469E
:1026C000BDE8F0810E4E3046FFF7AFFF98B906F136
:1026D00010073846FFF7A9FF30B9042304462B70D2
:1026E0002B7888F80030EAE797E80F0086E80F00BB
:1026F00002232B70F4E72C70F2E700BF9C18002433
:10270000781C00247FB50A4B187868B10023032198
:1027100002A80493CDE9023301F0B8F90DF10701E5
:10272000059002A8FFF78CFF07B05DF804FB00BF1F
:102730009C18002470B50D46044650B1E1B10F4815
:10274000FFF773FF30B90E4B04221A700C4B1B7845
:102750002B7070BD094E234606F110043246083333
:1027600003CAA24243F8080C43F8041C1646F5D1EC
:102770000120034B1870E9E70846EAE7781C0024BB
:102780009C18002410B109B1FFF75ABF0020704710
:1027900034282DE9FF410D4642D9982800F2B08037
:1027A0007F2805D82C78002C40F04A8301235DE275
:1027B00080381828F6D801A353F820F0F12B000830
:1027C000312C0008A5270008A5270008A527000828
:1027D000A5270008A5270008A5270008A5270008A9
:1027E000A5270008A5270008A5270008A527000899
:1027F000A5270008A5270008A5270008C92C000860
:102800009D2C0008712C0008DD2C0008EF2C00081E
:10281000FF2C0008112D0008212D0008332D000881
:102820003428BFD801A353F820F000BF17290008AF
:1028300077290008A5290008FF2900083D2A00087B
:10284000692A0008C32A0008012B00082D2B000864
:10285000872B0008A5270008A5270008A527000842
:10286000A5270008A5270008A5270008C52B0008F4
:10287000A5270008A5270008A5270008A527000808
:10288000A5270008A5270008A5270008A5270008F8
:10289000A5270008A5270008A5270008A5270008E8
:1028A000A5270008A5270008A5270008572D000820
:1028B0007D2D0008A72D0008A5270008A5270008E2
:1028C000A5270008A5270008A5270008A5270008B8
:1028D000A5270008A5270008A5270008A5270008A8
:1028E000A5270008A5270008A5270008D12D000866
:1028F000FB2D0008292E0008312E0008392E000873
:10290000B0F5807F00F01D8240F2011398427FF401
:1029100049AF012429E0C54B1B78012B3FF442AF9E
:10292000022314680B7001F089F800283FF43AAFD5
:10293000204601F05DF8FEF799FA0DF10F00FFF760
:10294000AFFE0128044614D0FFF7DCFE0128044640
:102950000CBF042303232B70FEF746FB012801D094
:1029600007232B70002C3FF41DAF204604B0BDE8B8
:10297000F0810023EFE7146801F060F800283FF4CD
:1029800011AF8021204601F0B5F800283FF40AAFCE
:10299000A64B1B78012B3FF405AF2046FEF73CFB0E
:1029A0000446DFE75468002C7FF7FCAE1768214629
:1029B0003846D2E9028601F09DF800283FF4F2AED5
:1029C0000421304601F096F800283FF4EBAE314682
:1029D000404601F08FF800283FF4E4AE01F02EF8F5
:1029E00000283FF4DFAE914B1B78012B3FF4DAAEA9
:1029F0003346424621463846FEF728FBD0E7D2E967
:102A000000460421304601F075F800283FF4CAAEB4
:102A10001021204601F06EF800283FF4C3AE01F00B
:102A20000DF800283FF4BEAE804B1B78012B3FF41D
:102A3000B9AE31462046FEF721FBB1E7146800F03D
:102A4000FDFF00283FF4AEAE8021204601F052F891
:102A500000283FF4A7AE754B1B78012B3FF4A2AEC4
:102A60002046FEF729FB9BE7D2E90064D2E9027811
:102A700000F0E4FF00283FF495AE002C7FF792AE03
:102A80002146304601F036F800283FF48BAE042191
:102A9000404601F02FF800283FF484AE2146384626
:102AA00001F028F800283FF47DAE604B1B78012B25
:102AB0003FF478AE43463A4621463046FEF718FBCF
:102AC0006EE7D2E9004600F0B9FF00283FF46AAE95
:102AD0000421304601F00EF800283FF463AE1021C7
:102AE000204601F007F800283FF45CAE4F4B1B78FE
:102AF000012B3FF457AE31462046FEF713FB4FE75C
:102B0000146800F09BFF00283FF44CAE8021204663
:102B100000F0F0FF00283FF445AE444B1B78012B3A
:102B20003FF440AE2046FEF71BFB39E7D2E90064D4
:102B3000D2E9027800F082FF00283FF433AE002C87
:102B40007FF730AE2146304600F0D4FF00283FF436
:102B500029AE0421404600F0CDFF00283FF422AE0C
:102B60002146384600F0C6FF00283FF41BAE2F4B2D
:102B70001B78012B3FF416AE43463A4621463046B9
:102B8000FEF700FB0CE7D2E9004600F057FF0028F3
:102B90003FF408AE0421304600F0ACFF00283FF4BB
:102BA00001AE1021204600F0A5FF00283FF4FAAD49
:102BB0001E4B1B78012B3FF4F5AD31462046FEF746
:102BC000EDFAEDE6146800F039FF00283FF4EAADB5
:102BD0008021204600F08EFF00283FF4E3AD134B28
:102BE0001B78012B3FF4DEAD2046FEF7E3FAD7E673
:102BF0000E4B1B78012B3FF4D5AD146800F01EFF7F
:102C000000283FF4CFAD1021204600F073FF0028CC
:102C10003FF4C8AD0DF10F012046FFF78BFD0128F1
:102C2000044622D003232B70BCE500BF9D1800246E
:102C3000844B1B78012B3FF4B5AD146800F0FEFE09
:102C400000283FF4AFAD1021204600F053FF0028CC
:102C50003FF4A8AD0321204600F018FF0DF10F014D
:102C6000E0602046FFF78EFDD9E700232B707CE65D
:102C7000744B1B78012B3FF495ADD2E90046926866
:102C800020461146019200F035FF019A00283FF4DA
:102C900089AD31462046FEF75DF981E6694B1B7828
:102CA000012B3FF47FADD2E90064926820461146C3
:102CB000019200F01FFF019A00283FF473AD2146F6
:102CC0003046FEF727F96BE65E4B1B78012B3FF48D
:102CD00069ADD2E90001FEF7CFF861E6594B1B78E8
:102CE000012B3FF45FAD1068FEF78CF858E6554BAA
:102CF0001B78012B3FF456ADFEF79AF850E6514B86
:102D00001B78012B3FF44EAD1068FEF73DF847E607
:102D10004C4B1B78012B3FF445ADFEF749F83FE6DD
:102D2000484B1B78012B3FF43DAD1068FEF748F887
:102D300036E6444B1B78012B3FF434ADFEF758F8D0
:102D40002EE6404C2378012B3FF42CAD00F0F6FE2C
:102D500001202070DDE514682821204600F09EFE49
:102D600000283FF41FAD2821204600F0D5FE0128A1
:102D70003FF418AD204600F0F5FD11E6D2E9004120
:102D80002046019100F08AFE019900283FF40AAD27
:102D9000204600F0C1FE01283FF404AD0199204611
:102DA00000F006FEFCE5D2E900412046019100F06A
:102DB00075FE019900283FF4F5AC204600F0ACFE0A
:102DC00001283FF4EFAC0199204600F0FFFDE7E554
:102DD000D2E900640821204600F060FE00283FF49C
:102DE000E1AC0821204600F097FE01283FF4DAAC60
:102DF0002146304600F0BCFBD2E5D2E9007496686B
:102E00002046314600F04AFE00283FF4CBAC314664
:102E1000204600F081FE01283FF4C4AC3246214632
:102E2000384600F0D9FBBBE5106800F053FDB7E56C
:102E3000106800F07DFDB3E5106800F067FDAFE5B8
:102E4000002492E59D180024074B00221A80DA60C6
:102E500083F823201A84A3F8242183F82621C3E9C8
:102E60000122C3E906227047A018002412B90160AC
:102E700000687047022A04BF83680360F8E70068AF
:102E8000704700000A4B1A78032A0AD85AB1012267
:102E9000C270DA6942609A69826093F82230837066
:102EA0007047042A01D00022F2E70222F0E700BFB7
:102EB000A018002408B5044B83F8221018B1FFF7BE
:102EC000E1FF0123437008BDA018002408B50B4B97
:102ED0001A78023A022A0CD8D9685868802988BF23
:102EE0008021FDF7C9FF012803D00020FFF7ACFFC8
:102EF00008BD0120FFF7A8FFFAE700BFA0180024D3
:102F000038B502FB01F40146D3E900352246E81842
:102F1000FEF700F801280ABF044A4FF0FF34536956
:102F2000204604BF1B19536138BD00BFA018002400
:102F300010B502FB01F4D3E9003122461944FEF733
:102F400009F801280CBF20464FF0FF3010BDF8B53E
:102F50001C4605460E461746836B0022D4E9040141
:102F6000984723696D6B3A4601213046A84763694B
:102F700018446061F8BD2DE9F041556907460E46D9
:102F80001446002D29DB53689268B5FBF3F8904591
:102F90001AD0511C10D053432168E2683046636157
:102FA0002346FFF7D4FF326C32B16423706C6B435D
:102FB00093FBF0F0C0B2904762680021206803F0F4
:102FC000CFFE6368C4E902836268B5FBF2F302FBDB
:102FD000135322680135D7546561BDE8F0810000C4
:102FE00010B5044B012483F8224010B1FFF74AFFCB
:102FF000047010BDA01800244FF0FF33826201223C
:10300000016183600362002382644361C362A0F8AC
:1030100058300364A0F84C30C0E91733C0E91433CA
:1030200018467047A239042916D8DFE801F0120FBC
:103030000A0803000B2380F84C3000207047072358
:10304000F9E740F60203A0F84C30F6E740F6021329
:10305000F9E740F60223F6E74FF0FF30704773B50B
:10306000C56A0446C16900F11803026AB5FBF1F6AE
:10307000964201FB165509D0561C07D05143426AAF
:103080000193C1628169FFF762FF019B2046D4E989
:1030900007124A43A169E2622A46FFF758FF236CF0
:1030A0000BB1642098470023A36402B070BD836C09
:1030B0002DE9F04F012B85B004460E460392029392
:1030C00000F029814FF0FF35284605B0BDE8F08FAC
:1030D0000C2B18D8DFE813F00D0023002C003C0067
:1030E000530068007000C8000E0185001901C80077
:1030F000DF00725D6B1CA72AE4D1029A1D4684F89A
:103100004C2094F84C30039AAA42E1DC092B02D1FE
:10311000236D002B65DCE36D2B44E365D4E7715D23
:1031200020466A1CFFF77EFF051ECDDB1546E8E74B
:10313000735D6A1CFB2B07D80133DBB2236594F85F
:103140004D3084F84C30F1E7C4E914330323F8E739
:10315000626D691C735DFC2A0BD1226D0133C4F8CA
:1031600054801344236594F84D3084F84C300D4658
:10317000C7E784F85830042384F84C30F7E7616DD2
:103180006A1C735DFD290BD194F85810C4F8548063
:1031900003EB0123236594F84D3084F84C30C5E7E8
:1031A00084F859300523CCE7735D84F85A30062340
:1031B00084F84C300135A4E794F8593094F858203D
:1031C0001B0403EB026394F85A2003EB0223725DA5
:1031D000C4F854801344236594F84D3084F84C307F
:1031E000E8E7236D002B0CDD6369002B01930FDAF8
:1031F0004FF0FF304A462146FFF7BDFE236D013BED
:103200002365236D002B7FF47CAFA4F84C3078E766
:10321000019BD4F804A0B3FBFAFBA3689B4513D031
:1032200023680BFB0AF1002220691F466161A36B32
:1032300098472369384652460121276BB84763698E
:103240000344C4E902B063616268019B0199B3FB66
:10325000F2F302FB1313E2689342C9D22268D05CF6
:103260000B4601336361C5E7705D6F1CA7280CD066
:103270004A462146FFF77FFE94F84C300B2B02D1D3
:103280006369013363613D463BE784F84D300C23AD
:1032900084F84C30F7E76F1C755DA72D0ED14A46B8
:1032A00021462846FFF767FE94F84D200B2A02D1ED
:1032B00063690133636184F84C20E4E7A5F1A2035C
:1032C000042B06D829462046FFF7ACFE051EDADAA5
:1032D000FAE64A462146A720FFF74DFE4A46214618
:1032E0002846FFF748FE94F84D200B2AE3D1636986
:1032F0000233DFE7226D002A04DD63691344636152
:10330000C4F85080A4F84C80FBE6226D002AF9DD59
:1033100063699B1AF3E7002500F11809A846F0E657
:103320002DE9F04F8C4C0223A5B0074694F8268176
:103330000D4616462370B8F1000F40F09780E26901
:10334000A3689A4207D29B1A8B4228BF0B461A44A5
:10335000CD1A1F44E261002D4AD0E0692A46636815
:1033600039461844FDF7D6FD012840F0888063698E
:10337000E1692B4429446361E16139E0B4F8240137
:1033800008B90F2D2BD8C0F1100207EB08014844F3
:10339000AA4228BF2A46019203F0D4FC019AB4F84D
:1033A0002431AD1A904413449BB2102BA4F824315D
:1033B00013D100234846A4F8243103AB04AA1021FA
:1033C000CDF80CA0FDF794FE01283BD01521304626
:1033D0004FF00008FFF76EFD55E00F2D06D907EB03
:1033E0000800103D08F110080028E6D1002DC5D1D5
:1033F000D4E906329A42C0F0AB8094F8263113B17A
:103400005648FFF72CFE03230027802261685448AA
:10341000237084F82370FDF79DFD012840F0828021
:103420004F48FDF79DFE01287CD1FDF7C1FC4C48BB
:10343000FDF7E8FC012805465DD14FF08009DFF873
:1034400024A141E0D4E9063204A958469A1A102A68
:10345000A8BF10220192FFF72AFE0028019A01DA84
:103460001421B4E7E3691A44E261BFE74FF00008B2
:103470004FF0100A04F5A07B04F12409B6E70B21F4
:103480003046FFF717FD404625B0BDE8F08FA3EBAF
:10349000070804A8CDF80C90B8F1800FD4E9011208
:1034A00028BF4FF08008114442463944FDF752FDD1
:1034B0000128054606D103AB5246414604A8FDF754
:1034C00061FE054665B380372369BB42DFD8012D15
:1034D00011D1802303A923480393FDF75FFE012840
:1034E000054608D11F492022A1F1640003F01AFC0F
:1034F00008B984F82350FDF79BFC012D12D194F8F4
:103500002380B8F1000F21D0228C4FF6FF739A422E
:1035100019D01348FDF736FD012805D0162156E7CE
:10352000FDF786FC0F2152E7238C63B9BFF34F8F61
:103530000D490E4BCA6802F4E0621343CB60BFF33F
:103540004F8F00BFFDE7042323709CE70E213EE769
:103550004FF0010897E700BFA0180024E0190024ED
:10356000C41800244419002400ED00E00400FA050A
:1035700070B505460C4631B9022128460024FFF7F4
:1035800099FC204670BD0B78012B01D90221F5E78B
:103590004B884FF6FC72023B9BB29342ECD9FFF78B
:1035A00095FC01260B4B00221E7083F82220227806
:1035B0005A7062881A84FDF759FC044620B9172115
:1035C0002846FFF777FCDCE728463446FFF708FD7E
:1035D000D7E700BFA01800242DE9F74F0446164690
:1035E0000F4629B90221FFF765FC4FF0000A05E0FC
:1035F00042B94FF0010A2046FFF7F2FC504603B0F3
:10360000BDE8F08FDFF8C8B29BF80020012A04D093
:10361000022A00F0378111214CE0DBF81CA0BAF13E
:10362000000F01D01221DEE7BBF8240108B9FF2EFC
:1036300020D8C0F58079984D3946B145284428BF37
:10364000B1464A4603F07EFBBBF82421A6EB0903F2
:103650004A440093ABF82421BBF82421B2F5807FC3
:103660000CD0002AC5D13D4600F0FCF940B9FFF767
:103670002DFCBAE7D146CDF800A0EDE7864DF3E783
:103680002846FDF797FD012812D100228BF826214C
:103690006A88D30611D4A846804A1046FDF78AFDF1
:1036A00001287E4A0ED09BF8262182B1042100E039
:1036B00003212046FFF7FEFBD9E705F180088BF8D0
:1036C0002601E9E79BF82611D2F814A0E1B9D8F851
:1036D000142052451BD3D2B1012271498BF801202D
:1036E0004FF48062CBF80410CBF808206D4A531ACF
:1036F000A2F58062521AD8F8181001939142CBF8C3
:103700000C301CD90721D4E76969514501D00C213F
:10371000CFE71C3205F11C0105F13C0012F801EB6A
:1037200011F801CBE64501D00621C2E78842F5D168
:103730004046FDF73FFD0128C9D00521B9E700F05B
:1037400091F908B91021B4E79BF8262182B12846E7
:10375000FDF7B2FC0028F5D05048FDF715FB824676
:1037600030B918212046FFF7A5FBFFF7AFFB45E76F
:10377000DBF80C10DBF80400FDF77EFB012801D01C
:103780000A2196E780224146DBF80400FDF7C2FBE0
:10379000012801D00B218CE79BF82611002956D077
:1037A0004046FDF74DFB824608B91921DAE75C2255
:1037B00000213D484FF0000A03F0D2FA3B484FF495
:1037C00080723B4BCBF840018118CBF84421CBF8F9
:1037D00028A1CBE95612374A3049CBF87021364A36
:1037E000CBF87421354ACBF87821354ACBF87C21C7
:1037F00001F58062CBF82C21324A1A44019B521AFF
:103800003149CBF83C31521AA0F17C01CBF8302180
:103810002E4ACBE94DA2A0F170026438FFF7ECFB11
:10382000AA69CBE9062AD8F81820CBE9042A002295
:10383000009B9342ABF8242117DD2246194607EB83
:103840000900FFF76DFD00287FF4D3AE0FE7AA69EA
:1038500002F58062CBF818204FF48072CBF81C2060
:10386000D8F81820CBE90421E1E7B6F5807F05D927
:103870002246A6F5807105F58070E2E702228BF8FA
:103880000020B6E600F0EEF800283FF4F0AE224645
:1038900031463846D5E700BFC418002400000208AE
:1038A0000000229000006290E8190024441A0024CD
:1038B00001002008312F0008012F00086D2E00089C
:1038C0007F2E0008FFFF219000000090000422904E
:1038D000A018002438B50546FDF7AAFA8022094948
:1038E0000948FDF737FB0128044603D10648FDF7D8
:1038F00049FB04461CB916212846FFF7DBFA20468F
:1039000038BD00BF00002290C418002410B5044642
:1039100018B1FFF7B7FA01238370FFF7D7FA18B988
:1039200024B10A23A37010BD0120FCE72046FAE76A
:10393000014608B538B1FFF7A5FA094A92F82330D5
:1039400013B10120087008BD92F82200012802D9A5
:1039500001204870F7E701D18B70F4E70120F2E70E
:10396000A018002470B50446A0B0E0B180220F4931
:103970006846FDF7EFFA034690B1059A07AD0834A3
:103980000FAE44F8082C069A44F8042C2A46083452
:1039900003CAB24244F8080C44F8041C1546F5D199
:1039A000184620B070BD0346FAE700BF00000208C9
:1039B0000A4608B530B17E2904D8034903F0C2F99C
:1039C000012008BD0020FCE78005000838B5054649
:1039D00040B141B14C1E0549224603F0C9F900230C
:1039E00001202B5538BD0846FCE700BF5A6F000880
:1039F000014B1860704700BF441C00244FF0E020CA
:103A00000D4A816910B5D2E901348B42234410D3A9
:103A100010684FF47A745B1AB0FBF4F0984293602C
:103A200004D2D368002001339060D360D068516025
:103A300010BD40690344EBE7441C002408B5074867
:103A40000023074A83800260C0E905330323036231
:103A5000FEF7CEF8B0FA80F0400908BD541C0024EF
:103A6000004C0258084B82B0D3F8E02042F4002208
:103A7000C3F8E020D3F8E03003F400230193019B66
:103A800002B0FFF7DBBF00BF004402580A46014600
:103A90000148FEF7E7B800BF541C00240246F9B104
:103AA000B0F1005F1CD3013901440E4881428CBF44
:103AB00000200120B2F1105F13D30B4B994298BF45
:103AC0000120B2F1405F0CD3084B994238BF01206E
:103AD000B2F1605F05D3064B994298BF0120704751
:103AE00000207047FFFF0120FFFF07240080043003
:103AF000FFFF003851B10139054B0144994205D807
:103B00000449884234BF00200120704700207047DC
:103B1000FFFF07240027002451B10139054B014460
:103B2000994205D80449884234BF002001207047DB
:103B300000207047FF260024000000247047032364
:103B400007B58DF80430012301A900208DF8053058
:103B500040238DF80630FDF72FFFC0B203B05DF8AB
:103B600004FB08B513460A4601460020FDF768FF2E
:103B7000C0B208BD08B513460A4601460020FDF74D
:103B80007DFFC0B208BD01460122002008B5FDF747
:103B9000B9FFC0B208BD10B5044686B048B101A94E
:103BA0000020FDF7D1FF4FF48033C0B2236006B090
:103BB00010BDFB20FBE792100023F0B5934240DBE1
:103BC000062A44D0082A74D0042A40F0D08047F254
:103BD000641047F2642610310024C0F60000C0F6DD
:103BE000000651F8042C103151F8207CD3B2C55C8A
:103BF000130EC35C43EA0523C2F30745455D43EA60
:103C00000563C2F30725455D43EA054356F8245092
:103C100001347D400A2C83EA050351F81C5C41F80D
:103C2000103C83EA050351F8185C41F80C3C83EA28
:103C3000050341F8083C83EA020341F8043CD0D173
:103C4000F0BD50F8234041F823400133B6E747F276
:103C5000602647F264120024C0F60006C0F6000297
:103C600048690134C3B2D55C030ED35C43EA052333
:103C7000C0F30745C0F30720555D105C43EA0563B8
:103C800056F8045F43EA004308686840434008462A
:103C90008B6101238769032B50F8045F85EA0705D0
:103CA000856101D1072C62DC0133062BF2D118317A
:103CB000D6E747F2641247F2642520310024C0F6AB
:103CC0000002C0F6000551F8040C203151F8407C88
:103CD000C3B2D65C030ED35C43EA0623C0F30746A7
:103CE000965D43EA0663C0F30726965D43EA064302
:103CF00055F8246001347E40072C83EA060351F80E
:103D00003C6C41F8203C83EA060351F8386C41F8DA
:103D10001C3C83EA060351F8346C41F8183C83EAF2
:103D2000060341F8143C22D01E0E975DDEB2965D6C
:103D300046EA0766C3F30747C3F30723D75DD35C9F
:103D400046EA074646EA032351F8306C734051F8BF
:103D50002C6C41F8103C734051F8286C41F80C3C35
:103D60007340584041F8083C41F8040CABE7F0BD03
:103D70002DE9F04F0023C5B0039334AD0B681BBA97
:103D800004934B681BBA05938B681BBA0693CB68E8
:103D90001BBA07930B691BBA08934B691BBA0993AB
:103DA0008B691BBA0A93CB691BBA0B930B6A1BBABC
:103DB0000C934B6A1BBA0D938B6A1BBA0E93CB6A9A
:103DC0001BBA0F930B6B1BBA10934B6B1BBA11935F
:103DD0008B6B1BBA1293CB6B1BBA139304AB9A6B0E
:103DE000083353F8086C4FEAF24153F8044C81EA67
:103DF000724181EA9221DA6932441E6811444FEA25
:103E0000B44282EAF41282EAD40211449963596BF3
:103E10004FEAF14282EA714282EA9122196A0C4425
:103E20004FEAB64181EAF611224481EAD6010A44FA
:103E3000DA639D42D3D144F6084301220668C5F6F1
:103E400002030169D0F804C04569D0F80880D0F8B1
:103E500018E0C468C7691A601B6803934FF498435D
:103E6000C5F602031A680392039A013240F09F805C
:103E7000039A1A601B680393039BF3B14FF2F0049B
:103E800003690768CAF2A554D0F81C90D0F818E06E
:103E90006740C1685C40856843698EEA010C4268EE
:103EA00084EA0906076083EA050804617940544002
:103EB00089EA05058EEA020E5F4047F2640A4FF078
:103EC0000009C0F6000A04AB59F80A204FEAF12BAA
:103ED00053F809308BEAB11B1A4485EA0E038BEACA
:103EE000716B0B40934446EA0C0283EA0E0302EA2C
:103EF00008025B4406EA0C0B1F444FEA763342EAA1
:103F00000B0283EAB60307EB040B04AC83EAB65357
:103F10004C4413440AEB0902646809F10809526829
:103F20003B44B9F5807F224443EA06074FEA7334E5
:103F3000964481EA050284EAB30407EA0C0702EA20
:103F40000B0284EAB35482EA050272444FEAFB2E64
:103F50008EEABB1E8EEA7B6E724403EA060E47EAC7
:103F60000E078E463C4402EB0807B04601972244F8
:103F70002F46644638D104682244026042681344E4
:103F8000019A436083681E44C36863448660C360CB
:103F900003691344036143695B44436183691944C2
:103FA000C3691D448161C56145B0BDE8F08F4FF222
:103FB000F0038EEA040985EA080A88EA0708CAF2CB
:103FC000A5538EEA0C0E86EA03024B40026087EA94
:103FD000030684EA020185EA02078CEA03044546E7
:103FE0000361D046CC4668E75D4601999C4616467B
:103FF00069E770B495100024AC4200F1040003DBC3
:10400000084670BCFFF7D7BD10F8033C10F8046CED
:104010001B0443EA066310F8016C334310F8026C8A
:1040200043EA062341F824300134E5E72DE9F74F50
:1040300094460E46002853D0002951D01AB903F0F7
:104040000602022A4CD1426A22F00801102901D04E
:10405000202A48D103F0060EBEF1020F03D00169F9
:1040600001390F293FD80179BEF1020FC0F80CC009
:1040700021F006040191047107D1019911F00104A6
:1040800027D0002003B0BDE8F08F0024D0F81080C6
:104090004FF0040944618461C46104624445ECDA70
:1040A000D4F1000B04F003051CF804A00BF0030B83
:1040B00094FBF9F758BFCBF1000500EB87070134FB
:1040C000C5F103057969ED000AFA05F50D437D6137
:1040D000E4E7866000F128013046FFF78AFFD0E769
:1040E0004FF44260CEE740F61F40CBE72DE9F04F9A
:1040F000DB1085B0002401250333039444F6084403
:104100005B00C5F6020401932560246803944FF414
:104110009844C5F6020425680395039D013540F0D7
:10412000E180039D2560246815680394039E04685C
:10413000D0F804E05768002E40F0CE8084EA0506EF
:104140008EEA0704956887687D40C768D068784024
:1041500047F2641710324FF01B08C0F600075FFAF1
:1041600080FC019B4FEA166E934617F80CA05FFA8D
:1041700086FC17F80EE0013B17F80C905FFA84FC00
:104180004AEA0E6AC4F3074E17F80CC0002B17F862
:104190000EE002F1100201934AEA0E4AC5F3072E1F
:1041A00017F80EE04AEA0E2A4FEA146EC4F3072409
:1041B00017F80EE049EA0E69C5F3074E17F80EE04E
:1041C00049EA0E49C0F3072E17F80EE049EA0E2916
:1041D0004FEA156EEDB217F80EE04CEA0E6CC0F324
:1041E000074E4FEA106017F80EE0385C4CEA0E4CB0
:1041F000C6F3072EC6F3074617F80EE04CEA0E2C5E
:1042000017F805E04EEA006EB85D4EEA004E385DE4
:104210004EEA002E6DDD4FEADA1452F8100C4FEA28
:104220004A0652F8043C04F001344FEAD91506F06E
:10423000FE3608FB04F405F0013574404FEA3A26D7
:1042400008FB05F586EA3A468AEA040A464052F82F
:104250000C0C66404FEA490404F0FE3486EA3A66E4
:1042600065404FEA392484EA394489EA0509444023
:1042700052F8080C6C404FEA4C0584EA396405F0AA
:10428000FE354FEADC1909F0013908FB09F989EA22
:1042900005094FEA3C2585EA3C458CEA090C454076
:1042A0004FEA4E0085EA090500F0FE3085EA3C65DC
:1042B0004FEADE1C0CF0013C08FB0CFC8CEA000C05
:1042C0004FEA3E2080EA3E408EEA0C0E584080EADB
:1042D0000C0080EA3E6042E78EEA07066C4020460A
:1042E000254635E7466854686640046810684440CF
:1042F000F5E7DBF80440DBF80850DBF80C0089EA4E
:104300000404DBF800608CEA05058EEA00004C60CE
:1043100086EA0A068D60C8600E6005B0BDE8F08FC1
:104320002DE9F04FDC1089B00125033463006401EE
:104330000193002302EB040C079344F60843C5F6EF
:1043400002031D601B6807934FF49843C5F60203F0
:104350001D680795079D013540F05481079D1D603C
:104360001B68D0F804800793079BDCF8046087681B
:10437000DCF80850002B40F03E81036887EA050A0C
:10438000125983EA020B88EA0602DCF80C30C66890
:1043900086EA030846F66175ACF1200C4FF01B0964
:1043A000C0F60005D0B2ACF1100C4FEA1B6315F853
:1043B00000E05FFA8AF0EB5C2C5C4EEA036EC8F317
:1043C0000743DCF82400EB5C4EEA034ECAF30723F4
:1043D000EB5C4EEA032EDCF820308EEA030E130E5F
:1043E000EB5C44EA0364CBF30743EB5C44EA03442D
:1043F000C8F30723EB5C44EA03244FEA1A63CAF3C9
:10440000074A44405FFA88F0EB5C4FEA18682F5C7B
:1044100047EA0367C2F30743C2F30722EB5C47EAAC
:104420000347CBF307235FFA8BFBE85C15F80B60BF
:1044300047EA0027DCF8280015F80A30474015F84D
:10444000080046EA006646EA0346AB5C46EA0326F5
:10445000DCF82C305E40019B013B002B019340F3C4
:10446000DB804FEADE124FEA4E0B02F001320BF016
:10447000FE3B09FB02F282EA0B02D309500003F073
:10448000013300F0FE3009FB03F34340D8094FEA43
:10449000430B00F001300BF0FE3B09FB00F080EA1B
:1044A0000B0082EA030B8EEA000E8BEA000BE00998
:1044B0008BEA3E2B82EA0E0200F0013083EA0E0EF8
:1044C0008BEA326209FB00F005926200059B02F064
:1044D000FE325040C2094FEA400802F0013208F0B3
:1044E000FE3809FB02F282EA08024FEAD2184FEACC
:1044F000420A08F001380AF0FE3A09FB08F888EA97
:104500000A084FEA470A84EA08040AF0FE3A0294CD
:1045100080EA020484EA0808029C88EA34286040A1
:10452000FC0988EA306004F00134049009FB04F4CB
:1045300084EA0A04E0094FEA440800F0013008F078
:10454000FE3809FB00F080EA08004FEAD0184FEA75
:10455000400A08F001380AF0FE3A09FB08F888EA38
:104560000A0884EA000A87EA08078AEA080A4FEA82
:10457000D6188AEA372A7C4008F0013878408AEA5F
:10458000346409FB08F80394740004F0FE3488EAEC
:1045900004084FEAD8144FEA480A04F001340AF03C
:1045A000FE3A09FB04F484EA0A044FEAD41A4FEAFB
:1045B000440B0AF0013A0BF0FE3B09FB0AFA8AEAC7
:1045C0000B0A88EA040B86EA0A068BEA0A0A83EADF
:1045D0003E4B029B8AEA362A88EA06085A40049B28
:1045E0008AEA3868664083EA3242039B88EA3648A2
:1045F00083EA304AD6E688EA060B87EA0502D846FF
:10460000DA46C7E64268DCF8043082EA030B8268C7
:10461000DCF808305A40F2E7C1F800E04C608F60E7
:10462000CE6009B0BDE8F08F0423FFF7FFBC2DE991
:10463000F04F89B08A46164605460193002800F0DF
:104640000881002900F00581002B00F00281129BF7
:10465000002B00F0FE800F2A40F3FE80037913F058
:10466000060F40F0FC8032074FF0000800F1140BF9
:104670001BBF43F00403A6F110043446037100F19C
:1046800028030293A0453BDA05F114070AEB080260
:10469000002138465378043212F804CC1B0450F839
:1046A00004EB43EA0C6312F801CC43EA0C0312F862
:1046B00002CC43EA0C2383EA0E030DF1100E4EF8F0
:1046C000213001310429E5D1A946029A59467046A4
:1046D00059F8243FFFF70AFD019B43443A683946E5
:1046E000DA703A68120A9A7057F8042B120C4F4588
:1046F0005A70CA7803F8042BF0D108F11008C1E70A
:104700000F3424F00F04A64205DC129B00201E602B
:1047100009B0BDE8F08FA6EB040B0423019A05F164
:1047200014070AEB04004FF0000C02EB0408BE462D
:104730009BFBF3F341460293029B043004319C45FA
:104740003CDB23EAE37308A94FF0000E9A0005EB67
:10475000020901EB020C1444D9F81410A2444CF8DD
:10476000101CABEB02010291019921440C46029905
:104770008E454FDB143201332A44032B62DD2C4675
:1047800005F1280205F1140104A854F8243FFFF7AD
:10479000ADFC3B683A4608F1040808F8113C3B6858
:1047A0001B0A08F8123C57F8043B1B0CBC4208F8E3
:1047B000133CD37808F8143CEBD1A6E710F8032C8F
:1047C00010F8049C1204DEF80030CDF80CE042EA48
:1047D000096910F8012C49EA020210F8029C42EA29
:1047E00009225A4004AB43F82C200CF1010C9EF82E
:1047F000003001F8013CDEF80020039B120A01F8AA
:10480000022C5EF8042B120C01F8032CDA7801F864
:10481000042C91E76FF007015CF8100C01FB0EFB14
:104820001AF80E100BF1180B01FA0BF14840D9F8E9
:10483000141021FA0BF14CF8100C04F80E100EF1C4
:10484000010E94E752F8041F04A840F82310013326
:1048500093E74FF442605BE740F61D4058E740F6AF
:104860001E4055E70523FFF7E1BB2DE9F04F8DB062
:1048700006468A46904608AF10220021019338462A
:1048800002F06EFA002E00F02581BAF1000F00F060
:104890002181019B002B00F01D81169B002B00F055
:1048A0001981B8F10F0F40F31881337913F0060F17
:1048B00040F0168118F00F0F4FF0000506F128099F
:1048C0001BBF43F00403A8F1200444463371A54202
:1048D0003BDA0AEB050200215378043212F8040C8B
:1048E0001B0443EA006312F8010C034312F8020CA4
:1048F00043EA002304A840F8213001310429EBD118
:10490000736A4A463946FFF70BFD019B06F1140E08
:1049100000225919DEF8003057F82200434004A85D
:1049200050F8220047F8223001324EF8040B180AE2
:10493000CB70042A88704FEA13404FEA1363487023
:1049400001F8043BE6D11035C1E7454506DB169B6F
:104950000020C3F800800DB0BDE8F08F0AEB050918
:1049600000240DF1100B4A465378043212F8041C4F
:104970001B0443EA016312F8011C0B4312F8021CEA
:1049800043EA01234BF824300134042CECD106F126
:104990002803394658460293029A736AFFF7C0FC0F
:1049A00005F1100C019A0021A8EB0C0315440393A8
:1049B000284693FBF4F4A14209F1040900F1040034
:1049C00046DB24EAE4740CAB01980022A1006FF0EE
:1049D000070903EB010E039B5B1A61444EF8202C80
:1049E00008448A4401469A4256DB0CAA23EAE37340
:1049F00002EB84010134DA004FF0FF33D34051F869
:104A0000102C134051F8202C534041F8203C08A9A9
:104A1000032C58DD736A04A8029AFFF781FC06F1A3
:104A2000140207A9243652F8043B4868964283EAE8
:104A300000034FEA1320EB7041F8043FA8704FEADF
:104A400013404FEA1363687005F8043BEBD17EE72F
:104A500099F80DE099F80C204FEA0E4E57F82130E6
:104A60004EEA026E99F80F204EEA020299F80EE023
:104A700042EA0E224BF821205A404FEA122E47F804
:104A80002120C273013180F80EE04FEA124E120E5F
:104A900080F80DE002738EE709FB02FB1AF802C0F2
:104AA0005EF8207C0BF1180B0CFA0BF047405EF817
:104AB000100C20FA0BF04EF8207C8CEA000C01F868
:104AC00002C001328FE751F8243004AA42F82430A2
:104AD00001349DE74FF442603DE740F61D403AE760
:104AE00040F61E4037E738B132B1037943F0020394
:104AF00003710020106070474FF442607047FFF769
:104B0000F2BFFFF7F0BF2DE9F843C36C1746D200A0
:104B10000446C3F3C5000E4613449A42E36482BFC1
:104B2000236D01332365236D03EB57732365C3198D
:104B30003F2B2ED9C0F140050C3004F1540804F18C
:104B40000C092A46204402F0FDF849464046FFF78A
:104B50000FF905F13F039F4208D800200C307A1B63
:104B600071192044BDE8F84302F0ECB871198B07C5
:104B700004D040464035FFF7FBF8EAE74B4601F129
:104B8000400251F8040B914243F8040BF9D1494615
:104B9000EFE70025E2E738B550B149B1002A07DB5D
:104BA000037913F0040406D1FFF7ADFF204638BDAA
:104BB00040F6A37038BD40F6A17038BD4EF2676371
:104BC000C6F6092343654AF68563CBF667338365EA
:104BD0004FF27233C3F66E43C3654FF23A53CAF2D3
:104BE0004F53036645F27F23C5F20E13436646F624
:104BF0008C03C9F6053383664DF6AB13C1F6837398
:104C0000C3664CF61953C5F6E03303670023C3644B
:104C10000365704708B538B1037923F006030371C3
:104C2000FFF7CCFF002008BD40F6A37008BD2DE9BA
:104C3000F341002306460C46032BD4BF4C214821E8
:104C4000DA43314402F003024968D20021FA02F249
:104C50000DF803200133082BEED1F06C8023316D69
:104C600006F14C05C20842EA4172002102F03F0001
:104C7000002902F03F0208BF3828304403733CD2B9
:104C800001320023372A34DD06F1440200231DF8E7
:104C900003100133082B02F8011BF8D106F10C01B7
:104CA00006F15400FFF764F806F1540306F17401AD
:104CB0001F461A681846E2701A68120AA27053F862
:104CC000042B120C99426270C27804F8042BF0D1C4
:104CD0004022002106F10C0002F042F820220021BF
:104CE000384602F03DF80023F3646B6002B0BDE883
:104CF000F081B11801320B73C4E70C3206F14B039B
:104D0000002132449A421AD106F10C0706F15408E8
:104D100039464046FFF72CF83B4606F14402002195
:104D200003F8011B9342FBD100221DF8021001324F
:104D3000082A03F8011BF8D139464046B2E702F8C9
:104D4000011FDFE770B50E4688B015460446C8B1AE
:104D5000C1B1BAB18368013B1F2B16D803796946EC
:104D600043F004030371FFF762FF0023A26893423C
:104D700003DB00202A6008B070BD1DF80320F25448
:104D80000133F3E740F6A370F5E740F6A270F2E7CF
:104D90004B1CF0B59B00D48896881D190835B54288
:104DA0000BD815682E19066004F108002F1803446B
:104DB00000202F51B171D380F0BD40F2ED30F0BD35
:104DC00002684AB141B1CB889279083B0132A3EB2A
:104DD0008203CB8000230360704730B584790123C0
:104DE00000250134A342026809D3012300298380EE
:104DF000B5BF49420023C371C371116030BD42F891
:104E0000235001339BB2EDE7F0B5848806468D79D7
:104E1000AC4211D96B1C41F2B540A3421BD396F9A9
:104E2000073000228C80CB71A242234606DBA20011
:104E30000024AB420ADDF0BD0020F0E7336853F8F0
:104E400022700B6843F822700132EDE70E680133DF
:104E5000B4500432EDE7F0BD2DE9F84385880B46E8
:104E60000F6814468988A94690F806E04FF0000CB8
:104E70008D421668D0F800802A4628BF89460EF178
:104E8000010E72451CD393F806E00A464FF0000C61
:104E90000EF1010E724517D38D42214618D3FFF74C
:104EA000B3FF4FF0000E00220023CE45494611D338
:104EB0001343A3881FD156F8232072BBBDE8F883A3
:104EC00048F822C00132DCE747F822C00132E1E7AE
:104ED0001846E4E758F82E50002157F82E004019E4
:104EE00041F100018018594146F82E0000230EF1CF
:104EF000010E0A46D9E756F82920013246F8292042
:104F000006EB890252F8040B0028D4D19942D2D87A
:104F10001068013101301060F4E70133A380BDE86F
:104F2000F8838388012B01BF03681868B0FA80F00A
:104F3000400918BF002070470023827930B5013244
:104F40001C46C37199B201338A4202D8012383807F
:104F500030BD056845F82140F4E790F90700431E8D
:104F600058425841704703681868C04300F0010078
:104F70007047F0B590F9074091F907309C422DD168
:104F800083888D88AB4205D9002C14BF6FF00100D7
:104F90000220F0BD1CD300680122096800EB8306E3
:104FA00001EB850756F804CD57F804EDF44504D11C
:104FB0009A4202D801329A42F4D9561E9E4215D026
:104FC0009B1AAA1A50F8230051F822309842DBD8D5
:104FD000002C14BF01204FF0FF30F0BD012C07D191
:104FE000002B14BF03206FF00200F0BD0020F0BDC5
:104FF0000320F0BD10B50446FFF793FFA0B9A388C6
:105000002268580103F18043013B52F82310A0F1BC
:1050100020024FF0004333EA010406D0904200D151
:1050200010BD5B080138F6E7012010BD01F01F023A
:10503000012349099340026852F8212093430CBF91
:105040000120002070472DE9F0410C46002A60D075
:1050500008B900295DD1E71C92F806E0BF08BE45FB
:105060005BD3002C51D0042501194FF0000C94FBA8
:10507000F5F56545166818DC25EAE5734FF0000C78
:105080009900734526DB14F0030428D16FF04041EA
:1050900097809388581856F8200008B9012B31D111
:1050A0000024D4712046BDE8F08111F8033C043996
:1050B00091F800801B0443EA086391F8038043EAF7
:1050C000080391F8028043EA082346F82C300CF1DB
:1050D000010CCEE746F801C001330431D1E70346A5
:1050E00006EB850E13F8011B46F82510191AA1428C
:1050F000CCDA13F8015BDEF8001045EA0125CEF8A2
:105100000050F3E7013B9380C3E71046FFF714FF1D
:10511000C8E741F2B840BDE8F08141F2B540BDE8D2
:10512000F08170B50446FFF7FCFE90B9A3881D46D8
:10513000990022687DB911684900116052F8232056
:10514000012A06D10133A2799BB2A3800133934295
:105150000CD8002070BD5018013D50F8046C505818
:10516000400040EAD67050500439E2E741F2B540C1
:1051700070BD70B50446FFF7D4FE70B9A588691EEE
:10518000884223680AD353F82120012D4FEA5202A6
:1051900043F8212001D902B9A18070BD03EB800240
:1051A000566853F82020520842EAC67243F820207D
:1051B0000130E5E7F8B58388054682790C460B4453
:1051C000934223DCFFF7ADFE18BB1CB304F1804310
:1051D000A9886FF0030E013B0A460EFB04FE0B4448
:1051E0009B00013A2E680BD1336846F824301346F1
:1051F00046F822300132A242FAD30C44AC80F8BD0A
:10520000F71857F80E70F750043BEAE741F2B54043
:10521000F8BD0020F8BDF0B509B90020F0BD8388C5
:10522000C1F1200C026803F18044013C52F8246073
:1052300002EB840E26FA0CF67446A2420DD11468D5
:1052400004FA01F11160002EE7D001338279934214
:105250000DD8CEF804608380DFE7256854F8047C1D
:105260008D4027FA0CF73D4344F80459E5E741F235
:10527000B540F0BD4B1E1E2BF0B514D88588002319
:10528000C1F1200E6F1EBB4202680DD305F18044B0
:10529000013C52F8243023FA01F142F8241011B9EC
:1052A000012D18BF8780F0BD02EB830452F8236004
:1052B0006468CE4004FA0EF4344342F823400133CC
:1052C000E1E72DE9F04104460D46E1B1828803682B
:1052D000002003EB820E73454FF0000109D1B8B1F5
:1052E0000132A579AA4211D8A28018600020BDE839
:1052F000F0811E6807468846E5FB06783E46404634
:1053000043F8046BE7E7FFF717FEEFE741F2B5401C
:10531000BDE8F0812DE9F74F8B88848895799C4210
:10532000A64605F10105019238BF9E46AE4563D8F9
:105330008779A5000026BC422CD98E799C469C001A
:105340000027B3422CD90027002400250CF1010CC2
:105350001FFA87F8019B0137C44546461B6825D8CC
:10536000C64537D834B108F180416FF001000139EA
:1053700043F8210008F1FF381FFA88F153F82100A3
:1053800008B9002935D10131019B0020998003B073
:10539000BDE8F08F026801345651A4B20435CAE763
:1053A0000D6801332F519BB20434CAE7026852F8EA
:1053B00026900A6852F82680B9EB080869EB0909BB
:1053C00018EB040A49EB050B43F826A05C464FEAAC
:1053D000EB75BDE7016851F82810661845F1000724
:1053E00043F8286008F101083C46FD171FFA88F8C9
:1053F000B6E7013989B2C1E741F2B540C7E72DE907
:10540000F3411E4600230D468979019304468379B2
:10541000174601A832468B428CBF591C0131FFF759
:10542000B7FC002872D129462046FFF7A2FD0330C1
:1054300006282ED8DFE800F04D46253E462504001C
:1054400001992846FFF7E0FC4FF00008019920463B
:1054500081F80780FFF78DFD002853D0022807D080
:10546000013016D1019A21462846FFF753FF2EE05E
:10547000019A29462046FFF74DFF019B83F80780DC
:1054800007E0019A29462046FFF7E6FC0022019B2F
:10549000DA7100213846FFF7A0FC39460198FFF782
:1054A000B3FC3146044601A8FFF78AFC204602B04F
:1054B000BDE8F081019A29462046FFF7CDFC94F91A
:1054C0000720E4E7019A29462046FFF7C5FC0122A0
:1054D000DDE701992046FFF797FC4FF0000801989F
:1054E000294680F80780FFF744FD58B1022805D00F
:1054F0000130CED1019A21462846BCE7019A2946BF
:105500002046B2E70198FFF717FDC2E740F2ED34FD
:10551000CCE72DE9F3410D461F4602AE0023817909
:10552000044646F8043D9046AB793A4630469942E7
:1055300038BF1946FFF72CFC002847D10122019BF8
:10554000294620469A80FFF714FD033006281BD811
:10555000DFE800F036322B17130D0400019A2946BC
:105560002046FFF779FC0022019BDA710CE0019ADA
:1055700029462046FFF7CEFEF5E7019A2146284648
:10558000F8E70198FFF7D8FC00214046FFF725FC1B
:1055900041460198FFF738FC394604463046FFF78C
:1055A0000FFC204602B0BDE8F081019A2146284652
:1055B000FFF7B0FE0122D7E7019A29462046F7E718
:1055C000019A29462046FFF747FCF3E740F2ED3405
:1055D000E7E72DE9F74F01F104080C468179002334
:1055E00005464046023116460193FFF7D1FB0146BE
:1055F00060BB25601F276068FFF7EFFBAB88626820
:10560000013393800123A988126842F821300221D6
:105610002A68D2F800E0032203FB0EF0104052008B
:10562000884282F0010228BF5B18013F4FEA410126
:10563000F2D15B42324601A8A360A9790131FFF79C
:10564000A7FB30B131464046FFF7BAFB40F2ED39D7
:105650002CE001992846FFF7D7FB0198FFF7CAFC19
:10566000404200F01F0A01985146FFF7D4FD6268DE
:10567000334601991046FFF74CFF814600283ED182
:105680006FF04048AB889F4214D3314601A8FFF722
:1056900097FB29466068FFF76CFC002805DD62680F
:1056A000334629461046FFF734FFE660484603B00C
:1056B000BDE8F08F606843440121026852F823B0CE
:1056C000FFF778FDBBF1000F01D10137DAE701994F
:1056D0002846FFF799FB59460198FFF7F2FD51461E
:1056E0000198FFF798FD6268334601991046FFF76D
:1056F00010FF6368AA881B6853F822B0E2E73146BE
:105700004046FFF75DFB314601A89DE7C1680430C4
:1057100008B5FFF755FB08BD08B50023036083609B
:1057200043681BB1C1680430FFF74AFB08BD2DE98F
:10573000F04F93B01C4600230D68069012A8079204
:105740000F4640F8043D23681A6899790892A268C8
:105750000131B3F804900E92E268FFF719FB064698
:10576000002840F0BB8001461198FFF736FBDDF8BA
:105770004480BA88D8F800304A4539D3069A9188CF
:1057800000228800494537D34FEA890203EB020E15
:10579000043A9A180F9200220492049A4A4531D38F
:1057A00009F101096FF04040A8F80490B8F804200E
:1057B000012A05D9111853F82110002900F084801E
:1057C00021684046FFF7D5FB0028C0F28180079A88
:1057D00021681198FFF79EFD0023079A0546D371B3
:1057E000E16811A8FFF7ECFA284613B0BDE8F08F86
:1057F00045F822600132BFE7069E0131366832501B
:105800000430BFE7069A0027049912681E6852F810
:1058100021200593099209982A68E2FB00670E98F7
:10582000089ABB4606FB00FC00271268E2FB0C67E7
:1058300001224A451BD30022CDF808B00A970392F3
:10584000DEF80020DDE9020180184FF000020B9223
:1058500041F100010F9ADDE90A67361847F10007A8
:1058600016607A18CEF80020049A013294E70021DD
:10587000CDF800B00C97019105994E680021304693
:105880008B4655F8226082460999E6FB01ABDDE9BB
:10589000000110EB0A0041EB0B0182468B46002110
:1058A0000D91089951F822600132DDE90C01E6FB07
:1058B0000C0106460F46059916EB0A0641F8046BE3
:1058C00047F100070591B4E7013AA8F804206DE715
:1058D00007991198FFF798FA054681E740F2ED35F0
:1058E00082E7F7B5002302AC06460F46154644F89A
:1058F000043D81792046D268FFF74AFA88B9012130
:105900000198FFF76AFA019930462B463A46FFF7AD
:105910000EFFE96806462046FFF752FA304603B00C
:10592000F0BD40F2ED36F9E738B51D46049B14464C
:10593000FFF765FD20B1A379A28801339A4212D105
:1059400029462046FFF715FB002805DB049B22466D
:1059500029462046FFF7DDFDA28841F2B540A37934
:105960009A4298BF002038BD38B51D46049B1446A6
:10597000FFF7CFFD48B92046FFF7EFFA28B1049BA7
:10598000224629462046FFF73AFD38BD70B5044649
:105990000D461646FFF7C5FB29462046FFF7E9FAF4
:1059A00000280DDB3346224629462046FFF7B1FD8D
:1059B000A18841F2B543A279914288BF184670BDD3
:1059C0000020F5E72DE9FF411D46002380461046E3
:1059D0000F4616460093019302930393FFF7C3FA11
:1059E000002840F0CA802A46B1796846FFF7D0F90E
:1059F0000446002840F086802A46B17901A8FFF7C6
:105A0000C7F90446002879D1B1792A4602A80131A4
:105A1000FFF7BEF9044600286CD1B1792A4603A8E5
:105A20000131FFF7B5F9044600285FD100994046DF
:105A3000FFF7EAF90446002854D101993046FFF7F0
:105A4000E3F9044600284DD101210298FFF7C5F97A
:105A500021460398FFF7C1F90098FFF762FAD0B129
:105A60000398FFF77AFA002871D131460398FFF7BF
:105A700080FA002876DA39460398FFF7C5F904461C
:105A800030E00098FFF775FB0298FFF76CFA00B35F
:105A90000298FFF76EFB0098FFF765FA0028F0D137
:105AA0000198FFF760FA88BB9DE80300FFF761FAF1
:105AB00000282B463FDB009A01991046FFF729FD8D
:105AC000044678B92B46029A03991046FFF721FD48
:105AD000C2E7029A2B4631461046FFF790FC044677
